:020000040800F2
:1000000010040020390100085312000845110008AF
:1000100051120008450200085113000800000000BA
:10002000000000000000000000000000D9120008DD
:10003000470200080000000055120008DB1200080B
:100040005301000853010008530100085301000840
:100050005301000853010008530100085301000830
:100060005301000853010008530100085301000820
:100070005301000853010008530100085301000810
:100080005301000853010008530100085301000800
:1000900053010008530100085301000853010008F0
:1000A00053010008530100085301000853010008E0
:1000B00053010008530100085301000853010008D0
:1000C00053010008530100085301000853010008C0
:1000D00053010008530100085301000853010008B0
:1000E00053010008530100085301000853010008A0
:1000F00053010008000000005301000853010008EC
:10010000530100085301000853010008530100087F
:1001100053010008530100085301000800000000CB
:1001200053010008DFF80CD000F07AF800480047CF
:100130009513000810040020064880470648004731
:10014000FEE7FEE7FEE7FEE7FEE7FEE7FEE7FEE787
:10015000FEE7FEE741130008250100082DE9F05FE6
:100160000546002092469B46884606468146402426
:100170001BE0284641464746224600F041F85346D8
:100180005A46C01A914110D311461846224600F033
:1001900028F82D1A67EB01084F462246012000215E
:1001A00000F01FF817EB00094E41201EA4F10104D6
:1001B000DFDC484631462A464346BDE8F09FD2B2CE
:1001C00001E000F8012B491EFBD270470022F6E740
:1001D00010B513460A4604461946FFF7F0FF2046BD
:1001E00010BD202A04DB203A00FA02F100207047FB
:1001F0009140C2F1200320FA03F319439040704765
:10020000202A04DB203A21FA02F00021704721FA6B
:1002100002F3D040C2F120029140084319467047D2
:10022000064C074D06E0E06840F0010394E8070043
:1002300098471034AC42F6D3FFF778FFF01300086C
:1002400010140008FEE7704770B5044600F0EAF9A4
:100250000546601C02D004484068044400F0E2F9FE
:10026000401BA042FAD370BD000000202DE9F84FDA
:10027000DFF86C820027DFF86C92DFF86CB20D4675
:100280000446404516D04C4514D05C4512D09748E2
:1002900084420FD0964884420CD09648844209D0BC
:1002A0009548844206D09548844203D0B92194A051
:1002B00001F06EF828680104090C01D0000C03D08D
:1002C000BA218FA001F064F86868F8B101281DD048
:1002D00011281BD0022819D0122817D0974988421C
:1002E00014D09749884211D0964988420ED0964939
:1002F00088420BD09549884208D09549884205D05C
:10030000032803D0BB217EA001F042F8A868002892
:1003100007D00128FCD00228FAD0BC2178A001F037
:1003200037F8D5E00646012000FA07FA16EA0A0671
:100330007ED06868012805D0022803D0112801D09A
:1003400012281DD1E86848B1012807D0022805D03D
:10035000032803D0CC216AA001F01AF8A0687A0023
:10036000032191408843E96891400143A16060689E
:10037000297920EA0A00C1F30011B9400143616004
:10038000E068790003228A4090430092AA688A4676
:1003900002FA0AF20243E2606868022801D01228D9
:1003A0002CD1444516D04C4514D05C4512D04F4852
:1003B00084420FD04E4884420CD04E48844209D02B
:1003C0004D48844206D04D48844203D0E4214CA0DD
:1003D00000F0DEFF28690F2803D9E52148A000F0CE
:1003E000D7FFF80804EB8002116A7807C30E0F20CC
:1003F000984081432869984008431062206800991A
:100400008843297901F0030101FA0AF101432160CF
:100410006868C0005BD54F48016841F00101016088
:10042000006827F0030100F0010000904A4800E056
:100430004DE00A189168B807030F0F2098408143D8
:10044000444501D100201CE04C4501D1012018E0B9
:100450005C4501D1022014E02448844201D10320EC
:100460000FE02348844201D104200AE0234884425B
:1004700001D1052005E01F48844201D1062000E09B
:100480000720984008439060344908686A68B04380
:10049000D20300D5304308603049091D08686A68F6
:1004A000B043920300D5304308602C4908310868F6
:1004B0006A68B043D20200D53043086027490C3146
:1004C00008686A68B043920200D5304308607F1C18
:1004D0002E683046FE407FF425AFBDE8F88F00005F
:1004E000000002400004024000080240000C0240EC
:1004F0000010024000180240001C0240001402409C
:100500002E2E2F447269766572732F53544D3332F9
:100510004C3178785F48414C5F4472697665722F40
:100520005372632F73746D33326C3178785F686106
:100530006C5F6770696F2E6300000000000011108F
:1005400000002110000031100000121000002210E5
:100550000000321020380240000001400004014039
:1005600070B50C00054604D140F2851103A000F0DF
:100570000FFF2869204000D0012070BD2E2E2F448F
:100580007269766572732F53544D33324C317878DB
:100590005F48414C5F4472697665722F5372632FD6
:1005A00073746D33326C3178785F68616C5F67703B
:1005B000696F2E630000000070B515460C000646FA
:1005C00004D140F2A31108A000F0E2FE45B1012DD4
:1005D00004D04FF4D27104A000F0DAFEB46170BD13
:1005E0002004B06170BD00002E2E2F447269766524
:1005F00072732F53544D33324C3178785F48414CED
:100600005F4472697665722F5372632F73746D3312
:10061000326C3178785F68616C5F6770696F2E63E8
:1006200000000000014880687047000000000020C2
:1006300002488168426811448160704700000020D0
:1006400010B50024032000F09FF8002000F008F807
:1006500008B1012401E000F025F8204610BD00009B
:1006600070B50E4E05460024706898B14FF47A714B
:10067000B1FBF0F00A490968B1FBF0F000F04EFD63
:1006800040B9102D06D200222946501E00F02CF849
:10069000356000E00124204670BD0000000000200D
:1006A0000C0000200F4882B0016841F00041016059
:1006B000016801F000410091011F0A6842F0010247
:1006C0000A60096801F001010091016841F0805160
:1006D0000160006800F080500090072002B000F038
:1006E00053B800002438024070B515460C46064643
:1006F000102A03D3C42114A000F04AFE102C03D307
:10070000C52111A000F044FE1E480068C0F302237A
:10071000C3F107022046042A00D90422191D072923
:1007200001D2002300E0DB1E012404FA02F1491E7D
:10073000014099409C40641E2C4021433046BDE856
:10074000704000F006BE00002E2E2F4472697665C0
:1007500072732F53544D33324C3178785F48414C8B
:100760005F4472697665722F5372632F73746D33B1
:10077000326C3178785F68616C5F636F7274657832
:100780002E6300000CED00E010B5044607280BD0E6
:10079000062C09D0052C07D0042C05D0032C03D03F
:1007A000AC2108A000F0F4FD154904F00702086828
:1007B0004FF6FF03184040EA0220124A1043086037
:1007C00010BD00002E2E2F447269766572732F5370
:1007D000544D33324C3178785F48414C5F447269F4
:1007E0007665722F5372632F73746D33326C317868
:1007F000785F68616C5F636F727465782E63000068
:100800000CED00E00000FA052DE9F0470E4604006B
:1008100076D036B1012E04D040F22A3188A000F003
:10082000B7FDDFF85482D8F8000000F00100B042B4
:1008300014D2012E05D1D8F8001041F00401C8F8F7
:100840000010D8F8001021F001013143C8F8001061
:10085000D8F8000000F00100B04251D12078874D57
:1008600080071CD5A068A0B1802812D0902810D095
:10087000A0280ED0B0280CD0C0280AD0D02808D08C
:10088000E02806D0F02804D040F241316CA000F0FE
:100890007FFD2868A16820F0F000084328602078D8
:1008A000C0076BD0754F6068083F88B101282ED013
:1008B000022826D0032827D04FF4527160A000F000
:1008C00067FD606802281CD003281DD001281ED0B7
:1008D00038688005002868DA2868616820F003001D
:1008E00008432860FFF79EFE6168074641F28830A2
:1008F000022915D0032921D0012981462BD039E0C6
:1009000053E038688003E5E738688001E2E738683B
:100910008007DFE7FFF786FEC11B494501D926E0C6
:1009200081462868C0F381000228F3D126E000BF89
:10093000FFF778FEC11B494501D918E081462868B8
:10094000C0F381000328F3D118E000BFFFF76AFE6F
:10095000C11B49450BD82868C0F381000128F5D197
:100960000CE000BFFFF75EFEC11B494502D9032022
:10097000BDE8F087286810F00C0FF3D1D8F800100C
:10098000404601F00101B14211D9012E03D10168A5
:1009900041F004010160016821F00101314301606F
:1009A000006800F00100B04201D00120E0E72078AB
:1009B0004FF4806640074FF4A0674FF4C0684FF4CF
:1009C000E06914D5E06860B1B0420AD0B84208D0FE
:1009D000404506D0484504D040F2AD3118A000F0A3
:1009E000D7FC2868E16820F4E0600843286020789C
:1009F000000715D5206960B1B0420AD0B84208D0CE
:100A0000404506D0484504D04FF46D710CA000F06D
:100A1000BFFC2868216920F4605040EAC1002860CA
:100A200000F034F82968164AC1F30311515CC8403C
:100A30001449086014480068BDE8F047FFF710BE8D
:100A40002E2E2F447269766572732F53544D3332B4
:100A50004C3178785F48414C5F4472697665722FFB
:100A60005372632F73746D33326C3178785F6861C1
:100A70006C5F7263632E6300003C024008380240E2
:100A8000DD1300080C0000200000002070B5154D9B
:100A90002968154801F00C02042A0CD04410082AD9
:100AA0000AD00C2A0AD0281F0068C0F342314FF444
:100AB0000040491C884070BD204670BD0B4AC1F300
:100AC0008343D35CC1F381522968521CC90302D508
:100AD000A3FB040101E0A3FB00010023FFF73EFBA1
:100AE00070BD0000083802400024F400D413000850
:100AF0002DE9F84F04007DD0206870B1C1070CD1FA
:100B000081070AD4010708D4410706D4C00604D4DB
:100B10004FF4A871EEA000F03BFCFB4801680068B0
:100B200001F00C0700F480362078F84DC0074CD057
:100B3000606840B1012806D0052804D040F2591160
:100B4000E3A000F025FC082F12D00C2F02D1B6F53F
:100B5000803F0DD06068012811D008B1052818D059
:100B6000286820F480302860286820F4802009E07C
:100B70002868800329D560680028BCD025E0286853
:100B800040F480302860606890B1FFF74BFD8046EC
:100B90000AE0286840F480202860F0E7FFF742FD73
:100BA000A0EB080064287DD828688003F6D50CE007
:100BB000FFF738FD804605E0FFF734FDA0EB0800A5
:100BC0006428F0D828688003F6D42078DFF840B392
:100BD000DFF8408380074FF001094FF0000A4FD53E
:100BE000E06830B1012804D04FF4C671B8A000F01D
:100BF000CFFB00E098E020691F2804D940F28D1156
:100C0000B3A000F0C5FB042F0AD00C2F00D13EB1D9
:100C1000E06838B3C8F80090FFF704FD064614E01A
:100C20002868800702D5E06801287DD1DBF8001034
:100C3000584621F4F852216942EA012110E000BF30
:100C4000FFF7F0FC801B0228ADD828688007F7D595
:100C5000DBF800105846226921F4F85141EA0221DC
:100C600001600DE0C8F800A0FFF7DCFC064604E0D8
:100C7000FFF7D8FC801B022895D828688007F7D496
:100C80002078C0067AD5A7B1A069002877D00128BE
:100C900007D04FF402718EA000F07AFBA069002803
:100CA000F4D000E0DDE0C8F82090FFF7BBFC06467A
:100CB0006BE02868800502D5A069002834D0E0697F
:100CC000FF2804D940F2D71181A000F061FB206A0F
:100CD000B0B1B0F5005F13D0B0F5804F10D0B0F5D3
:100CE000C04F0DD0B0F5004F0AD0B0F5204F07D05F
:100CF000B0F5404F04D04FF4EC7175A000F048FB04
:100D0000206ADBF800105E4601F46041884211D988
:100D100000F0A2FA002888D13068216A20F46040EF
:100D200008433060217F00E0F0E1306861F31F602C
:100D300030600EE0316821F4604101433160217F71
:100D4000306861F31F603060206A00F085FA002887
:100D5000E1D1216A4FF4004009EB513188406A49E2
:100D600009686D4AC1F30311515CC8406B490860C2
:100D70006B480068FFF774FC002871D148E038E048
:100D8000FFF750FC801B02286BD828688005F7D538
:100D9000E069FF2804D94FF407714DA000F0F8FA7C
:100DA000206AB0B1B0F5005F13D0B0F5804F10D01D
:100DB000B0F5C04F0DD0B0F5004F0AD0B0F5204FC0
:100DC00007D0B0F5404F04D040F21D2140A000F004
:100DD000DFFADBF80010226A21F460411143CBF8FE
:100DE0000010227FDBF8001062F31F61CBF80010C7
:100DF0000EE0C8F820A0FFF715FC064605E000BF8E
:100E0000FFF710FC801B0228BED828688005F7D4A5
:100E10002078444E00072ED5DFF80CB16069C8B1C8
:100E2000012806D04FF40F7129A000F0B1FA6069D3
:100E300080B1CBF80090FFF7F5FB834606E000BFDA
:100E4000FFF7F0FBA0EB0B0002289DD8306880076D
:100E5000F6D510E0CBF800A0FFF7E4FB834607E0EF
:100E60003AE1FDE0FFF7DEFBA0EB0B0002288BD898
:100E700030688007F6D42078400771D5A0684FF01D
:100E8000000B40B1012806D0052804D04FF41A7198
:100E90000FA000F07DFA234810380068C0000BD482
:100EA00020481038016841F08051016000684FF01F
:100EB000010B00F0805000901C480168C90541D426
:100EC000016841F480710160FFF7ACFB009035E0F0
:100ED0002E2E2F447269766572732F53544D333220
:100EE0004C3178785F48414C5F4472697665722F67
:100EF0005372632F73746D33326C3178785F68612D
:100F00006C5F7263632E6300083802400038024051
:100F10000438024000004742DD1300080C000020A6
:100F20000000002034380240800647420070004034
:100F3000FFF778FB0099401A642886D87548006846
:100F4000C005F5D5A06801280BD008B1052812D03E
:100F5000306820F480703060306820F4806003E0F6
:100F600031E0306840F480703060A068A0B1FFF7D5
:100F700059FB00900CE0306840F480603060F0E78E
:100F8000FFF750FB0099411A41F28830814267D83F
:100F900030688005F4D50EE0FFF744FB009007E0D1
:100FA000FFF740FB0099411A41F28830814257D83F
:100FB00030688005F4D4BBF1000F04D056480168B6
:100FC00021F080510160606A002848D0012809D0D2
:100FD000022807D04FF42B71AFF20C1000F0D8F9B3
:100FE000606AE0B30C2F7DD0022805D0C8F860A05D
:100FF000FFF718FB044671E0A06A40B1B0F5803FEE
:1010000005D040F2B521AFF2381000F0C1F9E06A26
:10101000E8B1B0F5802F1AD0B0F5002F17D0B0F599
:10102000402F14D0B0F5801F11D0B0F5A01F0ED006
:10103000B0F5C01F0BD0B0F5E01F08D0B0F5001F11
:1010400005D040F2B621AFF2781000F0A1F9206B84
:10105000B0F5800F0ED0B0F5000F0BD001E057E0D7
:1010600039E0B0F5400F05D040F2B721AFF2A01043
:1010700000F08EF94746C8F860A0FFF7D3FA06469D
:1010800005E000BFFFF7CEFA801B022823D82868AE
:101090008001F7D4D4E90A1001431F48226B1C38A1
:1010A000036823F47D031A4311430160C7F860907D
:1010B000FFF7B8FA044604E0FFF7B4FA001B022871
:1010C00009D828688001F7D522E00BE0FFF7AAFADB
:1010D000001B022802D90320BDE8F88F2868800190
:1010E000F4D415E00128F7D00B481C380068A26A38
:1010F00000F48031914209D1E26A00F4701191420A
:1011000004D1216B00F44000884201D00120E3E7C4
:101110000020E1E7007000402438024010B5401E76
:10112000B0F1807F01D3012010BD4FF0E024606159
:101130000F21601700F00DF90020A0610720206149
:10114000002010BDFEE70000F0B587B0142168460E
:10115000FFF73CF83848016841F00401016001687C
:1011600001F004010591016841F02001016001686E
:1011700001F020010591016841F001010160016861
:1011800001F001010591016841F00201016001686F
:1011900001F002010591016841F008010160006859
:1011A000264E00F008000590002220213046FFF76F
:1011B00003FA00244FF40050CDE90004204F6946A3
:1011C00038460294FFF752F803250095CDE9015403
:1011D00069461C48FFF74AF841F6FF70CDE9000563
:1011E000694602943846FFF741F84FF6DF70CDE9C3
:1011F0000005694602943046FFF738F82020009039
:1012000001AA012082E8310069463046FFF72EF836
:101210004FF6FF70CDE90005694602940A48FFF7D2
:1012200025F80420CDE90005694602940748FFF738
:101230001DF807B0F0BD00001C380240000002405D
:10124000000802400014024000040240000C02406A
:10125000FEE770477047000038B51C490023096855
:101260001B4A11F0F00F23D118491C310C68E5001E
:10127000184C03D5216801F4C0540EE00D6845F008
:1012800080550D600D6805F08055009524680D6847
:1012900004F4C05425F080550D60B4F5C05F07D14B
:1012A000B0F5404F04D11068012340F004001060F5
:1012B000106820F0010018431060106800F0010071
:1012C000984201D0012038BD002038BD08380240C6
:1012D000003C0240007000407047FFF7A9B90000D1
:1012E00010B592B034216846FEF770FF14210DA8A6
:1012F000FEF76CFF1148016821F4C05141F4006110
:10130000016001210391022010210090002404912A
:10131000CDE9090480040B9000010C906846FFF7AA
:10132000E7FB0F200D900320CDE90E04109401215E
:101330000DA81194FFF768FA12B010BD00700040BC
:1013400002494FF0006008607047000008ED00E0BF
:10135000FEE70907090E002804DB00F1E02080F811
:101360000014704700F00F0000F1E02080F8141D19
:10137000704702E008C8121F08C1002AFAD170475E
:101380007047002001E001C1121F002AFBD1704705
:1013900070470000FFF754F9FFF7A2FFFFF7D4FEF4
:1013A0000A4D0B4E4FF400544FF47A7721462846ED
:1013B000FFF7D6F808B1002200E0012220213046D4
:1013C000FFF7FAF83846FEF73FFFEFE70008024064
:1013D00000000240030406080C1018203000000032
:1013E00000000000000102030406070809000000D5
:1013F0001014000800000020100000007213000804
:1014000020140008100000200004000082130008CF
:1014100010000000010000000000000068FF1F0035
:0400000508000125C9
:00000001FF
