:020000040800F2
:1000000010040020350100081F0F00084F0E0008E3
:100010001D0F0008A1010008730F00080000000078
:10002000000000000000000000000000230F000896
:10003000A301000800000000210F0008250F0008A0
:100040004F0100084F0100084F0100084F01000850
:100050004F0100084F0100084F0100084F01000840
:100060004F0100084F0100084F0100084F01000830
:100070004F0100084F0100084F0100084F01000820
:100080004F0100084F0100084F0100080000000068
:100090000000000000000000000000004F01000808
:1000A0004F0100084F0100084F0100084F010008F0
:1000B0004F0100084F0100084F0100084F010008E0
:1000C0004F0100084F0100084F0100084F010008D0
:1000D0004F0100084F0100084F0100084F010008C0
:1000E0004F0100084F0100084F0100080000000008
:1000F0000000000000000000000000000000000000
:1001000000000000000000000000000000000000EF
:1001100000000000000000004F0100084F0100082F
:10012000DFF80CD000F02AF800480047B50F0008AF
:10013000100400200648804706480047FEE7FEE717
:10014000FEE7FEE7FEE7FEE7FEE7FEE7FEE7FEE787
:10015000710F000821010008D2B201E000F8012B64
:10016000491EFBD270470022F6E710B513460A4637
:1001700004461946FFF7F0FF204610BD064C074D18
:1001800006E0E06840F0010394E807009847103467
:10019000AC42F6D3FFF7C8FFD40F0008F40F0008F5
:1001A000FEE770472DE9F84F0026DFF89CB20D46B8
:1001B0000446B14658450FD0A44884420CD0A44808
:1001C000844209D0A348844206D0A348844203D085
:1001D000BD21A2A000F0EDFE28680104090C01D0A9
:1001E000000C03D0BE219DA000F0E3FE6868DFF89C
:1001F000A8A200281ED00128FCD01128FAD002287D
:10020000F8D01228F6D05045F4D0A4498842F1D055
:10021000A3498842EED0A3498842EBD0A249884244
:10022000E8D0A2498842E5D00328E3D0BF218BA0C3
:1002300000F0BFFE00E1012000FA06F807EA080717
:1002400047456FD15C450FD0804884420CD0804830
:10025000844209D07F48844206D07F48844203D03C
:10026000CD217EA000F0A5FE6868A0EB0A025045F3
:1002700059D00EDC032875D006DC002853D00128A5
:1002800019D0022869D131E0112821D0122864D177
:100290003AE0B2F5881F46D006DCB2F5803F42D086
:1002A000B2F5801F59D13EE0B2F5001F3BD0B2F548
:1002B000041F52D137E0E868022807D0012805D092
:1002C000032803D0D52165A000F073FEE8683EE066
:1002D000E868022807D0012805D0032803D0DC21D4
:1002E0005EA000F066FEE868001D30E0E8680228C5
:1002F00007D0012805D0032803D0E32157A000F040
:1003000058FEE868083022E0E868022807D0012893
:1003100005D0032803D0EA2150A000F04AFEE86887
:100320000C3014E087E0A86880B1012811D00228C1
:1003300007D0F72149A000F03CFEA86830B10128A1
:1003400007D04FF00809C4F8148006E00420814665
:1003500003E04FF00809C4F81080FF2F05D82146AC
:1003600005E0FFE74FF00000F1E704F104014FEA78
:10037000860001D9A0F120000B684FF00F0202FAAD
:1003800000FC23EA0C0309FA00FC43EA0C030B60AF
:100390006868C0004FD54648816941F0010181611C
:1003A000806926F0030100F00100009041480B181D
:1003B0009868B1074FEA117C02FA0CF290435C4551
:1003C00001D100210FE021498C4201D101210AE035
:1003D0001F498C4201D1022105E01E498C4201D106
:1003E000032100E0042101FA0CF1014399606868DF
:1003F000C0033148016801D5394300E0B9430160C9
:10040000686880032D48016801D5394300E0B9438D
:1004100001606868C0022A48016801D5394300E0DC
:10042000B9430160686880022648016801D53943F4
:1004300000E0B9430160761C2F6837FA06F07FF4BC
:10044000FAAEBDE8F88F000000080140000C014042
:100450000010014000140140001801402E2E2F44CE
:100460007269766572732F53544D33324631787802
:100470005F48414C5F4472697665722F5372632FF7
:1004800073746D3332663178785F68616C5F677062
:10049000696F2E63000000000000111000002110A1
:1004A0000000311000001210000022100000321075
:1004B000001002400000014000040140040401401B
:1004C000080401400C04014070B515460C000646B6
:1004D00004D14FF4EA7108A000F06BFD45B1012D85
:1004E00004D040F2D51104A000F063FD346170BD6A
:1004F0002004306170BD00002E2E2F447269766595
:1005000072732F53544D3332463178785F48414CE3
:100510005F4472697665722F5372632F73746D3303
:1005200032663178785F68616C5F6770696F2E63DF
:1005300000000000014880687047000000000020B3
:1005400002488168027811448160704700000020F1
:1005500010B5032000F096F8002000F005F800F038
:1005600023F8002010BD000070B50D4D04464FF477
:100570007A712878B1FBF0F00A490968B1FBF0F014
:1005800000F051FC48B9102C07D200222146501E21
:1005900000F028F800206C6070BD012070BD0000E4
:1005A000000000200C0000200C4808B5816941F0D3
:1005B00001018161816901F001010091C16941F08E
:1005C0008051C161C06900F08050009004484168CA
:1005D00021F0E06141F00071416008BD001002406F
:1005E0000000014070B515460C460646102A03D39C
:1005F000AA2114A000F0DDFC102C03D3AB2111A024
:1006000000F0D7FC1E480068C0F30223C3F10702C4
:100610002046042A00D90422191D072901D20023EB
:1006200000E0DB1E012404FA02F1491E014099405A
:100630009C40641E2C4021433046BDE8704000F0D1
:1006400099BC00002E2E2F447269766572732F5369
:10065000544D3332463178785F48414C5F4472697B
:100660007665722F5372632F73746D3332663178EF
:10067000785F68616C5F636F727465782E630000E9
:100680000CED00E010B5044607280BD0062C09D06D
:10069000052C07D0042C05D0032C03D0922108A0F0
:1006A00000F087FC154904F0070208684FF6FF03C5
:1006B000184040EA0220124A1043086010BD0000B2
:1006C0002E2E2F447269766572732F53544D333238
:1006D000463178785F48414C5F4472697665722F85
:1006E0005372632F73746D3332663178785F68614B
:1006F0006C5F636F727465782E6300000CED00E030
:100700000000FA052DE9F0470C4605005ED0286888
:10071000C1070AD1810708D4410706D4000704D4D1
:100720004FF44E715DA000F044FC24B140F2393129
:100730005AA000F03EFC2868664C810729D5400786
:1007400003D5606840F4E06060602878000703D556
:10075000606840F460506060A868A0B1802812D042
:10076000902810D0A0280ED0B0280CD0C0280AD0D5
:10077000D02808D0E02806D0F02804D040F25F311D
:1007800046A000F016FC6068A96820F0F00008435D
:1007900060602878C00737D0686868B101280ED03B
:1007A00002280FD040F266313CA000F002FC6868DD
:1007B000012804D0022805D02068800704E02068C2
:1007C000800301E020688001002802DB0120BDE8F1
:1007D000F0876068696820F0030008436060FFF7F5
:1007E000A9FE064641F2883707E000BFFFF7A2FEE8
:1007F000801BB84201D90320E9E76068696800F00E
:100800000C00B0EB810FF1D128784FF480664007DF
:100810004FF4A0674FF4C0684FF4E06914D5E8685E
:1008200060B1B0420AD0B84208D0404506D0484531
:1008300004D04FF4697119A000F0BBFB6068E9684F
:1008400020F4E060084360602878000715D5286927
:1008500060B1B0420AD0B84208D0404506D0484501
:1008600004D040F2AB310DA000F0A3FB6068296911
:1008700020F4605040EAC100606000F033F8616825
:10088000154AC1F30311515CC8401449086014486B
:100890000068FFF769FE002099E700002E2E2F4424
:1008A0007269766572732F53544D333246317878BE
:1008B0005F48414C5F4472697665722F5372632FB3
:1008C00073746D3332663178785F68616C5F726320
:1008D000632E630000100240C20F00080C000020CD
:1008E0000400002013A188B00FC98DE80F0015A1E6
:1008F0000DF1100C0FC98CE80F00164A516816480C
:1009000001F00C03042B10D0082B0ED1C1F383434C
:10091000C9031DF803000AD5D16A04AA01F00F012A
:10092000515C0D4A5043B0FBF1F008B070470B49E1
:100930004843FAE702030405060708090A0B0C0DF1
:100940000E0F10100102030405060708090A0B0C1C
:100950000D0E0F100010024000127A0000093D0039
:100960002DE9F84F04007DD04FF0010A4FF0000848
:100970004FF48039FD4EFE4D206860B1C1070DD1A6
:10098000810762D401076ED440076DD440F267112D
:10099000F8A000F00EFB2078C00753D060684FF439
:1009A000A02740B1484506D0B84204D040F26D11AE
:1009B000F0A000F0FEFA6868C0F38100012807D0BB
:1009C0006868C0F38100022809D16868C00306D5B1
:1009D0002868800336D560680028C4D032E060689B
:1009E000484503D1286840F4803009E008B1B84296
:1009F0000DD0286820F480302860286820F48020FA
:100A00002860606888B1FFF795FD074609E028680F
:100A100040F480202860E5E7FFF78CFDC01B6428C8
:100A200077D828688003F7D50CE0FFF783FD0746E9
:100A300005E000BFFFF77EFDC01B6428F0D82868E2
:100A40008003F7D4207880074ED5206930B1012883
:100A500004D040F2A111C7A000F0ABFA60691F28D2
:100A600008D902E096E042E07BE04FF4D171C1A0EA
:100A700000F09FFA686810F00C0F07D06868C0F3A8
:100A80008100022809D16868C00306D4286880075D
:100A900014D5206901287DD110E02069B0B1C6F8D5
:100AA00000A0FFF747FD074605E000BFFFF742FD46
:100AB000C01B0228B4D828688007F7D52868616968
:100AC00020F0F80040EAC10028600DE0C6F8008080
:100AD000FFF730FD074604E0FFF72CFDC01B02289E
:100AE0009ED828688007F7D42078000736D5AF4F06
:100AF000A06920B3012806D04FF4F1719DA000F049
:100B000058FAA069D8B1C7F800A0FFF713FD07464F
:100B100005E06AE1FFF70EFDC01B02288ED8686A67
:100B20008007F7D5A2484FF4FA510068B0FBF1F006
:100B3000009000BF0098411E0091FAD20EE0C7F865
:100B40000080FFF7F7FC074605E000BFFFF7F2FC67
:100B5000C01B0228AED8686A8007F7D42078400707
:100B60006ED5E068002740B1012806D0052804D0E2
:100B700040F211217FA000F01CFAE869C00008D4FF
:100B8000E86940F08050E861E869012700F0805092
:100B9000009000E043E187480168C90512D401686C
:100BA00041F480710160FFF7C5FC834606E000BF99
:100BB000FFF7C0FCA0EB0B00642891D87D480068CB
:100BC000C005F5D5E06801280AD008B1052811D084
:100BD000286A20F001002862286A20F0040002E060
:100BE000286A40F001002862E068A8B1FFF7A2FC83
:100BF00083460DE0286A40F004002862F0E700BF59
:100C0000FFF798FCA0EB0B0141F28830814285D8B8
:100C1000286A8007F4D50EE0FFF78CFC834607E0D6
:100C2000FFF788FCA0EB0B0141F28830814291D89C
:100C3000286A8007F4D41FB1E86920F08050E86189
:100C4000E06900287ED0012809D0022807D040F2B0
:100C5000AF2148A000F0ADF9E069002872D06868C3
:100C6000C0F381000228E0696DD0022805D0C6F8E3
:100C70006080FFF75FFC0446C0E0206A30B1484561
:100C800004D04FF42E713BA000F093F9606A70B36A
:100C9000B0F5802F2BD0B0F5002F28D0B0F5402F25
:100CA00025D0B0F5801F22D0B0F5A01F1FD0B0F521
:100CB000C01F1CD0B0F5E01F19D0B0F5001F16D032
:100CC000B0F5101F13D0B0F5201F10D0B0F5301FB5
:100CD0000DD0B0F5401F0AD0B0F5501F07D0B0F5C9
:100CE000601F04D040F2B92122A000F062F9C6F8DA
:100CF0006080FFF71FFC074605E000BFFFF71AFC06
:100D0000C01B022877D828688001F7D4206A48459C
:100D100054D1A06828B3012823D0022821D0032869
:100D20001FD004281DD005281BD0062819D007285D
:100D300017D0082815D0092813D00A2811D00B285D
:100D40000FD001E06DE05DE00C280AD00D2808D03E
:100D50000E2806D00F2804D040F2CF2105A000F0C5
:100D600028F9E86AA16820F00F0025E0000042425F
:100D7000001002402E2E2F447269766572732F5335
:100D8000544D3332463178785F48414C5F44726944
:100D90007665722F5372632F73746D3332663178B8
:100DA000785F68616C5F7263632E63008004424207
:100DB0000C000020007000400843E862D4E90801FC
:100DC0000843696821F4741108436860C6F860A09C
:100DD000FFF7B0FB044604E0FFF7ACFB001B022862
:100DE00009D828688001F7D51BE004E0FFF7A2FBD3
:100DF000001B022802D90320BDE8F88F2868800173
:100E0000F4D40EE00128F7D06868226A00F480313B
:100E1000914204D1616A00F47010884201D001202F
:100E2000EAE70020E8E710B5401EB0F1807F01D36B
:100E3000012010BD4FF0E02460610F21601700F029
:100E400099F80020A06107202061002010BDFEE776
:100E5000F0B585B000252C480095019502950395C5
:100E6000816941F010018161816901F010010491F3
:100E7000816941F020018161816901F020010491C3
:100E8000816941F004018161816901F004010491EB
:100E9000816941F00801816180691C4F00F0080000
:100EA0004FF440760490002231463846FFF70CFBA1
:100EB00043F6FF400324CDE9000469463846FFF7B6
:100EC00071F949F6FE70CDE9000469461048FFF754
:100ED00069F94FF6FF70CDE9000469460D48FFF748
:100EE00061F901200096CDE90105022003906946D1
:100EF0003846FFF757F90420CDE900046946064853
:100F0000FFF750F905B0F0BD00100240001001409D
:100F100000080140000C014000140140FEE770474A
:100F200070477047FFF70CBB30B58FB0282168467B
:100F3000FFF719F914210AA8FFF715F9012000900D
:100F400000040024CDE901040225CDE9075080000A
:100F500009906846FFF704FD0F200A90CDE90B5475
:100F60000D9400210AA80E94FFF7CCFB0FB030BD02
:100F70007047FEE70907090E002804DB00F1E020B6
:100F800080F80014704700F00F0000F1E02080F8B6
:100F9000141D704702E008C8121F08C1002AFAD1C8
:100FA00070477047002001E001C1121F002AFBD1E9
:100FB00070477047FFF7CCFAFFF7B6FFFFF748FF1F
:100FC000FEE7000000000000000001020304060725
:100FD00008090000F40F00080000002010000000C5
:100FE000940F000804100008100000200004000006
:100FF000A40F000801000000100000000000000025
:041000000024F400D4
:0400000508000121CD
:00000001FF
