:020000040800F2
:10000000D0100020450100086F36000819340008A0
:100010006D360008890300086B55000800000000D9
:100020000000000000000000000000006F39000820
:1000300033040008000000006D3900087139000821
:100040005F0100085F0100085F0100085F01000810
:100050005F0100085F0100085F0100085F01000800
:100060005F0100085F0100085F010008FD03000850
:100070005F0100085F0100085F0100085F010008E0
:100080005F0100085F0100085F0100085F010008D0
:10009000F55400085F0100085F0100085F010008D7
:1000A0005F0100085F0100085F0100085F010008B0
:1000B0005F0100085F0100085F0100085F010008A0
:1000C0005F0100085F0100085F0100085F01000890
:1000D0005F0100085F0100085F0100085F01000880
:1000E0005F0100085F0100085F0100085F01000870
:1000F0005F0100085F0100085F0100085F01000860
:100100005F0100085F0100085F0100085F0100084F
:100110005F0100085F0100085F0100085F0100083F
:100120005F0100085F0100085F0100085F0100082F
:10013000DFF80CD000F052F80048004735570008AF
:10014000D01000200648804706480047FEE7FEE73B
:10015000FEE7FEE7FEE7FEE7FEE7FEE7FEE7FEE777
:10016000DB3900083101000840EA01039B0703D096
:1001700009E008C9121F08C0042AFAD203E011F8E6
:10018000013B00F8013B521EF9D27047D2B201E0A8
:1001900000F8012B491EFBD270470022F6E710B58C
:1001A00013460A4604461946FFF7F0FF204610BDE5
:1001B00030B50B46014600202022012409E021FA37
:1001C00002F59D4205D303FA02F5491B04FA02F534
:1001D0002844151EA2F10102F1DC30BD064C074D8A
:1001E00006E0E06840F0010394E807009847103407
:1001F000AC42F6D3FFF7A0FF34580008545800086B
:1002000070B58C1810F8015B15F0070301D110F8D8
:10021000013B2A1106D110F8012B03E010F8016B05
:1002200001F8016B5B1EF9D12B0705D40023521E88
:100230000DD401F8013BFAE710F8013BCB1A921CF0
:1002400003E013F8015B01F8015B521EF9D5A142EE
:10025000D8D3002070BD000070B5044600688168E6
:10026000C943C9071CD1816821F00101816001F0F7
:1002700015F805460FE000BF01F010F8401B0228FA
:1002800009D9A06A40F01000A062E06A40F00100C5
:10029000E062012070BD20688068C043C007EBD0D9
:1002A000002070BD10B50146406A826A12F0500FFE
:1002B00005D0006A026BBDE8104008461047816A0D
:1002C00041F40071816201688968C1F342410729E4
:1002D0000CD1017B51B9816A21F480718162816AFC
:1002E000C90403D4816A41F00101816200F0B8F9C8
:1002F00010BD10B5406A816A41F040018162C16A57
:1003000041F00401C16200F0ADF910BD10B5406AC2
:1003100000F0A7F910BD0000F8B5002604460096CD
:1003200000688168C943C90728D0816841F001018C
:100330008160134813490068B0FBF1F000E0401EF3
:1003400000900028FBD100F0A9FF054611E000BF96
:1003500000F0A4FF401B02280BD9A06A40F0100057
:10036000A062E06A40F00100E06284F824600120AD
:10037000F8BD20688068C043C007E9D10020F8BDFF
:100380007C00002040420F00FEE700207047002064
:100390007047000010B500220549064803F098FE9A
:1003A00003490448323903F08DFE002010BD0000DF
:1003B0008E0700209802002010B50146034803F084
:1003C00081FE024803F062FE002010BD980200206A
:1003D000094A10B5D2F8B822D2F814220AB1012085
:1003E00010BD0A460146044803F072FEBDE8104005
:1003F000014803F0CBBE000098020020014800F045
:1004000045BB00005402002030B590F84050012454
:10041000AC40C56B6C60046863604368102B036874
:1004200003D099600068C26030BD9A600068C16006
:1004300030BD7047704700002DE9F843002605469F
:1004400000960068734F0C46B046B8420AD0724915
:10045000884207D07149884204D040F2D17170A01F
:1004600005F067F9206830B3012824D0022822D093
:10047000032820D004281ED005281CD006281AD016
:10048000072818D0082816D0092814D00A2812D016
:100490000B2810D00C280ED00D280CD00E280AD016
:1004A0000F2808D0102806D0112804D040F2D271AD
:1004B0005BA005F03EF96068012822D0022820D018
:1004C00003281ED004281CD005281AD0062818D0CE
:1004D000072816D0082814D0092812D00A2810D0CE
:1004E0000B280ED00C280CD00D280AD00E2808D0CE
:1004F0000F2806D0102804D040F2D37148A005F090
:1005000018F9A06890B1012810D002280ED0032855
:100510000CD004280AD0052808D0062806D00728C1
:1005200004D040F2D4713EA005F003F995F8240000
:10053000012812D0012085F8240060681F210728B7
:100540000ED22B685A6B401E00EB800081408A431C
:10055000216881400A435A631AE00220BDE8F8830B
:100560002A680D280AD2136BC01F00EB800081405F
:100570008B43216881400B43136309E0D36A0D3834
:1005800000EB800081408B43216881400B43D362A4
:10059000206807212A680A280AD3D3680A3800EBA2
:1005A000400081408B43A16881400B43D36008E049
:1005B000136900EB400081408B43A16881400B43ED
:1005C00013612068102801D011281FD12868B84273
:1005D00017D18168090219D4816841F40001816052
:1005E0002068102812D11C481C490068B0FBF1F0AB
:1005F00000EB8000400000E0401E00900028FBD18E
:1006000004E0A86A40F02000A862012685F8248052
:100610003046A3E70024014000280140003C01408F
:100620002E2E2F447269766572732F53544D3332D8
:10063000463178785F48414C5F4472697665722F25
:100640005372632F73746D3332663178785F6861EB
:100650006C5F6164632E63007C00002040420F00E9
:1006600070477047704700002DE9F04704004FF0D5
:1006700000057CD075492068754E884209D07549BF
:10068000884206D0B04204D040F2B31172A005F007
:1006900050F8606838B1B0F5006F04D04FF4DA71EB
:1006A0006DA005F046F8A0684FF4807930B1484558
:1006B00004D040F2B51168A005F03BF8207B30B1C2
:1006C000012804D04FF4DB7163A005F032F8E06933
:1006D0004FF400284FF4402AB8B1B0F5003F14D0D1
:1006E000B0F5C02F11D040450FD0B0F5202F0CD061
:1006F00050450AD0B0F5802F07D0B0F5602F04D058
:1007000040F2B71154A005F014F8A06800281CD0DE
:100710002069401E0F2804D940F2BB114EA005F0FD
:1007200008F8207D88B1012806D04FF4DE714AA078
:1007300004F0FFFF207D40B1A069401E072804D9C6
:1007400040F2BF1144A004F0F4FFA06A002728B9CA
:10075000E76284F82470204600F0A0F82046FFF7F6
:100760007BFDA16AC90600D430B1A06A00E06BE04D
:1007700040F01000A06267E0A16A21F4885141F0C6
:100780000201A1622368E169B34202D1514500D15F
:100790004146267BCC4641EA460261680A43A1688D
:1007A000614509D0012907D05FF0000194F8148059
:1007B000B8F1010F02D00AE04946F7E7C6B1A66AD0
:1007C00046F02006A662E66A46F00106E6625E682A
:1007D00026F469460E435E60236899682C4E3140CA
:1007E00011439960A16861450BD0012909D00CE043
:1007F000DFF8A080A66908EB46360E4346F4006198
:10080000E5E7218A0D05A5F580152168CB6A23F45B
:1008100070032B43CB62216889681F4B19409142BA
:1008200008D1E762A16A21F0020141F00101A16251
:10083000BDE8F087A06A20F0020040F01000A0623E
:10084000E06A40F00100E0620120F1E7002401408D
:10085000003C0140002801402E2E2F44726976652D
:1008600072732F53544D3332463178785F48414C80
:100870005F4472697665722F5372632F73746D33A0
:1008800032663178785F68616C5F6164632E630003
:10089000FDF7E1FF00E0FFFFFE0E1FFF70B586B021
:1008A00000260546009601960296039600681A49AE
:1008B00088422FD11949886940F40070886188699D
:1008C00000F400700490886940F004008861886931
:1008D000694600F00400049001200090032001907C
:1008E0000F4800F035FB104C0E48C4E9000680208C
:1008F000C4E9026040002061800060612020A061A6
:100900000002E061204600F0E5F908B1FFF792FD32
:100910002C62656206B070BD0024014000100240E8
:100920000008014008000240540200202DE9F04771
:1009300004460068414D90468946A84207D0404988
:10094000884204D040F214613EA004F0F2FE3B4E17
:1009500020684A4F361DA84201D0B84207D13068FE
:1009600010F4702F03D001252846BDE8F08794F8D5
:10097000240001280CD0012084F824002046FFF731
:10098000CBFC05004FF0000004D084F82400EBE716
:100990000220EAE7A16A40F60162914341F48071C6
:1009A000A1622168B94218D1326812F4702F14D0B4
:1009B000A16A41F48011A1623168490505D5A16A97
:1009C00021F4005141F48051A162A16AC9040AD501
:1009D000E16A21F00601E16206E0A26A22F48012D7
:1009E000A2624968E9E7E06284F82400216A2448A9
:1009F0008862216A2348C862216A23480863216803
:100A00006FF0020008602068816841F480718160A5
:100A1000216843464A464C31206A00F033FA206888
:100A20008168C1F342410729816803D041F48011F4
:100A3000816099E741F4A001FAE700000024014039
:100A4000003C01402E2E2F447269766572732F533D
:100A5000544D3332463178785F48414C5F44726977
:100A60007665722F5372632F73746D3332663178EB
:100A7000785F68616C5F6164632E630000280140E9
:100A8000A50200080D030008F30200082DE9F05F3D
:100A9000C16B0A6801680B68046C4FF0040808FA1F
:100AA00004F8844D844E854FDFF814C2DFF81492A9
:100AB000DFF814A2DFF814B2DFF814E218EA020F2C
:100AC00065D05FEA437862D50A68920603D40A6863
:100AD00022F004020A60DFF8F0814FF480620168BE
:100AE00008F1140813011402414524D9A9420DD07C
:100AF000B1420FD0B9421AD0614515D0494515D041
:100B0000514501D1120312E0594501D104220EE0F2
:100B1000714501D140220AE06D4D1435A94206D03D
:100B20006B4A2832914201D11A4600E022466749B9
:100B3000091F0A6029E0A94213D0B14215D0B94279
:100B400020D061451BD049451BD0514502D14FF4FF
:100B5000800217E0414502D14FF0806212E0594512
:100B600001D104220EE0714501D140220AE0584D26
:100B70001435A94206D0564A2832914201D11A466C
:100B800000E022464B4908394A60C16A71E04FF0E3
:100B9000020808FA04F818EA020F70D05FEA8378B6
:100BA0006DD50A68920606D40A6822F00A020A6025
:100BB000012180F82110DFF810814FF400720168E4
:100BC00008F1140813011402414524D9A9420DD09B
:100BD000B1420FD0B9421AD0614515D0494515D060
:100BE000514501D1120312E0594501D102220EE014
:100BF000714501D120220AE0354D1435A94206D0B5
:100C0000334A2832914201D11A4600E022462F4948
:100C1000091F0A6029E0A94213D0B14215D0B94298
:100C200020D061451BD049451BD0514502D14FF41E
:100C3000001217E0414502D14FF0007212E0594511
:100C400001D102220EE0714501D120220AE0204D9F
:100C50001435A94206D01E4A2832914201D11A46C3
:100C600000E02246134908394A60002180F820102C
:100C7000816A00291CD0BDE8F05F0847FFE708251E
:100C8000A540154214D01A0712D50A6822F00E02A8
:100C90000A6090F84020C36B012101FA02F25A6009
:100CA000816380F82110002180F82010016BE0E7BB
:100CB000BDE8F09F080002401C00024030000240E6
:100CC00044000240580002406C0002400804024008
:100CD0001C04024070B504007ED05A4920685A4D69
:100CE00088422DD057491431884229D0554928319E
:100CF000884225D053493C31884221D05149503156
:100D000088421DD04F496431884219D04D4978310D
:100D1000884215D0A84213D04B49143188420FD0D5
:100D20004949283188420BD047493C31884207D095
:100D300045495031884203D09A2144A004F0F9FC7F
:100D4000606840B1102806D0B0F5804F03D09B21D9
:100D50003EA004F0EEFCA068402804D018B19C210D
:100D60003AA004F0E6FCE068802804D018B19D2188
:100D700036A004F0DEFC206948B1B0F5807F06D0D3
:100D8000B0F5007F03D09E2130A004F0D2FC606952
:100D900048B1B0F5806F06D0B0F5006F03D09F2149
:100DA0002AA004F0C6FCA06928B1202803D0A02105
:100DB00026A004F0BEFCE06960B1B0F5805F09D008
:100DC000B0F5005F06D0B0F5405F03D0A1211FA0B1
:100DD00004F0AFFC142000E00CE02168A9420BD223
:100DE000184A52420A44B2FBF0F0800020641548D1
:100DF00008380AE0012070BD134A52420A44B2FB8F
:100E0000F0F08000206410480838E063022084F885
:100E100021000A6843F6F0708243F4E901031843A5
:100E2000D4E902352B4318432369184363691843F7
:100E3000A3691843104308600020606301216177B3
:100E4000207770BD08000240080402402E2E2F4477
:100E50007269766572732F53544D33324631787808
:100E60005F48414C5F4472697665722F5372632FFD
:100E700073746D3332663178785F68616C5F646D6E
:100E8000612E63002DE9F041884604460025581E76
:100E90004FF6FF711E461746884204D340F26F1189
:100EA0001DA004F046FC94F8200001280DD001207C
:100EB00084F8200094F821100020012907D084F83C
:100EC000200002252846BDE8F0810220FBE7022130
:100ED00084F82110A0632068016821F001010160FD
:100EE00033463A4641462046FFF78EFAE06A00282C
:100EF0002068016802D041F00E0106E021F00401F3
:100F000001602068016841F00A0101602068016801
:100F100041F001010160D5E72E2E2F4472697665FC
:100F200072732F53544D3332463178785F48414CB9
:100F30005F4472697665722F5372632F73746D33D9
:100F400032663178785F68616C5F646D612E630032
:100F50002DE9F84F0027DFF8BCA2DFF8BCB20D4640
:100F60000446B946504514D05C4512D0AB48844283
:100F70000FD0AB4884420CD0AA48844209D0AA487A
:100F8000844206D0A948844203D0BD21A8A004F021
:100F9000D0FB28680104090C01D0000C03D0BE214D
:100FA000A3A004F0C6FB686800281FD00128FCD06D
:100FB0001128FAD00228F8D01228F6D0AB4988427E
:100FC000F3D0AB498842F0D0AA498842EDD0AA4973
:100FD0008842EAD0A9498842E7D0A9498842E4D0AA
:100FE0000328E2D0BF2192A004F0A3FB0BE1012073
:100FF00000FA07F801EA0806464574D1544514D0B2
:101000005C4512D0854884420FD0854884420CD07C
:101010008448844209D08448844206D0834884426C
:1010200003D0CD2182A004F084FB904869680A1A9D
:10103000814259D00EDC032975D006DC002953D03B
:10104000012919D0022969D131E0112921D01229B1
:1010500064D13AE0B2F5881F46D006DCB2F5803F95
:1010600042D0B2F5801F59D13EE0B2F5001F3BD00F
:10107000B2F5041F52D137E0E868022807D00128F2
:1010800005D0032803D0D52169A004F052FBE868FD
:101090003EE0E868022807D0012805D0032803D0E5
:1010A000DC2163A004F045FBE868001D30E0E8683F
:1010B000022807D0012805D0032803D0E3215CA033
:1010C00004F037FBE868083022E0E868022807D01F
:1010D000012805D0032803D0EA2155A004F029FBFC
:1010E000E8680C3014E08DE0A86880B1012811D0C8
:1010F000022807D0F7214EA004F01BFBA86830B1EE
:10110000012807D04FF00809C4F8148006E0042035
:10111000814603E04FF00809C4F81080FF2E05D87F
:10112000224605E0FFE74FF00000F1E704F104027A
:101130004FEA870001D9A0F1200013684FF00F019A
:1011400001FA00FC23EA0C0309FA00FC43EA0C0351
:1011500013606868C00055D54A48826942F00102B0
:101160008261806927F0030200F001000090464888
:1011700013189868BA07120F91408843544501D15B
:10118000002118E05C4501D1012114E023498C4283
:1011900001D102210FE022498C4201D103210AE052
:1011A00020498C4201D1042105E01F498C4201D124
:1011B000052100E006219140014399606868C00361
:1011C0003248016801D5314300E0B14301606868ED
:1011D00080032F48016801D5314300E0B14301602D
:1011E0006868C0022B48016801D5314300E0B14373
:1011F0000160686880022848016801D5314300E039
:10120000B14301607F1C2E683146FE407FF4EFAE93
:10121000BDE8F88F00080140000C014000100140BB
:101220000014014000180140001C01400020014052
:101230002E2E2F447269766572732F53544D3332BC
:10124000463178785F48414C5F4472697665722F09
:101250005372632F73746D3332663178785F6861CF
:101260006C5F6770696F2E63000000000000111052
:1012700000002110000031100000121000002210A8
:101280000000321000100240000001400004014044
:1012900004040140080401400C0401400148806836
:1012A00070470000700000200248816802781144F5
:1012B0008160704770000020074810B5016841F058
:1012C00010010160032000F0C9F8002000F006F8CA
:1012D00000F024F8002010BD0020024070B50D4D34
:1012E00004464FF47A712878B1FBF0F00A49096896
:1012F000B1FBF0F001F0BFF948B9102C07D2002281
:101300002146501E00F05AF800206C6070BD01208C
:1013100070BD0000700000207C0000200C4808B563
:10132000816941F001018161816901F00101009150
:10133000C16941F08051C161C06900F080500090E6
:101340000448416821F0E06141F00071416008BD4E
:10135000001002400000014010B5040003D5BE217A
:1013600007A004F0E6F9002C09DB04F01F010120BE
:1013700088406109890001F1E021C1F8000110BD38
:101380002E2E2F447269766572732F53544D33326B
:10139000463178785F48414C5F4472697665722FB8
:1013A0005372632F73746D3332663178785F68617E
:1013B0006C5F636F727465782E63000070B51546BC
:1013C0000C460646102A03D3AA2114A004F0B1F952
:1013D000102C03D3AB2111A004F0ABF91E48006818
:1013E000C0F30223C3F107022046042A00D90422D5
:1013F000191D072901D2002300E0DB1E012404FA95
:1014000002F1491E014099409C40641E2C4021433A
:101410003046BDE8704004F0BDB800002E2E2F44C9
:101420007269766572732F53544D33324631787832
:101430005F48414C5F4472697665722F5372632F27
:1014400073746D3332663178785F68616C5F636F97
:10145000727465782E6300000CED00E010B5044650
:1014600007280BD0062C09D0052C07D0042C05D05A
:10147000032C03D0922108A004F05BF9154904F075
:10148000070208684FF6FF03184040EA0220124A9C
:101490001043086010BD00002E2E2F44726976653F
:1014A00072732F53544D3332463178785F48414C34
:1014B0005F4472697665722F5372632F73746D3354
:1014C00032663178785F68616C5F636F72746578DB
:1014D0002E6300000CED00E00000FA0510B50C06CC
:1014E00007D501F0070101EB810100EBC1002830B5
:1014F00005E001EB810100EBC10000F5B47099B289
:1015000032B1012202730181190C4181002010BD0A
:1015100000220273C180F9E7704701EB810200EB02
:10152000C202D0F8E802D26B02F0DFBF01EB810209
:1015300000EBC202D0F8E802D2F87C2103F038B800
:1015400070B504460B0601F0070000EB800104EBC8
:10155000C1014FF001024FF0000503D581F82920A9
:10156000283103E081F8695101F5B471087094F8ED
:10157000A802012808D084F8A822206803F058FCAB
:1015800084F8A852002070BD022070BD70B50446DA
:1015900001F00F006268904201D9012070BD0B0676
:1015A00001F0070000EB800104EBC1014FF00102E4
:1015B0004FF0000503D581F82920283103E081F898
:1015C000695101F5B4718D70087094F8A802012872
:1015D00008D084F8A822206803F0C7FC84F8A85239
:1015E000002070BD022070BD2DE9F05F04685FEA45
:1015F000424C0B788D69B4F850C04FF000064BF6A2
:101600008F7948F2800A48F68F7B48F2C00E4FF47B
:1016100080672AD54FF0020808EBC308C44407EBE3
:101620004C07E45BC4F30904A54203D32D1B8D6171
:1016300001D00BE08E61066836F8235005EA0905F3
:1016400085F4005545EA0A0526F82350520609D5C7
:101650000D78036833F8252002EA0B0242EA0E02F5
:1016600023F8252084B30A8929E04FF0060808EB07
:10167000C308C44407EB4C07E45BC4F30904A54268
:1016800003D32D1B8D6101D00BE08E61066836F807
:10169000235005EA090585F4005545EA0A0526F8B0
:1016A0002350520609D40B78056835F8232002EA46
:1016B0000B0242EA0E0225F823202CB14A8949691F
:1016C0000068234603F020FF2046BDE8F09F2DE987
:1016D000F05F05460C4600685FEA426C16462278C9
:1016E000A369B0F850C04FF0000148F68F774CF274
:1016F00080094FF6FF7B4FF4004E4FF4806A6CD5A3
:101700004FF0020808EBC208E0440AEB480C30F83E
:101710000C00C0F30900834211D91B1AA3610FD03A
:10172000730407D52E6836F822303B4043EA09039C
:1017300026F8223094F82420012A08D0C6E0A161BE
:1017400011462846FFF7E9FE70046CD4BEE06269DA
:1017500002446261E2690244E2612369226A9A42B8
:1017600002D31846111A03E084F824100AB1104677
:101770002162617811B1012923D02BE02968B1F8E9
:1017800050201144227801EB021101F2044148B1CA
:101790003E280FD84208C30700D0521C0BEA822211
:1017A0000A8017E00A8822F4F8420A800A8842F484
:1017B0000042F5E74209C30600D1521E4EEA8222DA
:1017C000EEE72968B1F850201144227801EB0211AC
:1017D000A1F8040483B2228974E04FF0060808EBF4
:1017E000C208E0440AEB480C30F80C00C0F30900D2
:1017F000834211D31B1AA3610FD0730407D42E6840
:1018000036F822303B4043EA090326F8223094F8A8
:101810002420012A11D059E0A16111462846FFF782
:101820007CFE700452D42278296831F822003840B6
:1018300040EA090021F8220048E06269024462613E
:10184000E2690244E2612369226A9A4203D318469C
:10185000111A216204E00AB11046216284F82410B2
:101860006278296812B1012A22D029E0B1F850200B
:101870001144227801EB021101F20C4148B13E28DB
:101880000FD84208C30700D0521C0BEA82220A80FC
:1018900016E00A8822F4F8420A800A8842F40042DC
:1018A000F5E74209C30600D1521E4EEA8222EEE756
:1018B000B1F850201144227801EB0211A1F80C0478
:1018C000628983B26169286803F03CFE2278296846
:1018D00031F8220048F6BF73184080F0300048F21B
:1018E0008003184321F822000020BDE8F09F01F09A
:1018F000070101EB810100EBC100D0F884017047C2
:101900002DE9F04104460F0601F0070000EB8001CD
:1019100004EBC1014FF001064FF0000503D581F83B
:101920002960283103E081F8695101F5B47108702C
:101930000A61CB704A7802B1C881022B00D10D71C7
:1019400094F8A802012809D084F8A862206803F05E
:1019500041F9284684F8A852BDE8F0810220FBE74F
:1019600070B50C4601F0070505EB850100EBC101E0
:10197000C1E95F230022C1F8842181F8692181F83F
:10198000685101F5B4716207006803F043FB002061
:1019900070BD70B504460D4601F0070061688842CD
:1019A00001D9012070BD29064FF000064FF0010259
:1019B00007D500EB800104EBC10181F82920283113
:1019C00007E005EB850104EBC10181F8696101F5D0
:1019D000B4718A70087094F8A802012807D084F8BE
:1019E000A822206803F0FDFA680702D006E0022072
:1019F00070BD04F52C71206803F0B5FA84F8A86274
:101A0000002070BD70B50C4601F0070505EB85019F
:101A100000EBC101C1E90F23012281F84C208B6446
:101A200000234B6481F8292001F8285F62070068D1
:101A300003F0F0FA002070BD1FB50446006803F003
:101A40005FFD000402D5204601F012FE206803F07D
:101A500057FD40050CD5206830F8441F21F4806103
:101A60000180204600F044F90021204600F05BF997
:101A7000206803F045FD400405D5206830F8441F78
:101A800021F480410180206803F03AFD800405D5EF
:101A9000206830F8441F21F400510180206803F0D1
:101AA0002FFDC00414D5206830F8401F21F0040138
:101AB0000180206830F8401F21F008010180204695
:101AC00000F029F9206830F8441F21F4805101808A
:101AD000206803F015FD00053ED522680020694608
:101AE00032F8203021F81030401CC0B20828F7D35B
:101AF00032F8400F40F001001080206830F8402F8D
:101B000022F0010202802068B0F844205205FBD583
:101B100030F8442F22F4806202800020236831F8DC
:101B2000102023F82020401CC0B20828F6D32068DB
:101B300030F8401F41F008010180206830F8441F50
:101B400021F400610180206830F8401F41F0040159
:101B50000180204600F01CF9206803F0D1FC8005CC
:101B600008D5206830F8441F21F400710180204618
:101B700000F0D5F8206803F0C3FCC00505D5206847
:101B800030F8441F21F4807101801FBD2DE9F04120
:101B900086B004000CD038492068884203D08E21DA
:101BA00036A003F0C6FD94F8A902002520B108E094
:101BB000012006B0BDE8F08184F8A852204600F06C
:101BC00079F8032084F8A902206803F0C5F904F12C
:101BD0001001142288466846FEF7C6FA94E80F0002
:101BE00003F024F90226D0BB0021206803F0A2FCF8
:101BF000002001270FE000BF00EB800104EBC101D2
:101C000081F8297001F8280FC881CD700D614D61F0
:101C1000401CC0B28D6161688142EDD8002011E0A6
:101C200000EB800104EBC10181F8695181F8680182
:101C300081F86B51C1F87851C1F87C51401CC0B299
:101C4000C1F8805161688142EAD814224146684651
:101C5000FEF78AFA94E80F0003F075F910B184F8E2
:101C6000A962A5E784F8245084F8A972206803F0DB
:101C700068F900209DE70000005C00402E2E2F44F4
:101C80007269766572732F53544D333246317878CA
:101C90005F48414C5F4472697665722F5372632FBF
:101CA00073746D3332663178785F68616C5F70632E
:101CB000642E630008B500680B49884212D10B48B6
:101CC000C16941F40001C161C069002200F4000053
:101CD000009011461420FFF771FBBDE80840142066
:101CE000FFF73ABB08BD0000005C00400010024056
:101CF00070B5044680680125022801D0FEF79AFBE2
:101D00002946D4F8E80202F03CFDD4F8E802BDE828
:101D1000704002F0F8BCD0F8E80202F01CBDD0F828
:101D2000E80202F022BD10B5044690F8A80201288E
:101D30000BD0012084F8A80284F82410206803F056
:101D4000FBFB002084F8A80210BD022010BDD0F8D3
:101D5000E82200F52C71104602F01FBD10B50446B4
:101D600090F8A802012810D0012084F8A802206869
:101D700003F0B7FB01212046FFF7CEFB206803F0FC
:101D8000DEF8002084F8A80210BD022010BD00007B
:101D900010B50446D0F8E80202F03EFDA069002824
:101DA00004D00348016841F00601016010BD000045
:101DB00010ED00E02DE9F84304460068524DC107DC
:101DC0000ED1810773D441077ED40107FCD4C0062D
:101DD0007BD46C214DA003F0ACFC2078C00763D00D
:101DE000606860B1B0F5807F09D0B0F5007F06D0A3
:101DF000B0F5407F03D0722144A003F09AFCE8695B
:101E00000026C00008D4E86940F08050E861E86925
:101E1000012600F0805000904B480168C90512D49B
:101E20000168804641F480710160FFF737FA074688
:101E300005E000BFFFF732FAC01B642823D8D8F8AA
:101E40000000C005F6D5286A10F4407021D0A188A2
:101E500001F4407181421CD0286A3C49012220F4DF
:101E600040700A6000220A602862C00711D0FFF7A4
:101E700015FA074641F2883808E000BFFFF70EFA6E
:101E8000C11B414502D90320BDE8F883286A8007B9
:101E9000F4D5286A616820F44070084328621EB1B6
:101EA000E86920F08050E8612078800717D5A068A5
:101EB00078B1B0F5804F0CD0B0F5004F09D0B0F537
:101EC000404F06D0B92101E009E00BE00FA003F07C
:101ED00030FC6868A16820F44040084368602078BE
:101EE000C0060FD56069B0F5800F05D020B140F273
:101EF000151106A003F01DFC6868616920F48000DC
:101F0000084368600020BFE7001002402E2E2F44D7
:101F10007269766572732F53544D33324631787837
:101F20005F48414C5F4472697665722F5372632F2C
:101F300073746D3332663178785F68616C5F726399
:101F4000635F65782E6300000070004040044242E9
:101F50002DE9F0470F46050078D02868C1070AD15F
:101F6000810708D4410706D4000704D44FF44E710A
:101F70006FA003F0DEFB47B1012F06D0022F04D083
:101F800040F239316AA003F0D4FB774E306800F09C
:101F90000700B84209D2306820F0070038433060AB
:101FA000306800F00700B84277D128686F4C81078D
:101FB00029D5400703D5606840F4E0606060287868
:101FC000000703D5606840F460506060A868A0B165
:101FD000802812D0902810D0A0280ED0B0280CD085
:101FE000C0280AD0D02808D0E02806D0F02804D095
:101FF00040F25F314EA003F09CFB6068A96820F0BE
:10200000F000084360602878C00737D0686868B17E
:1020100001281CD002281DD040F2663144A003F0F4
:1020200088FB6868012812D0022813D02068800736
:10203000002832DA6068696820F0030008436060B5
:10204000FFF72CF9804641F2883910E025E020683E
:102050008003EDE720688001EAE700BFFFF71EF983
:10206000A0EB0801494502D90320BDE8F08760686C
:10207000696800F00C00B0EB810FEFD1306800F020
:102080000700B8420BD9306820F0070038433060B1
:10209000306800F00700B84201D00120E5E7287859
:1020A0004FF4806640074FF4A0674FF4C0684FF4C8
:1020B000E06914D5E86860B1B0420AD0B84208D0EF
:1020C000404506D0484504D04FF4697118A003F08C
:1020D00030FB6068E96820F4E060084360602878BD
:1020E000000715D5286960B1B0420AD0B84208D0BF
:1020F000404506D0484504D040F2AB310CA003F077
:1021000018FB6068296920F4605040EAC1006060F3
:1021100000F034F86168164AC1F30311515CC840FD
:102120001449086014480068FFF7D8F800209CE7BD
:102130002E2E2F447269766572732F53544D3332AD
:10214000463178785F48414C5F4472697665722FFA
:102150005372632F73746D3332663178785F6861C0
:102160006C5F7263632E6300002002400010024027
:10217000245800087C0000207400002012A185B0C3
:102180000FC98DE80F0014A0144A0068049051682C
:10219000134801F00C03042B10D0082B0ED1C1F30F
:1021A0008343C9031DF803000AD5516804AAC1F38B
:1021B0004041515C0A4A5043B0FBF1F005B0704712
:1021C00008494843FAE70000020304050607080926
:1021D0000A0B0C0D0E0F101001020000001002403F
:1021E00000127A0000093D002DE9F84F04007DD06F
:1021F000FA4EFB4D20684FF0010A4FF000084FF4F3
:10220000803960B1C1070DD1810762D401076ED456
:1022100040076DD440F26711F2A003F08AFA2078EB
:10222000C00753D060684FF4A02740B1484506D09E
:10223000B84204D040F26D11EAA003F07AFA68685F
:10224000C0F38100012807D06868C0F3810002282C
:1022500009D16868C00306D52868800336D5606850
:102260000028C4D032E06068484503D1286840F4B3
:10227000803009E008B1B8420DD0286820F48030E1
:102280002860286820F480202860606888B1FFF703
:1022900005F8074609E0286840F480202860E5E753
:1022A000FEF7FCFFC01B642877D828688003F7D5A9
:1022B0000CE0FEF7F3FF074605E000BFFEF7EEFF78
:1022C000C01B6428F0D828688003F7D420788007E2
:1022D0004ED5206930B1012804D040F2A111C1A02F
:1022E00003F027FA60691F2808D902E096E042E06F
:1022F0007BE04FF4D171BBA003F01BFA686810F0CB
:102300000C0F07D06868C0F38100022809D1686803
:10231000C00306D42868800714D5206901287DD120
:1023200010E02069B0B1C6F800A0FEF7B7FF07467D
:1023300005E000BFFEF7B2FFC01B0228B4D8286832
:102340008007F7D52868616920F0F80040EAC100ED
:1023500028600DE0C6F80080FEF7A0FF074604E005
:10236000FEF79CFFC01B02289ED828688007F7D480
:102370002078000736D5A94FA06920B3012806D0E0
:102380004FF4F17197A003F0D4F9A069D8B1C7F860
:1023900000A0FEF783FF074605E054E1FEF77EFF4D
:1023A000C01B02288ED8686A8007F7D59C484FF476
:1023B000FA510068B0FBF1F0009000BF0098411E98
:1023C0000091FAD20EE0C7F80080FEF767FF0746DB
:1023D00005E000BFFEF762FFC01B0228AED8686AA6
:1023E0008007F7D4207840076ED5E068002740B119
:1023F000012806D0052804D040F2112179A003F06D
:1024000098F9E869C00008D4E86940F08050E861B4
:10241000E869012700F08050009000E027E1814842
:102420000168C90512D4016841F480710160FEF7AA
:1024300035FF834606E000BFFEF730FFA0EB0B0040
:10244000642891D877480068C005F5D5E068012870
:102450000AD008B1052811D0286A20F001002862AE
:10246000286A20F0040002E0286A40F00100286297
:10247000E068A8B1FEF712FF83460DE0286A40F03D
:1024800004002862F0E700BFFEF708FFA0EB0B0195
:1024900041F28830814285D8286A8007F4D50EE061
:1024A000FEF7FCFE834607E0FEF7F8FEA0EB0B010B
:1024B00041F28830814291D8286A8007F4D41FB154
:1024C000E86920F08050E861E06900287ED00128AA
:1024D00009D0022807D040F2AF2142A003F029F929
:1024E000E069002872D06868C0F381000228E069C2
:1024F0006DD0022805D0C6F86080FEF7CFFE0446F6
:10250000A4E0206A30B1484504D04FF42E7135A0C4
:1025100003F00FF9606A70B3B0F5802F2BD0B0F5DF
:10252000002F28D0B0F5402F25D0B0F5801F22D045
:10253000B0F5A01F1FD0B0F5C01F1CD0B0F5E01F34
:1025400019D0B0F5001F16D0B0F5101F13D0B0F59C
:10255000201F10D0B0F5301F0DD0B0F5401F0AD0AD
:10256000B0F5501F07D0B0F5601F04D040F2B9217C
:102570001CA003F0DEF8C6F86080FEF78FFE074669
:1025800005E000BFFEF78AFEC01B02285BD8286862
:102590008001F7D4206A48450FD1A06838B1B0F562
:1025A000003F04D040F2CF210EA003F0C2F86868CB
:1025B000A16820F4003008436860D4E908010843AA
:1025C000696821F474110843686001E051E041E05A
:1025D000C6F860A0FEF762FE04462AE00000424210
:1025E000001002402E2E2F447269766572732F53AD
:1025F000544D3332463178785F48414C5F447269BC
:102600007665722F5372632F73746D33326631782F
:10261000785F68616C5F7263632E6300800442427E
:102620007C00002000700040FEF738FE001B0228EE
:1026300009D828688001F7D51BE000BFFEF72EFE01
:10264000001B022802D90320BDE8F88F286880010A
:10265000F4D40EE00128F7D06868226A00F48031D3
:10266000914204D1616A00F47010884201D00120C7
:10267000EAE70020E8E710B5401EB0F1807F01D303
:10268000012010BD4FF0E02460610F21601702F0BF
:1026900081FF0020A06107202061002010BD000004
:1026A00070B50C46054600683E49884207D03E4951
:1026B000884204D040F29C713CA003F03AF82068B4
:1026C000B0F5006F05D020B140F29D7137A003F046
:1026D00030F86068B0F5806F05D020B140F29E718F
:1026E00032A003F026F8A06868B1B0F5807F0AD068
:1026F000B0F5007F07D0B0F5407F04D040F29F7165
:102700002AA003F016F8E068FF2804D94FF4F4611A
:1027100026A003F00EF82069B0F5805F05D020B147
:1027200040F2A17121A003F004F8606938B1B0F55E
:10273000005F04D040F2A2711CA002F0FAFFE06931
:10274000B0F5804F05D020B140F2A37117A002F080
:10275000F0FF95F83C00012822D0012085F83C00CC
:10276000E068A26820F440701043626820F4806042
:102770001043226820F400601043226920F4805046
:102780001043626920F400501043E269002120F4F4
:10279000804010432A68506485F83C10002070BDCA
:1027A000022070BD002C0140003401402E2E2F4429
:1027B0007269766572732F53544D3332463178788F
:1027C0005F48414C5F4472697665722F5372632F84
:1027D00073746D3332663178785F68616C5F7469E9
:1027E0006D5F65782E6300002DE9F05F0446006898
:1027F000364E374FDFF8DC80DFF8DC90DFF8DCA006
:102800000D464FF0804BB04214D0B84212D058451C
:1028100010D040450ED048450CD050450AD0304924
:10282000884207D02F49884204D040F25F712EA021
:1028300002F07FFF286890B1102810D020280ED019
:1028400030280CD040280AD0502808D0602806D064
:10285000702804D04FF4EC6123A002F06AFF68688E
:10286000802805D020B140F261711FA002F061FF05
:1028700094F83C00012827D0012284F83C20022053
:1028800084F83D00216848688B6820F0700C286847
:1028900040EA0C0048602068B04209D0B84207D036
:1028A000584505D0404503D0484501D0504504D196
:1028B000696823F080031943816084F83D2000207B
:1028C00084F83C00BDE8F09F0220FBE7002C0140AB
:1028D000003401400004004000080040000C0040AB
:1028E00000100040001400402E2E2F4472697665BF
:1028F00072732F53544D3332463178785F48414CD0
:102900005F4472697665722F5372632F73746D33EF
:1029100032663178785F68616C5F74696D5F657885
:102920002E63000010B5040046D036492068884266
:1029300019D03549884216D0B0F1804F13D03349B1
:10294000884210D0324988420DD0324988420AD09C
:102950003149884207D03149884204D040F21311EE
:102960002FA002F0E6FEA06860B110280AD020284F
:1029700008D0402806D0602804D04FF48A7128A0DF
:1029800002F0D7FE206950B1B0F5807F07D0B0F5D6
:10299000007F04D040F2151121A002F0CAFEA06908
:1029A00030B1802804D04FF48B711DA002F0C1FE1D
:1029B00094F83D0010B107E0012010BD002084F81C
:1029C0003C00204600F048F8022084F83D00211D1C
:1029D000206801F003F8012084F8460084F83E00E6
:1029E00084F83F0084F8400084F8410084F84200F5
:1029F00084F8430084F8440084F8450084F83D00DE
:102A0000002010BD002C01400034014000040040B3
:102A100000080040000C004000100040001400407E
:102A20002E2E2F447269766572732F53544D3332B4
:102A3000463178785F48414C5F4472697665722F01
:102A40005372632F73746D3332663178785F6861C7
:102A50006C5F74696D2E630008B500680649884292
:102A600008D10648C16941F00201C161C06900F0A6
:102A70000200009008BD0000000400400010024069
:102A80002DE9F04707460068204C214D214EDFF824
:102A90008880DFF888904FF0804AA04214D0A84286
:102AA00012D0504510D0B0420ED040450CD0484511
:102AB0000AD01B49884207D01A49884204D04FF4F3
:102AC000CA7119A002F035FE97F83D00012802D026
:102AD0000120BDE8F087022087F83D003868A04259
:102AE00009D0A84207D0504505D0B04203D0404598
:102AF00001D0484504D1816801F00701062903D0BF
:102B0000016841F0010101600020E2E7002C014072
:102B1000003401400004004000080040000C004068
:102B200000100040001400402E2E2F44726976657C
:102B300072732F53544D3332463178785F48414C8D
:102B40005F4472697665722F5372632F73746D33AD
:102B500032663178785F68616C5F74696D2E6300EE
:102B60002DE9F05F054690F83C000C4601283FD067
:102B70004FF0010B85F83CB0022085F83D0020683D
:102B80004FF480594FF4005A484515D0504513D0A2
:102B900090B1102810D020280ED030280CD040281A
:102BA0000AD0502808D0602806D0702804D041F2FE
:102BB0001D41BAA002F0BDFD2868816821F07701AF
:102BC00021F47F4181602068C249C34AC34BC44E8F
:102BD000C44F4FF0804C4FF40048502872D00FDCA7
:102BE000202804D007DC0028FBD0102850D140E179
:102BF0000220BDE8F09F3028F9D04028F6D109E145
:102C000060287CD070285ED0484542D05045EDD138
:102C1000286888420ED090420CD060450AD0984275
:102C200008D0B04206D0B84204D041F248419BA03F
:102C300002F07FFDA06858B1484509D0504507D043
:102C4000B0F5405F04D041F24B4194A002F071FD19
:102C50006068404509D040B1022806D00A2804D057
:102C600041F24C418DA002F064FDE0680F2804D9C8
:102C700041F24D4189A002F05CFDD4E90121E368F5
:102C8000286800F04DFF2868816841F48041816028
:102C9000BAE028688842FBD09042F9D06045F7D06E
:102CA0009842F5D0B042F3D0B842F1D08E49884274
:102CB000EED08E498842EBD041F2294177A002F054
:102CC00038FDA1E041E0286888420ED090420CD047
:102CD00060450AD0984208D0B04206D0B84204D02D
:102CE00041F230416DA002F024FDA06868B1484572
:102CF0000BD0504509D0B0F5405F06D000E053E05E
:102D000041F2334165A002F014FD6068404509D0EE
:102D100040B1022806D00A2804D041F234415FA015
:102D200002F007FDE0680F2804D941F235415BA0AD
:102D300002F0FFFCD4E90121E368286800F0F0FE0E
:102D40002868816841F07701A1E7286888420ED0A1
:102D500090420CD060450AD0984208D0B04206D0CC
:102D6000B84204D041F25C414CA002F0E2FC606841
:102D7000404509D040B1022806D00A2804D041F2CB
:102D80005F4146A002F0D5FCE0680F2804D94FF45B
:102D9000A35142A002F0CDFCE2686168286801F00E
:102DA00081F8502128682DE0286888420ED0904292
:102DB0000CD060450AD0984208D0B04206D0B84244
:102DC00004D041F26C4135A002F0B3FC606840458C
:102DD00009D040B1022806D00A2804D041F26F4140
:102DE0002EA002F0A6FCE0680F2804D941F2704141
:102DF0002AA002F09EFCE2686168286801F063F88E
:102E00006021286800F096FE85F83DB0002085F826
:102E10003C00EEE6286888420ED090420CD0604517
:102E20000AD0984208D0B04206D0B84204D041F24D
:102E30007C411AA002F07DFC6068404509D040B199
:102E4000022806D00A2804D041F27F4113A002F0E4
:102E500070FCE0680F2804D94FF4A4510FA002F0D1
:102E600068FCE2686168286801F01CF84021286865
:102E7000C8E7286888420ED090420CD060450AD03E
:102E8000984208D0B04206D0B84204D041F28F41F7
:102E900002A002F04EFC21682868B3E72E2E2F44D2
:102EA0007269766572732F53544D33324631787898
:102EB0005F48414C5F4472697665722F5372632F8D
:102EC00073746D3332663178785F68616C5F7469F2
:102ED0006D2E6300002C01400034014000040040CE
:102EE00000080040000C00400010004000140040AA
:102EF00000B585B000210091019102910391006815
:102F00000B49884212D10B48816941F0040181616B
:102F10008069694600F0040004904FF480700090CE
:102F20000220019003900448FEF712F805B000BD9E
:102F3000002C014000100240000801402DE9F04142
:102F400016000D4604460CD0042E0AD0082E08D0D8
:102F50000C2E06D03C2E04D041F2120169A002F0E2
:102F6000E8FB2868602806D0702804D041F21301DD
:102F700064A002F0DEFBA86830B1022804D041F260
:102F8000140160A002F0D5FB286930B1042804D0F8
:102F900041F215015BA002F0CCFB94F83C00012843
:102FA00012D001206549664A664B674FDFF89CC125
:102FB00084F83C004FF0804E4EB1042E2CD0082EE9
:102FC00051D00C2E4ED173E00220BDE8F081206874
:102FD00088420ED090420CD070450AD0984208D05A
:102FE000B84206D0604504D041F21F0145A002F06E
:102FF000A0FB2946206800F0A5FD2068816941F00A
:10300000080181612068816921F0040181612068E3
:1030100081692A69114324E0206888420ED09042D9
:103020000CD070450AD0984208D0B84206D060450E
:1030300004D041F2300133A002F07BFB2946206826
:1030400000F0F2FD2068816941F40061816120682F
:10305000816921F480618161206881692A6941EA7E
:10306000022181614AE0206888420ED090420CD053
:1030700070450AD0984208D0B84206D0604504D0C6
:1030800041F241011FA002F054FB2946206800F0E4
:1030900041FE2068C16941F00801C1612068C16931
:1030A00021F00401C1612068C1692A69114324E04B
:1030B000206888420ED090420CD070450AD09842C9
:1030C00008D0B84206D0604504D041F252010DA0AC
:1030D00002F02FFB2946206800F092FE2068C169AB
:1030E00041F40061C1612068C16921F48061C1615E
:1030F0002068C1692A6941EA0221C161002084F87F
:103100003C0062E72E2E2F447269766572732F534E
:10311000544D3332463178785F48414C5F44726990
:103120007665722F5372632F73746D333266317804
:10313000785F68616C5F74696D2E6300002C0140DC
:10314000003401400004004000080040000C004032
:1031500010B5040046D036492068884219D0354958
:10316000884216D0B0F1804F13D03349884210D036
:10317000324988420DD0324988420AD031498842CA
:1031800007D03149884204D040F20E512FA002F0FE
:10319000D0FAA06860B110280AD0202808D04028B2
:1031A00006D0602804D040F20F5128A002F0C1FAE6
:1031B000206950B1B0F5807F07D0B0F5007F04D012
:1031C0004FF4A26121A002F0B4FAA06930B18028C6
:1031D00004D040F211511DA002F0ABFA94F83D006A
:1031E00010B107E0012010BD002084F83C0020460B
:1031F00000F048F8022084F83D00211D206800F00E
:10320000EDFB012084F8460084F83E0084F83F007E
:1032100084F8400084F8410084F8420084F84300B8
:1032200084F8440084F8450084F83D00002010BD77
:10323000002C014000340140000400400008004020
:10324000000C004000100040001400402E2E2F44BF
:103250007269766572732F53544D333246317878E4
:103260005F48414C5F4472697665722F5372632FD9
:1032700073746D3332663178785F68616C5F74693E
:103280006D2E630008B500680649884208D10648DB
:10329000816941F400618161806900F400600090FF
:1032A00008BD0000002C0140001002402DE9F05F35
:1032B00005460068DFF814810227DFF81491DFF873
:1032C00014A1DFF814B1454E0C46404506D1DCB3DD
:1032D000042C44D0082C49D00C2C30D0B04206D15C
:1032E00094B3042C3BD0082C40D00C2C27D0B0F148
:1032F000804F13D0484506D134B3042C2FD0082C6E
:1033000034D00C2C1BD0504506D1ECB1042C26D067
:10331000082C2BD00C2C12D0584506D1A4B1042C6B
:103320001DD0082C22D00C2C09D040F294512CA096
:1033300002F0FFF944B1042C11D0082C16D095F8F6
:103340004100012819D000E002E00120BDE8F09F13
:1033500095F83E000128F6D185F83E700FE095F80B
:103360003F000128EFD185F83F7008E095F8400054
:103370000128E8D185F8407001E085F8417001220C
:103380002146286800F070FB2868404501D0B04213
:1033900003D1426C42F400424264286840450AD09E
:1033A000B04208D0B0F1804F05D0484503D0504519
:1033B00001D0584504D1816801F00701062903D0E6
:1033C000016841F0010101600020BFE7002C0140CD
:1033D0000004004000080040000C004000340140A0
:1033E0002E2E2F447269766572732F53544D3332EB
:1033F000463178785F48414C5F4472697665722F38
:103400005372632F73746D3332663178785F6861FD
:103410006C5F74696D2E6300FEE70000F0B5002359
:103420000A24302537261F4611E000BFB4EB107F79
:1034300002D905EB107C01E006EB107C01F813C00B
:1034400001EB430C00015B1C8CF80170DBB2934272
:10345000ECD3F0BD3EB500240D48009401940294D5
:103460000A498460016004730475012505614FF405
:1034700000214460C161FDF7F7F8CDE900456946D8
:1034800003480294FCF7D8FF3EBD00000024014031
:103490009401002030B585B00020029003902048B0
:1034A000816941F010018161816901F0100104918D
:1034B000816941F020018161816901F0200104915D
:1034C000816941F004018161816901F00401049185
:1034D000816941F00801816180694FF6FF7503241D
:1034E00000F00800CDE90054049069460D48FDF74E
:1034F0002FFD48F2FE60CDE9000469460A48FDF759
:1035000027FDCDE9005469460848FDF721FD042058
:10351000CDE9000469460648FDF71AFD05B030BD47
:10352000001002400010014000080140000C014062
:103530000014014010B592B000240F941C2108A87B
:103540001094FCF72AFE20216846FCF726FE1C4852
:103550001A4901604821C0E9011441F28831C0E9EB
:10356000031444618461FFF7F3FD0F940FA914481D
:103570001094FFF739F96020089040F6C410CDE9A7
:1035800009040B940C940D94002208A90C480E9485
:10359000FFF7D4FC00944FF40050CDE904400294AE
:1035A000400007900194039469460548FFF778F8B6
:1035B0000348FFF79DFC12B010BD0000002C014035
:1035C000C401002010B586B0002412480094019474
:1035D0000294039404940E49059401604821C0E9C3
:1035E00001144FF47A71C0E903148461FFF79AF96A
:1035F0004FF48050009069460648FFF7B1FA20204A
:10360000CDE9040404A90348FFF7EEF806B010BDA5
:10361000000400400C02002010B500220F491048A1
:1036200000F03CFF08B1FCF705FF0E490C4801F023
:1036300019F908B1FCF7FEFE0B49094800F03AFD04
:1036400008B1FCF7F7FE064801F062F9002803D044
:10365000BDE81040FCF7EEBE10BD000010000020D9
:10366000980200205C01002060000020FEE7704707
:103670002DE9F84F044640F68F7B48F60F7A4FF05D
:1036800002094FF4806868E1B0F8441011F00F06A9
:1036900038D030F8267039047ED530F8261001EA8B
:1036A0000B0141F0800120F8261006EB860004EBA8
:1036B000C00595F8740105F5B47500286DD0E8785B
:1036C00002286BD02A78216831F8220048F68F73DF
:1036D000184048F2C003184321F8220029782068D6
:1036E00030F82120B0F8503052047DD509EBC101EB
:1036F0005A1808EB4201415A8905890D009174D08E
:103700002A89D2E0C9062DD4018801EA0A0141F4D0
:1037100000410180206804F12805B0F850302A7873
:1037200009EBC2015A1808EB4201405AC0F30900E4
:103730006064E16B0844E06300212046FDF7EDFE84
:1037400094F8240000289ED0A86900289BD194F802
:10375000240040F080012068A0F84C10002084F87C
:103760002400FAE0018804F5B4750A0521D5B0F803
:1037700050302A78062101EBC2015A1808EB4201A9
:10378000405A04F52C71C0F30903EB61EA88206804
:1037900001F0BAFE216802E0A2E062E072E008886F
:1037A00000EA0B0040F0800008802046FEF7CFFAC8
:1037B000D3E00904D5D5018801EA0B0141F080016D
:1037C00001802068B0F850202B78062101EBC3015E
:1037D0000A4408EB4201405A83059B0DEB6110D06F
:1037E000696971B1EA8801E053E051E0206801F0B5
:1037F0008BFEE96968690844686100212046FDF78D
:1038000095FE2068B0F850100844296900F20C4079
:1038100051B13E2910D84A08C90700D0521C4FF6B2
:10382000FF7101EA82210FE0018821F4F841018053
:10383000018841F4004107E04A09C90600D1521E3F
:103840004FF4004141EA82210180206801884BF653
:103850008F72114081F4405148F28002114301807F
:103860007BE02068B0F850102A78062303EBC202F0
:103870000A4408EB4201415A8905890D009118D08C
:10388000EA8812E03A4629462046FDF7ADFE009050
:103890000FE0062202EBC1015A1808EB4201415A1F
:1038A0008905890D009104D06A896969009B01F03E
:1038B0002BFEE96900980844E861696900980844AA
:1038C0006861A86918B129690098814204D92978EA
:1038D0002046FDF72BFE03E02946206801F09AFB05
:1038E00038063AD5226806EB860004EBC00132F8B0
:1038F000260000EA0A0040F4004022F8260091F871
:103900002B002831022801D1F80522D42268B2F810
:1039100050300D7809EBC500034408EB4300105A02
:103920008A69C0F3090082420CD9121A8A610BD04D
:103930004A6902444A61CA691044C861206801F0BA
:1039400069FB0AE000208861E9B22046FDF7E5FD49
:1039500003E03A462046FDF7BAFE2068B0F844106E
:1039600009043FF591AE0020BDE8F88F704770471D
:10397000FDF79ABC30B595B028216846FCF70DFCE0
:1039800014210AA8FCF709FC18210FA8FCF705FC74
:1039900001210804CDE900100024029402250491BD
:1039A000CDE907504FF4E01009906846FEF71CFC83
:1039B0000F20CDE90A056802CDE90C4002210AA8D2
:1039C0000E94FEF7C5FA12200F90A80311901494DC
:1039D0000FA8FEF7EFF915B030BD7047F0B50268DB
:1039E0001C4B1D4D1D4E1E4F1E4C4FF0804C9842DF
:1039F00009D0A04207D0604505D0A84203D0B0420C
:103A000001D0B84204D122F0700E4A6842EA0E0298
:103A1000984209D0A04207D0604505D0A84203D003
:103A2000B04201D0B84203D122F44075CA682A439B
:103A30004D6922F080022A4302608A68C2620A68E5
:103A40008262984201D0A04201D10969016301213B
:103A50004161F0BD002C014000040040000800401E
:103A6000000C00400034014070B504461948164669
:103A70000D46844213D01848844210D0B4F1804FD0
:103A80000DD0164884420AD01548844207D0154804
:103A9000844204D041F6CB4113A001F04AFE65B147
:103AA000042D0AD0082D08D00C2D06D03C2D04D0B2
:103AB00041F6CC410CA001F03CFE05F01F010120B5
:103AC000226A884082432262206A8E40304320620C
:103AD00070BD0000002C0140003401400004004093
:103AE00000080040000C00402E2E2F4472697665BD
:103AF00072732F53544D3332463178785F48414CBE
:103B00005F4472697665722F5372632F73746D33DD
:103B100032663178785F68616C5F74696D2E63001E
:103B200010B5846842EA032224F47F440A43224306
:103B3000826010BD826822F070020A4342F00701E1
:103B4000816070472DE9F0470446006A0D4620F079
:103B500001002062206A6768A169AE6821F07302E3
:103B6000296820F00200DFF880900643DFF87CA08F
:103B700041EA02084C4501D054450ED1E86830B105
:103B8000082804D041F6032119A001F0D2FDE8680D
:103B900026F00801084320F004064C4501D05445A6
:103BA00019D1A869B0F5007F05D020B141F61021E8
:103BB0000FA001F0BEFD6869B0F5807F05D020B18F
:103BC00041F611210AA001F0B4FD27F440716869A3
:103BD000AF69084307436760C4F81880686860638A
:103BE0002662BDE8F0870000002C0140003401404F
:103BF0002E2E2F447269766572732F53544D3332D3
:103C0000463178785F48414C5F4472697665722F1F
:103C10005372632F73746D3332663178785F6861E5
:103C20006C5F74696D2E63002DE9F0470446006AED
:103C30000D4620F010002062206A6768A1692A689A
:103C400021F4E64141EA0228A968DFF8889020F0D3
:103C50002000DFF884A040EA01164C4501D054450D
:103C60000FD1E86830B1082804D041F64E211BA0DE
:103C700001F05FFDE96826F0800040EA011020F0C5
:103C800040064C4501D054451BD1A869B0F5007FD2
:103C900005D020B141F65C2110A001F04AFD686911
:103CA000B0F5807F05D020B141F65D210BA001F079
:103CB00040FD696927F4406040EA8100A96940EA53
:103CC00081076760C4F818806868A0632662BDE851
:103CD000F0870000002C0140003401402E2E2F44BC
:103CE0007269766572732F53544D3332463178784A
:103CF0005F48414C5F4472697665722F5372632F3F
:103D000073746D3332663178785F68616C5F7469A3
:103D10006D2E63002DE9F0470446006A0D4620F43D
:103D200080702062206A6768E169DFF8949021F072
:103D30007302296820F4007041EA0208A968DFF8DC
:103D400084A040EA01264C4501D054450FD1E868D3
:103D500030B1082804D041F699211BA001F0E9FCFC
:103D6000E96826F4006040EA012020F480664C45B2
:103D700001D054451BD1A869B0F5007F05D020B112
:103D800041F6A62110A001F0D4FC6869B0F5807F4F
:103D900005D020B141F6A7210BA001F0CAFC69694A
:103DA00027F4405040EA0110A96940EA0117676012
:103DB000C4F81C806868E0632662BDE8F0870000F4
:103DC000002C0140003401402E2E2F44726976658C
:103DD00072732F53544D3332463178785F48414CDB
:103DE0005F4472697665722F5372632F73746D33FB
:103DF00032663178785F68616C5F74696D2E63003C
:103E00002DE9F0410446006A0D4620F480502062FE
:103E1000206A6668E1692A6821F4E64141EA0228DD
:103E2000A96820F4005040EA01370E48844202D0CD
:103E30000D4884420ED16869B0F5807F05D020B16D
:103E400041F6E52109A001F074FC696926F480407F
:103E500040EA81166660C4F81C80686820642762A6
:103E6000BDE8F081002C0140003401402E2E2F448B
:103E70007269766572732F53544D333246317878B8
:103E80005F48414C5F4472697665722F5372632FAD
:103E900073746D3332663178785F68616C5F746912
:103EA0006D2E630010B5036A046A24F001040462F5
:103EB000846924F0F00444EA021423F00A020A435D
:103EC0008461026210BD10B5036A23F0100303621F
:103ED0008369046A23F4704343EA023224F0A003A6
:103EE00043EA01118261016210BD2DE9F041D0F871
:103EF000C032D0F8B822CAB101EB810500EB8504CD
:103F00000026E7693FB103EBC5039B6BB7FBF3F5F5
:103F100003FB157323B1C2F814620020BDE8F081E1
:103F200000231A46E66100F080FCF6E70220F5E780
:103F300070B50546D0F8B84200F07BFBC4F80C021F
:103F4000D5F8B80248B1D5F8BC12D4F80402CA6852
:103F500004F503719047002070BD022070BD70B55C
:103F600004460026812100F0B7FA002501212046F1
:103F7000E56200F0B1FA82212046C4F86C5100F0ED
:103F8000ABFA2564D4F8B80248B1D4F8BC0204F501
:103F90002E7440688047206800F017FE2560304688
:103FA00070BD10B5D0E9AE4159B194F80002FF28B8
:103FB00007D08B6894F8012221469847FF2084F8A7
:103FC0000002002010BD00000A2101800048704757
:103FD000840000204321018000487047D400002065
:103FE0004321018000487047900000204321018058
:103FF00000487047180100202DE9F04104460026D2
:10400000007C4FF40077012590B3402302228121E8
:10401000204600F063FB4023E56202220121204696
:1040200000F05CFB0823032282212046C4F86C5177
:1040300000F054FB4FF40770256400F0C7FDC4F88E
:10404000B802F8B10546D4F8BC02006880470020E9
:10405000C5F81402C5F81802207CD5F8042298B1DE
:1040600040230121204600F045FB3046BDE8F081A9
:10407000FFE73B4602228121204600F02FFB3B4612
:10408000E562CAE70126F0E73B46EAE710B5D0F85B
:10409000B81269B1027C002AD1F8042205D040236D
:1040A000012100F027FB002010BD4FF40073F7E75B
:1040B000022010BD02460220002902D00020C2F8D2
:1040C000BC127047D0F8B802C0F804120020704744
:1040D000D0F8B802C0F81022C0F8081200207047CB
:1040E0002DE9FC410546D0F8B87200208DF800009B
:1040F000ADF80400064608780C4610F0600121D0A7
:1041000020293BD1E288AAB10006607807D5D5F80E
:10411000BC128B6839469847E288394626E087F812
:104120000002A07987F80102E2883946284600F0AB
:104130006AF828E0D5F8BC12607800228B68214626
:10414000984720E0607820B10A2809D00B2815D1C3
:1041500010E095F89C02032810D1022201A905E085
:1041600095F89C02032809D101226946284600F0EF
:1041700064F808E095F89C02032804D021462846FC
:1041800000F036F802263046BDE8FC8110B5D0F8C4
:10419000B812A1B1D1F814220AB1012010BD012238
:1041A000C1F81422D1F810220263B1F8102293B2A0
:1041B000D1F80822812100F038FB002010BD022038
:1041C00010BD10B5D0F8B42252689047002010BD41
:1041D000134610B50A46002100F08CFA002010BDED
:1041E000134610B50A46002100F01FFB002010BD49
:1041F00010B50446802100F0FDFA2046BDE81040CD
:10420000002100F0F7BA10B50323C0F85C21C0F814
:104210009432C0F8602113460A46002100F06AFA81
:10422000002010BD10B505210023C0F894121A46D5
:10423000194600F05FFA002010BD10B50223C261DC
:10424000C0F89432026213460A46002100F0EDFAEB
:10425000002010BD10B504210023C0F894121A46A6
:10426000194600F0E2FA002010BD000010B50A4621
:10427000024903A000F0E2F8004810BD5C050020F0
:1042800043444320436F6E66696700001220088034
:10429000004870473000002010B50A46024903A0CC
:1042A00000F0CCF8004810BD5C05002043444320DA
:1042B000496E7465726661636500000004200880C1
:1042C000004870472C00002010B50A46024903A0A0
:1042D00000F0B4F8004810BD5C05002053544D694F
:1042E00063726F656C656374726F6E6963730000EF
:1042F00010B50A46024903A000F0A0F8004810BD1E
:104300005C05002053544D33322056697274756138
:104310006C20436F6D506F727400000010B51A204E
:1043200008800A480168001D0468001D006808181C
:1043300009D008220649FFF771F805490422103117
:104340002046FFF76BF80248801E10BDE8F7FF1FFC
:1043500046000020F8B504460020ADF8000048886B
:104360000D46010A082948D2DFE801F04704091781
:1043700047473C45D4F8B012207C0A6819E0207CFD
:1043800002260028D4F8B40205D0C16A68468847DE
:10439000014646703EE0816AF8E7C0B206282CD29A
:1043A000DFE800F0030A1014181CD4F8B0024268C9
:1043B00005E0694690471CE0D4F8B0028268E2B19B
:1043C000207CF6E7D4F8B002C268F8E7D4F8B0026F
:1043D0000269F4E7D4F8B0024269F0E7D4F8B00219
:1043E0008269ECE7207C40B9D4F8B402416B68469E
:1043F000884701460EE0207C20B129462046FFF781
:10440000F7FEF8BDD4F8B402016B68468847014650
:1044100007204870BDF8000048B1EA8852B18242D6
:1044200000D90246ADF800202046FFF706FFE888D5
:104430000028E6D12046FFF70DFFF8BD70B5002338
:1044400000281ED00446002502E06D1CEDB2641C5D
:104450002678002EF9D1022404EB4504148012784A
:10446000CA545B1C0322CA5400245B1C06E0CA54D5
:104470005B1CDAB28C54521CD3B2401C0278002A66
:10448000F5D170BD01004FF0000004D0012901D02A
:10449000022901D0022070470120704710B580B179
:1044A000D0F8B43213B10023C0F8B43209B1C0F867
:1044B000B012012180F89C12027000F0BFF80020B9
:1044C00010BD022010BD10B5D0F8C002FDF75EF897
:1044D000BDE81040FFF7D6BF10B5D0F8C002FDF719
:1044E0002FF8BDE81040FFF7CDBF2DE9F04117468A
:1044F000044651B1D4F8B40242691AB194F89C024E
:10450000032851D00220BDE8F081D4F89432002570
:1045100004F11400022B03D0042B3AD0C3B33CE0C7
:10452000D0E903639E4207D9F11AC1608AB23946C5
:104530002046FFF755FE12E08068B0FBF3F103FB65
:10454000110199B9984211D3D4F8981288420DD22A
:10455000002211462046FFF743FEC4F8985200237C
:104560001A461946204600F0C5F816E0D4F8B40201
:10457000C16829B194F89C02032801D120468847DC
:104580008021204600F036F92046FFF74BFE04E07C
:10459000FFE78021204600F02DF994F8A0020128C1
:1045A00004D184F8A05201E0204690470020AAE7F9
:1045B00070B51546044649B1D4F8B40282691AB1FF
:1045C00094F89C02032830D0022070BDD4F89412D5
:1045D00004F5AA70032902D005291ED027E0D0E9EE
:1045E00003218A420BD9531AC3600846834200D381
:1045F00003469AB229462046FFF7EAFD17E0D4F8B1
:10460000B402016929B194F89C02032801D1204623
:1046100088472046FFF71EFE09E000200146C4F847
:104620009402204600F0E6F801E020469047002082
:1046300070BDD0F8C002FDF75AB9000010B50446AD
:104640001C481D49C0F8E842C4F8C00201600821B6
:1046500041600221816000218161C1610162FDF739
:1046600095FA08B1FBF7E6FE0022D4F8C002182341
:10467000114604F53074FCF731FF582300228021E5
:104680002068FCF72BFFC023002281212068FCF763
:1046900025FF4FF48873002201212068FCF71EFFDC
:1046A0004FF48073002282212068FCF717FF00205E
:1046B00010BD0000E0090020005C00400A0601F087
:1046C0007F01D0F8C00201EB810100EBC10002D5EF
:1046D00090F82A00704790F86A01704710B51C46A0
:1046E0001346D0F8C0022246FDF70AF9BDE8104093
:1046F000FFF7C8BE10B5D0F8C002FDF731F9BDE82C
:104700001040FFF7BFBE70B500220446402311469B
:10471000FFF7E4FF40260125C4F864613346002218
:1047200080212046C4F85851FFF7D8FF6662A56182
:1047300084F89C520020C4F894026060C4F8A4027B
:10474000D4F8B80228B1D4F8B40200214268204657
:104750009047002070BD90F89C12042903D190F876
:104760009D1280F89C120020704710B590F89C12A2
:10477000032904D1D0F8B412C96901B188470020D7
:1047800010BD01740020704710B5D0F8C002FDF7CD
:10479000CAFABDE81040FFF775BE70B5044600F5D3
:1047A0002A70054600F04AF80120C4F89402B4F8D3
:1047B000AE02C4F8980294F8A80210F01F010AD0C3
:1047C00001290DD0022910D000F08001204600F010
:1047D00011F8002070BD2946204600F09EF8F8E749
:1047E0002946204600F0CAF9F3E72946204600F0A2
:1047F0001DF9EEE710B5D0F8C002FDF7CAF8BDE824
:104800001040FFF73FBE10B5D0F8C002FDF7A6FA82
:10481000BDE81040FFF736BE90F89C1280F89D125C
:10482000042180F89C120020704710B5D0F8C00217
:10483000FDF7E8F8BDE81040FFF724BE0A780270E3
:104840004A7842708A78CB7802EB032242800A7958
:104850004B7902EB032282808A79C97902EB01212C
:10486000C18070470246002011B1C2F8B4127047EF
:104870000220704710B5D0F8B42202241AB1126891
:10488000904700B90024204610BD000070B50E46C8
:104890001E4D897804462970012931D894F89C026C
:1048A00002280BD003280FD031462046FFF7A0FC8A
:1048B00029782046BDE87040FFF783BCD9B10320BA
:1048C000616084F89C0209E071B16068884212D08E
:1048D000C1B22046FFF775FC297861602046FFF7DA
:1048E000C9FF02280CD006E0022084F89C02204672
:1048F0006160FFF766FC2046BDE87040FFF7AABC88
:1049000031462046BDE87040FFF772BC80000020B1
:1049100010B5FFF778FF002010BD2DE9F0410A78AF
:10492000002612F0600208D0202A01D0402A70D15F
:10493000D0F8B422926890476DE04B7800220125B0
:104940000A2B66D2DFE803F0405D65576508056510
:104950002C29FFF7FFFC5EE004468888D8B9C88898
:10496000C8B94888802816D200F07F0794F89C02C6
:10497000032810D084F89E7239462046FFF704FFC2
:104980002046FFF767FC1FB1022084F89C0242E03A
:1049900084F89C523FE020463BE0FFF777FF3AE087
:1049A000CB88012B35D190F89C32012B04D0022BFF
:1049B00002D0032B2DD104E08260012200F1080116
:1049C00016E00122011D13E090F89C22012A03D079
:1049D000022A01D0032A1CD1CA88022A19D1C56033
:1049E000D0F8A41209B10321C160022200F10C0128
:1049F000FFF723FC0FE0498801290CD1C0F8A4522D
:104A000011E090F89C32012B08D0022B06D0032B2A
:104A100004D0FFF7EDFB3046BDE8F081498801295D
:104A2000F9D1C0F8A422FFF715FCF4E72DE9F04115
:104A30000A46044610780027097910F060030AD06E
:104A4000202B01D0402B50D1D4F8B40211468368FA
:104A5000204698478FE0C0F34110012806D05078D7
:104A6000D0B301282AD003283FD107E0D4F8B402FC
:104A7000114683682046BDE8F041184794F89C022F
:104A8000022802D0032872D10AE071B380296ED0C7
:104A90002046FFF7AFFE80212046FFF7ABFE6AE01D
:104AA000508838B931B1802904D0D08810B9204657
:104AB000FFF7A0FE2046FFF7CDFB5CE094F89C02D8
:104AC0000228E2D0032852D1508898BB4806F1D082
:104AD0002046FFF7F8FCEDE7FFE794F89C0200267C
:104AE000022803D0032842D112E040E009B1802916
:104AF0003DD1080601F07F0000EB800004EB80014F
:104B000001D5143101E001F5AA7102220E602AE0FC
:104B1000080601F00F0000EB800004EB80000AD5CE
:104B2000806920B301F07F0000EB800004EB80057A
:104B300014350BE01FE0D0F85801C0B101F07F0040
:104B400000EB800004EB800505F5AA7541B18029D2
:104B500006D02046FFF7B2FD10B10120286000E02A
:104B60002E60022229462046FFF767FB03E011462C
:104B70002046FFF73DFB3846BDE8F08170B505469D
:104B800008780C4610F0600003D0202801D040289F
:104B900016D195F89C02012803D0022801D00328E1
:104BA0000ED1207901280BD8D5F8B40282682846A6
:104BB0009047E188014306D12846FFF74BFB02E00E
:104BC0002846FFF715FB002070BD7047004870476E
:104BD000C00700202DE9F0470C78002630F824307B
:104BE00048F68F121340CA78002A7DD0012A7CD063
:104BF000022A02D0032A7FD0012648F28002134302
:104C000020F824300D7830F8254048F68F731C408A
:104C10002C43144320F825400D7B48F2C00C48F685
:104C2000BF744CF280074BF68F79EDB391F800809A
:104C3000C24630F8285048F280181D4045EA080561
:104C400020F82A50B0F8505091F80080054405EB48
:104C50000815B1F8088028F00108A5F80084B0F81C
:104C6000505091F80080054405EB0815B1F80A8012
:104C700028F00108A5F808844D78002D0D7830F84B
:104C800025804FEA48487DD0B8F1000F07DA30F8A8
:104C9000258008EA030848EA070820F825800F78ED
:104CA00030F827506D0600E02CE006D530F827508C
:104CB0001D4045EA0C0520F82750CB780D78012BD4
:104CC00030F8253003EA040301D083F020031343B6
:104CD00020F825300B7830F8231001EA0901114340
:104CE00020F82310304602E003E008E004E0BDE8CD
:104CF000F08743F4007380E743F4C0637DE743F437
:104D000080637AE74D782DB3B0F850500F780544A2
:104D100005EB0715CF8827F00107A5F800740F7879
:104D200030F827506D0606D530F827501D4045EA6B
:104D30000C0520F82750CB78012B06D00B7830F8E3
:104D40002310214081F02001C9E70B7830F82310AF
:104D50002140C4E7B0F850400D78044404EB05143A
:104D6000CD8825F00105A4F80854B0F850400D781E
:104D7000044404EB05140D6904F20C4475B13E2D96
:104D800014D800E030E04FEA550CED0701D00CF1EB
:104D9000010C4FF6FF7505EA8C2511E0258825F4F6
:104DA000F8452580258845F4004509E04FEA551C63
:104DB000ED0601D1ACF1010C4FF4004545EA8C251C
:104DC00025800D7830F82540640405D530F825405D
:104DD0001C403C4320F825400B7830F8231001EAB2
:104DE000090181F440517AE7B8F1000F07DA30F891
:104DF000258008EA030848EA070820F825800F788C
:104E000030F827506D0606D530F827501D4045EA8A
:104E10000C0520F827500D7830F8253003EA0903F7
:104E200083F44053134320F825308EE70020704769
:104E30002DE9F04391F80C804F780A7848F6BF7C52
:104E40004BF68F7948F2800348F2C0054CF2800699
:104E500048F68F74B8F1000F28D0002F30F8227078
:104E60004FEA474748D0002F05DA30F82270274034
:104E7000374320F822700A7830F822707F0605D573
:104E800030F8227027402F4320F822700D7830F838
:104E900025202240324320F825200C7830F82420A9
:104EA00002EA0C021A4320F824201AE07FB130F8FD
:104EB0002260760605D530F8226026402E4320F881
:104EC00022600A7830F8221001EA0C010EE030F876
:104ED00022506D0405D530F822502540354320F886
:104EE00022500A7830F8221001EA0901194320F80B
:104EF00022100020BDE8F083002F05DA30F8227080
:104F00002740374320F822700A7830F8226076066E
:104F100005D530F8226026402E4320F822600E7816
:104F200030F8262022402A4320F826200C7830F83A
:104F3000242002EA09021A4320F82420C1E70020B5
:104F4000704700207047012120F8401F0021018098
:104F5000818001820846704730F8401F21F43F41AC
:104F60000180002070470020704730B50A7BB2BB3B
:104F70004A7848F68F7548F28004C2B10B7830F851
:104F80002320520607D530F823202A4048F2C005D6
:104F90002A4320F82320CA78012A20D00A7830F842
:104FA000221048F6BF73194081F0200114E00A78FE
:104FB00030F822305B0407D530F822302B404CF219
:104FC00080052B4320F822300A7830F822104BF667
:104FD0008F73194081F44051214320F822100020A2
:104FE00030BD10B54A780978002A48F2800330F8BD
:104FF000212005D048F6BF74224082F0100204E060
:105000004BF68F74224082F480521A4320F82120FC
:10501000002010BD2DE9F04F0D464A78097B04466B
:105020004FF0000948F68F7A48F2800B4FF6FF7771
:105030004FF40048012A09D000297DD0E8780228E1
:105040007BD001287AD00120BDE8F08FAE692869B5
:10505000864200D9064681B1E97802291CD0287819
:1050600034F820104906B4F85010214401EB001028
:1050700070D5A0F80C646A8928E1B3B2EA882046AA
:10508000696900F05FFAB4F850002978204400EB19
:105090000110A0F8046435E1296A814276D92978A3
:1050A00034F8210048F2801200EA0A00104324F884
:1050B0002100286A801B2862287834F820104906CD
:1050C000697876D511B1012921D027E0B4F85010C4
:1050D000214401EB001000F20C404EB13E2E0FD8DF
:1050E0007108F20700D0491C07EA8121018015E010
:1050F000018821F4F8410180018841F40041F5E77D
:105100007109F20600D1491E48EA8121EEE7B4F8A0
:105110005020111901EB0010A0F80C646A89B3B299
:105120002046696900F00EFA6869304468612969AF
:10513000286A884206D902E0EDE00DE178E1801BA3
:10514000286202E00646C5F82090687818B1012868
:1051500024D02BE0B7E0B4F850002978204400EBCD
:10516000011000F204404EB13E2E10D87108F20733
:1051700000D0491C07EA8121018017E0018821F451
:10518000F8410180018841F40041F5E786E07109AA
:10519000F20600D1491E48EA8121EDE7B4F850003B
:1051A0002978204400EB0110A0F804642A896FE0FC
:1051B000FFE711B1012921D027E0B4F850102144B4
:1051C00001EB001000F204404EB13E2E0FD87108E2
:1051D000F20700D0491C07EA8121018015E001880F
:1051E00021F4F8410180018841F40041F5E771099B
:1051F000F20600D1491E48EA8121EEE7B4F85010CA
:10520000214401EB0010A0F804642A89B3B22046BF
:10521000696900F097F96869304468612969286A0A
:10522000884202D9801B286202E00646C5F8209019
:10523000687810B1012822D029E0B4F8500029780C
:10524000204400EB011000F20C404EB13E2E0FD86E
:105250007108F20700D0491C07EA8121018016E09D
:10526000018821F4F8410180018841F40041F5E70B
:105270007109F20600D1491E48EA8121EEE7B4F82F
:1052800050100819297800EB0110A0F80C646A8905
:10529000B3B22046696900F055F933E02A7834F852
:1052A000220048F68F63184040EA0B0024F82200E1
:1052B000B4F850002A78204400EB02108BB2A0F81A
:1052C00004342A89E5E7A0F804642A89B3B22046A9
:1052D000696900F037F9687810B1012808D011E049
:1052E000297834F8210048F2C00200EA0A0006E0FA
:1052F000297834F821004CF2800200EA0A001043B9
:1053000024F82100297834F8210048F6BF721040B3
:1053100080F03000DFE0A9692869814202D9091ACA
:10532000A961B6E00846C5F81890B2E0088820F4F4
:10533000F8400880088840F400400BE03E2876D80A
:105340004208C00700D0521C07EA822002E000BFDA
:1053500048EA82200880B6E092B9B4F85000297873
:10536000204400EB0110296900F2044069B13E2994
:1053700013D84A08C90700D0521C07EA82210180CD
:10538000687888B1012832D03AE0018821F4F841E8
:105390000180018841F40041F1E74A09C90600D1C2
:1053A000521E48EA8221EAE7B4F8500029782044E6
:1053B00000EB0110296900F20C4049B13E290FD8D9
:1053C0004A08C90700D0521C07EA8221018017E071
:1053D000018821F4F8410180018841F40041F5E79A
:1053E0004A09C90600D1521E48EA8221EEE7B4F804
:1053F00050100819297800EB0110298AA0F80C1424
:10540000E869B0B3297834F82100420401D5420696
:1054100003D444F24002104255D134F8210048F23E
:10542000C00200EA0A00104324F821004BE03CE0EF
:10543000A9692869814202D9091AA96102E00846CE
:10544000C5F818908AB9B4F850102A78214401EBB5
:10545000021101F2044168B13E2813D84208C30783
:1054600000D0521C07EA82220A80697889B101299A
:1054700021D028E00A8822F4F8420A800A8842F4FF
:105480000042F1E74209C30600D1521E48EA8222D7
:10549000EAE7B4F850102A78214401EB021101F236
:1054A0000C4100287FF44AAF40E74209C0067FF470
:1054B0004FAF521E4CE7B4F8502011192A7801EB77
:1054C0000211A1F80C04297834F821004BF68F72F0
:1054D000104080F4405040EA0B0024F821000020E6
:1054E000B2E50021A0F844104FF43F41A0F840106D
:1054F000002070470148FCF79FBA0000E009002037
:10550000B0F844007047000010B500EB42005C08A2
:1055100000F5806009D000BF30F8042B01F8012BA2
:10552000120A01F8012B641EF6D1DA0701D00088B7
:10553000087010BD0020704711B98021A0F84C10F0
:105540000020704710B55B1C00EB42005B0800F5C3
:10555000806009D011F8012B11F8014B42EA0422B6
:1055600020F8042B5B1EF5D110BDFEE70FB4084BED
:1055700010B504A902AA039800F02CF8044602A969
:10558000002000F0D1F8204610BC5DF814FB0000AC
:10559000295700080907090E002804DB00F1E02064
:1055A00080F80014704700F00F0000F1E02080F850
:1055B000141D704702E008C8121F08C1002AFAD162
:1055C00070477047002001E001C1121F002AFBD183
:1055D000704700002DE9FF4F89B09B460446002527
:1055E00006E025280BD05A460B999047641C6D1C89
:1055F00020780028F5D10DB02846BDE8F08F0027AF
:10560000B8460122474900E0074314F8013F203B18
:1056100002FA03F00842F7D120782E2819D114F8A5
:10562000010F47F004072A280ED06FF02F022078D0
:10563000A0F1300109290CD808EB880102EB4101E7
:1056400000EB0108641CF2E70A98641C50F8048B14
:105650000A9020780028CED0642808D0692806D087
:1056600075281ED05A460B9990476D1C58E00A9930
:105670004FF00A0901C90A91002802DA40422D219F
:1056800002E0390504D52B218DF82010012103E01B
:10569000F90704D02021F7E78A4608AE0DE0002183
:1056A000FAE70A994FF00A0901C90A91F7E7494652
:1056B000FAF77EFD303106F8011D0028F7D1ADEB79
:1056C000060000F12009780701D44FF00108C84511
:1056D00002DDA8EB090000E000208046002706E07C
:1056E00008A85A46C05D0B9990476D1C7F1C574512
:1056F000F6DB04E030205A460B9990476D1CB8F158
:105700000001A8F10108F5DC05E016F8010B5A4686
:105710000B9990476D1CB9F10001A9F10109F4DC66
:10572000641C65E7092801000A68531C0B601070AF
:105730007047704708B5FBF7BFFDFEF71BF9FDF793
:10574000A9FE2F4C606940F0010060616069002291
:1057500000F00100009011460B20FBF72FFE0B20FC
:10576000FBF7FAFDFDF776FEFDF72CFFFDF754FF82
:10577000FDF7E0FE012223492348FBF7D7F8224832
:105780007830FDF77DF9204800213030FDF78EFD9F
:10579000A06940F00800A0611C496FF03B40086020
:1057A000E06940F00400E061194900200860091D2B
:1057B0004FF4FA60086016481038016840F2011290
:1057C0001143016012482038016841F00301016073
:1057D0000F482838016841F0010101600C4C0D4D63
:1057E0000D4E241F226807480CA1001DFFF7BEFEC6
:1057F00004480B21001DFAF7EBFD28883060F1E723
:10580000001002400000002094010020000C014024
:10581000280800405C070020342C0140252E32640B
:10582000000000000000000000000000010203046E
:1058300006070809545800080000002094010000E1
:105840000002000824590008940100203C0F0000C9
:10585000C455000841200B30207469636B73200D20
:105860000A138D421B08BD041AC9041AF104131D42
:10587000431B086D081A9904170403090412011444
:10588000020202164083044057260201020301036C
:105890001A1A031395031B088F041A8B041AB904F0
:1058A000192F1182105324F4130A0632022A401CC5
:1058B0001C090243571125C03209041B01020B13B6
:1058C0000524161001052401100901042402020513
:1058D0002406170107058203081C1009048D19B45A
:1058E000111D07050102432C070581070938442AC9
:1058F00040072A8107112B0907440A3B044413F986
:105900003F1B085F0413E14042081AA30C13EB3E4F
:105910001B083108C11AE1101AD5041AED041AC97E
:04592000040000007F
:0400000508000131BD
:00000001FF
