:020000040800F2
:100000009811002045010008BB370008653500083D
:10001000B9370008BD080008D152000800000000F0
:10002000000000000000000000000000413B00084C
:1000300067090008000000003F3B0008433B000840
:100040005F0100085F0100085F0100085F01000810
:100050005F0100085F0100085F0100085F01000800
:100060005F0100085F0100085F0100083109000816
:100070005F0100085F0100085F0100085F010008E0
:100080005F0100085F0100085F0100085F010008D0
:10009000695200085F0100085F0100085F01000865
:1000A0005F0100085F0100085F0100085F010008B0
:1000B0005F0100085F0100085F0100085F010008A0
:1000C0005F0100085F0100085F0100085F01000890
:1000D0005F0100085F0100085F0100085F01000880
:1000E0005F0100085F0100085F0100085F01000870
:1000F0005F0100085F0100085F0100085F01000860
:100100005F0100085F0100085F0100085F0100084F
:100110005F0100085F0100085F0100085F0100083F
:100120005F0100085F0100085F0100085F0100082F
:10013000DFF80CD000F0CCFA00480047DD5B000887
:10014000981100200648804706480047FEE7FEE772
:10015000FEE7FEE7FEE7FEE7FEE7FEE7FEE7FEE777
:10016000AD3B000831010008202A04DB203A21FAC7
:1001700002F00021704721FA02F3D040C2F12002C0
:10018000914008431946704740EA01039B0703D09A
:1001900009E008C9121F08C0042AFAD203E011F8C6
:1001A000013B00F8013B521EF9D27047D2B201E088
:1001B00000F8012B491EFBD270470022F6E710B56C
:1001C00013460A4604461946FFF7F0FF204610BDC5
:1001D0002DE9FE4F81EA030404F0004421F00041C0
:1001E00000944FF0000B23F0004350EA01045ED06E
:1001F00052EA03045BD0C3F30A54C1F30A552C44FA
:10020000A4F2F3340194A0FB0254C1F3130141F4AE
:100210008011C3F3130343F4801301FB024400FB7A
:10022000034E840A970A44EA815447EA8357A4FBA1
:10023000076802958D0A05FB07854FEA932C04FB9E
:100240000C542705029D4FEA065847EA1637B5EBCE
:1002500008056EEB070C870E920E47EA811742EAFB
:100260008312A7FB0201B6EB0B0164EB00042B0D1C
:1002700043EA0C335E1844EB1C50DA465146E7FB68
:100280000201C5F313044FEA0B3343EA14534FEA58
:100290000432019C43EA0603A4F10C040294009C7E
:1002A000CDE900B400F080F803B0BDE8F08F002085
:1002B0000146F9E770B521F0004303430CD0C1F3C8
:1002C0000A550024D5EB040564EB0403D617AD1AD8
:1002D000B34102DB0020014670BD201841EB025102
:1002E00070BD0EB540F2334102910021CDE90011FD
:1002F0000A460B4600F058F803B000BD30B50B4677
:10030000014600202022012409E021FA02F59D4245
:1003100005D303FA02F5491B04FA02F52844151E19
:10032000A2F10102F1DC30BD2DE9F05F05460020AD
:1003300092469B4688460646814640241BE0284656
:10034000414647462246FFF70FFF53465A46C01A1A
:10035000914110D311461846224600F0CBF92D1AD0
:1003600067EB01084F4622460120002100F0C2F948
:1003700017EB00094E41201EA4F10104DFDC4846C2
:1003800031462A464346BDE8F09F10B5141E73F16E
:10039000000408DA401C41F1000192185B411A4345
:1003A00001D120F0010010BD2DE9F04D92469B4691
:1003B00011B1B1FA81F202E0B0FA80F22032904637
:1003C00000F098F904460F4640EA0A0041EA0B01A2
:1003D00053465A46084313D0114653EA010019D038
:1003E000C8F140025046FFF7BFFE05460E46504694
:1003F0005946424600F07EF9084305D0012004E04A
:1004000020463946BDE8F08D0020054346EAE076F7
:100410002C4337430A986305E40AA0EB0800002246
:10042000FD0A44EA47540A3002D500200146E9E7B4
:10043000010510196941DDE9084500196941BDE868
:10044000F04DA2E72DE9FE4F804681EA0300C00F80
:100450000C46009021F0004123F00045B8EB02006B
:10046000A94105D24046214690461C460B4602460D
:1004700023F00040104347D0270DC7F30A00C3F311
:100480000A510290401A019040286BDAC3F313001E
:1004900040F4801B0098924620B10023D2EB030A5F
:1004A00063EB0B0B01985946C0F14002504600F037
:1004B00021F906460D4650465946019A00F029F9A1
:1004C00010EB08006141002487EA115284EAE773C7
:1004D0001A4340D0009A62B3019A012A4FEA0752A8
:1004E00015DC001B61EB02014FF0004202EA0752EB
:1004F000CDE90042001C41F5801132462B46FFF742
:1005000053FF03B0BDE8F08F40462146F9E7001BDA
:1005100061EB0201001C41F5801300185B412018BB
:10052000A2F5001747EB030140EAD570B6196D41FB
:1005300011E06D084FEA360645EAC0754FEA0752EA
:10054000001B61EB0201001C41F5801149084FEAD4
:1005500030000019514132462B4603B0BDE8F04F40
:10056000FFF713BF0098012240000023D0EB0202E6
:1005700063EBE073009821464FEAE074B8EB0000AB
:1005800061EB0401E9E783F000435BE781F00041A0
:1005900058E72DE9F04D81EA030404F0004B21F007
:1005A000004514464FF0000A23F0004150EA0502CE
:1005B00020D054EA01021DD0C5F30A570246C5F304
:1005C0001303C1F31300C1F30A5640F4801543F43A
:1005D0008013A7EB0608101BD64608F2FD3873EB14
:1005E000050002D308F1010801E092185B41B8F15F
:1005F000000F03DA00200146BDE8F08D00204FF423
:100600008011064684460EE0171B73EB050705D3E1
:10061000121B63EB050306434CEA010C49084FEA41
:10062000300092185B4150EA0107EDD152EA030015
:1006300012D082EA040083EA0501084305D0101BAA
:10064000AB4106D20122002306E000224FF0004316
:1006500002E06FF0010253101AEB06004CEB085158
:1006600010EB0A0041EB0B01BDE8F04DFFF78DBE2A
:10067000C1F30A52C1F3130140F2FF3341F4801178
:100680009A4202DA00200146704740F233439A4210
:10069000A2F2334202DC5242FFF766BD00F02AB8F4
:1006A00030B5041E71F1000404DB4FF000444042F9
:1006B00064EB0101141E73F1000405DB1C464FF0CE
:1006C0000043524263EB0403994208BF904230BD9D
:1006D000064C074D06E0E06840F0010394E807008F
:1006E00098471034AC42F6D3FFF726FDB85C0008FB
:1006F000D85C0008202A04DB203A00FA02F100202E
:1007000070479140C2F1200320FA03F3194390404F
:100710007047202A06DBCB17203A41FA02F043EA61
:10072000E07306E041FA02F3D040C2F120029140AA
:1007300008431946704770B58C1810F8015B15F026
:10074000070301D110F8013B2A1106D110F8012B43
:1007500003E010F8016B01F8016B5B1EF9D12B0768
:1007600005D40023521E0DD401F8013BFAE710F81E
:10077000013BCB1A921C03E013F8015B01F8015B0B
:10078000521EF9D5A142D8D3002070BD70B50446E1
:1007900000688168C943C9071CD1816821F0010143
:1007A000816001F02FF805460FE000BF01F02AF844
:1007B000401B022809D9A06A40F01000A062E06A3C
:1007C00040F00100E062012070BD20688068C043F5
:1007D000C007EBD0002070BD10B50146406A826AA8
:1007E00012F0500F05D0006A026BBDE810400846B9
:1007F0001047816A41F40071816201688968C1F320
:10080000424107290CD1C16851B9816A21F4807134
:100810008162816AC90403D4816A41F00101816265
:1008200000F0B8F910BD10B5406A816A41F040018E
:100830008162C16A41F00401C16200F0ADF910BDEE
:1008400010B5406A00F0A7F910BD0000F8B5002609
:100850000446009600688168C943C90728D08168AA
:1008600041F001018160134813490068B0FBF1F0C9
:1008700000E0401E00900028FBD100F0C3FF0546B9
:1008800011E000BF00F0BEFF401B02280BD9A06A98
:1008900040F01000A062E06A40F00100E06284F8DD
:1008A00024600120F8BD20688068C043C007E9D1FA
:1008B0000020F8BD8000002040420F00FEE700202D
:1008C000704700207047000010B500220549064817
:1008D00003F0E4FC03490448323903F0D9FC00205A
:1008E00010BD0000660D00209002002010B50146EA
:1008F000034803F0CDFC024803F0AEFC002010BD1D
:1009000090020020094A10B5D2F81822D2F8142219
:100910000AB1012010BD0A460146044803F0BEFC9E
:10092000BDE81040014803F0F9BC0000900200202F
:10093000014800F045BB00004C02002030B590F8A3
:1009400040500124AC40C56B6C6004686360436830
:10095000102B036803D099600068C26030BD9A60B4
:100960000068C16030BD7047704700002DE9F84352
:100970000026054600960068734F0C46B046B84204
:100980000AD07249884207D07149884204D040F2A7
:10099000AA6170A005F020F9206830B3012824D0A6
:1009A000022822D0032820D004281ED005281CD0DD
:1009B00006281AD0072818D0082816D0092814D0DD
:1009C0000A2812D00B2810D00C280ED00D280CD0DD
:1009D0000E280AD00F2808D0102806D0112804D0DD
:1009E00040F2AB615BA005F0F7F86068012822D007
:1009F000022820D003281ED004281CD005281AD095
:100A0000062818D0072816D0082814D0092812D094
:100A10000A2810D00B280ED00C280CD00D280AD094
:100A20000E2808D00F2806D0102804D040F2AC6160
:100A300048A005F0D1F8A06890B1012810D0022894
:100A40000ED003280CD004280AD0052808D0062888
:100A500006D0072804D040F2AD613EA005F0BCF8F6
:100A600095F82400012812D0012085F82400606840
:100A70001F2107280ED22B685A6B401E00EB800006
:100A800081408A43216881400A435A631AE0022068
:100A9000BDE8F8832A680D280AD2136BC01F00EB4B
:100AA000800081408B43216881400B43136309E040
:100AB000D36A0D3800EB800081408B432168814070
:100AC0000B43D362206807212A680A280AD3D36817
:100AD0000A3800EB400081408B43A16881400B4302
:100AE000D36008E0136900EB400081408B43A168AC
:100AF00081400B4313612068102801D011281FD1B9
:100B00002868B84217D18168090219D4816841F474
:100B1000000181602068102812D11C481C4900681F
:100B2000B0FBF1F000EB8000400000E0401E0090C0
:100B30000028FBD104E0A86A40F02000A86201264A
:100B400085F824803046A3E70024014000280140B6
:100B5000003C01402E2E2F447269766572732F532C
:100B6000544D3332463178785F48414C5F44726966
:100B70007665722F5372632F73746D3332663178DA
:100B8000785F68616C5F6164632E630080000020A1
:100B900040420F0070477047704700002DE9F04752
:100BA00004004FF000057CD075492068754E8842DE
:100BB00009D07549884206D0B04204D04FF4C171C3
:100BC00072A005F009F8606838B1B0F5006F04D084
:100BD00040F283116DA004F0FFFFA0684FF480790C
:100BE00030B1484504D04FF4C27168A004F0F4FF5E
:100BF000E06830B1012804D040F2851163A004F010
:100C0000EBFFE0694FF400284FF4402AB8B1B0F58B
:100C1000003F14D0B0F5C02F11D040450FD0B0F533
:100C2000202F0CD050450AD0B0F5802F07D0B0F55A
:100C3000602F04D04FF4C37154A004F0CDFFA0681E
:100C400000281CD02069401E0F2804D94FF4C5711C
:100C50004EA004F0C1FF606988B1012806D040F2BF
:100C60008B114AA004F0B8FF606940B1A069401E32
:100C7000072804D94FF4C77144A004F0ADFFA06A5F
:100C8000002728B9E76284F82470204600F0A0F815
:100C90002046FFF77BFDA16AC90600D430B1A06AE7
:100CA00000E06BE040F01000A06267E0A16A21F470
:100CB000885141F00201A1622368E169B34202D187
:100CC000514500D14146E668CC4641EA460261689A
:100CD0000A43A168614509D0012907D05FF00001EE
:100CE000D4F81480B8F1010F02D00AE04946F7E7C2
:100CF000C6B1A66A46F02006A662E66A46F001067C
:100D0000E6625E6826F469460E435E602368996871
:100D10002C4E314011439960A16861450BD00129E7
:100D200009D00CE0DFF8A080A66908EB46360E4338
:100D300046F40061E5E7218A0D05A5F580152168D7
:100D4000CB6A23F470032B43CB62216889681F4B65
:100D50001940914208D1E762A16A21F0020141F0F5
:100D60000101A162BDE8F087A06A20F0020040F016
:100D70001000A062E06A40F00100E0620120F1E7AB
:100D800000240140003C0140002801402E2E2F4449
:100D90007269766572732F53544D333246317878C9
:100DA0005F48414C5F4472697665722F5372632FBE
:100DB00073746D3332663178785F68616C5F61643B
:100DC000632E6300FDF7E1FF00E0FFFFFE0E1FFF53
:100DD00070B586B0002605460096019602960396E9
:100DE00000681A4988422FD11949886940F4007077
:100DF0008861886900F400700490886940F00400FC
:100E000088618869694600F0040004900120009020
:100E1000032001900F4800F047FB104C0E48C4E936
:100E200000068020C4E9026040002061800060610B
:100E30002020A0610002E061204600F0E5F908B141
:100E4000FFF792FD2C62656206B070BD0024014080
:100E50000010024000080140080002404C0200203F
:100E60002DE9F04704460068414D90468946A84266
:100E700007D04049884204D040F2FC413EA004F033
:100E8000ABFE3B4E20684A4F361DA84201D0B84207
:100E900007D1306810F4702F03D001252846BDE833
:100EA000F08794F8240001280CD0012084F8240055
:100EB0002046FFF7CBFC05004FF0000004D084F87B
:100EC0002400EBE70220EAE7A16A40F601629143C1
:100ED00041F48071A1622168B94218D1326812F4DC
:100EE000702F14D0A16A41F48011A16231684905C4
:100EF00005D5A16A21F4005141F48051A162A16A93
:100F0000C9040AD5E16A21F00601E16206E0A26A9D
:100F100022F48012A2624968E9E7E06284F82400C2
:100F2000216A24488862216A2348C862216A2348CA
:100F3000086321686FF0020008602068816841F44E
:100F400080718160216843464A464C31206A00F036
:100F500033FA20688168C1F342410729816803D0D0
:100F600041F48011816099E741F4A001FAE70000A3
:100F700000240140003C01402E2E2F44726976650A
:100F800072732F53544D3332463178785F48414C59
:100F90005F4472697665722F5372632F73746D3379
:100FA00032663178785F68616C5F6164632E6300DC
:100FB00000280140D9070008410800082708000858
:100FC0002DE9F05FC16B0A6801680B68046C4FF093
:100FD000040808FA04F8844D844E854FDFF814C2E3
:100FE000DFF81492DFF814A2DFF814B2DFF814E28D
:100FF00018EA020F65D05FEA437862D50A68920664
:1010000003D40A6822F004020A60DFF8F0814FF48A
:101010008062016808F1140813011402414524D9C3
:10102000A9420DD0B1420FD0B9421AD0614515D0B6
:10103000494515D0514501D1120312E0594501D15E
:1010400004220EE0714501D140220AE06D4D1435B5
:10105000A94206D06B4A2832914201D11A4600E0DB
:1010600022466749091F0A6029E0A94213D0B1420C
:1010700015D0B94220D061451BD049451BD0514500
:1010800002D14FF4800217E0414502D14FF0806257
:1010900012E0594501D104220EE0714501D14022F0
:1010A0000AE0584D1435A94206D0564A28329142DA
:1010B00001D11A4600E022464B4908394A60C16A0C
:1010C00071E04FF0020808FA04F818EA020F70D035
:1010D0005FEA83786DD50A68920606D40A6822F022
:1010E0000A020A60012180F82110DFF810814FF414
:1010F0000072016808F1140813011402414524D953
:10110000A9420DD0B1420FD0B9421AD0614515D0D5
:10111000494515D0514501D1120312E0594501D17D
:1011200002220EE0714501D120220AE0354D14352E
:10113000A94206D0334A2832914201D11A4600E032
:1011400022462F49091F0A6029E0A94213D0B14263
:1011500015D0B94220D061451BD049451BD051451F
:1011600002D14FF4001217E0414502D14FF0007256
:1011700012E0594501D102220EE0714501D1202231
:101180000AE0204D1435A94206D01E4A2832914269
:1011900001D11A4600E02246134908394A6000216D
:1011A00080F82010816A00291CD0BDE8F05F084754
:1011B000FFE70825A540154214D01A0712D50A6882
:1011C00022F00E020A6090F84020C36B012101FA60
:1011D00002F25A60816380F82110002180F820100B
:1011E000016BE0E7BDE8F09F080002401C000240F0
:1011F0003000024044000240580002406C000240AF
:10120000080402401C04024070B504007ED05A4914
:1012100020685A4D88422DD057491431884229D030
:1012200055492831884225D053493C31884221D044
:101230005149503188421DD04F496431884219D0FC
:101240004D497831884215D0A84213D04B4914310A
:1012500088420FD04949283188420BD047493C3158
:10126000884207D045495031884203D0AA2144A082
:1012700004F0B2FC606840B1102806D0B0F5804F91
:1012800003D0AB213EA004F0A7FCA068402804D006
:1012900018B1AC213AA004F09FFCE068802804D08B
:1012A00018B1AD2136A004F097FC206948B1B0F523
:1012B000807F06D0B0F5007F03D0AE2130A004F0CF
:1012C0008BFC606948B1B0F5806F06D0B0F5006F57
:1012D00003D0AF212AA004F07FFCA06928B1202808
:1012E00003D0B02126A004F077FCE06960B1B0F52E
:1012F000805F09D0B0F5005F06D0B0F5405F03D045
:10130000B1211FA004F068FC142000E00CE021686B
:10131000A9420BD2184A52420A44B2FBF0F08000B4
:101320002064154808380AE0012070BD134A524273
:101330000A44B2FBF0F08000206410480838E063F3
:10134000022084F821000A6843F6F0708243F4E931
:1013500001031843D4E902352B431843236918438A
:1013600063691843A3691843104308600020606351
:1013700001216177207770BD080002400804024017
:101380002E2E2F447269766572732F53544D33326B
:10139000463178785F48414C5F4472697665722FB8
:1013A0005372632F73746D3332663178785F68617E
:1013B0006C5F646D612E63002DE9F0418846044640
:1013C0000025581E4FF6FF711E461746884204D36B
:1013D00040F27F111DA004F0FFFB94F820000128CB
:1013E0000DD0012084F8200094F82110002001295C
:1013F00007D084F8200002252846BDE8F0810220AD
:10140000FBE7022184F82110A0632068016821F025
:101410000101016033463A4641462046FFF78EFA05
:10142000E06A00282068016802D041F00E0106E061
:1014300021F0040101602068016841F00A010160A7
:101440002068016841F001010160D5E72E2E2F448C
:101450007269766572732F53544D33324631787802
:101460005F48414C5F4472697665722F5372632FF7
:1014700073746D3332663178785F68616C5F646D68
:10148000612E630070B5044600F0BCF90546601C8F
:1014900002D004480078044400F0B4F9401BA04294
:1014A000FAD370BD740000202DE9F84FDFF8D0B2F8
:1014B0000D4604464FF00009584515D0B148844206
:1014C00012D0B14884420FD0B04884420CD0B0480A
:1014D000844209D0AF48844206D0AF48844203D04A
:1014E000CD21AEA004F078FB28680104090C01D0DE
:1014F000000C03D0CE21A9A004F06EFB6868F8B1FF
:1015000001281DD011281BD0022819D0122817D06D
:10151000B149884214D0B149884211D0B0498842BB
:101520000ED0B04988420BD0AF49884208D0AF49AD
:10153000884205D0032803D0CF2198A004F04CFBAB
:1015400000274FF0010A00BF2E680AFA07F806EAE2
:101550000806464575D15C4515D08A48844212D0AC
:10156000894884420FD0894884420CD088488442FC
:1015700009D08848844206D08748844203D0DD21C0
:1015800086A004F029FB944869680A1A814259D060
:101590000EDC032976D006DC002953D0012919D0AE
:1015A00002296AD131E0112921D0122965D13AE00E
:1015B000B2F5881F46D006DCB2F5803F42D0B2F5C6
:1015C000801F5AD13EE0B2F5001F3BD0B2F5041F98
:1015D00053D137E0E868022807D0012805D0032856
:1015E00003D0E5216DA004F0F7FAE8683FE0E86871
:1015F000022807D0012805D0032803D0EC2167A0DA
:1016000004F0EAFAE868001D31E0E868022807D033
:10161000012805D0032803D0F32160A004F0DCFAF0
:10162000E868083023E0E868022807D0012805D0E0
:10163000032803D0FA2159A004F0CEFAE8680C3050
:1016400015E091E0A86888B1012812D0022808D0DE
:1016500040F2071151A004F0BFFAA86830B1012888
:1016600007D04FF00809C4F8148006E00420814632
:1016700003E04FF00809C4F81080FF2E05D8224679
:1016800005E0FFE74FF00000F1E704F104024FEA44
:10169000870001D9A0F1200013684FF00F0101FA73
:1016A00000FC23EA0C0309FA00FC43EA0C03136074
:1016B0006868C0005ED54E48826942F001028261CE
:1016C000806927F0030200F00100009049481318D8
:1016D0009868BA07120F914088435C4501D10021F8
:1016E00019E028498C4201D1012114E026498C429D
:1016F00001D102210FE025498C4201D103210AE0EA
:1017000023498C4201D1042105E022498C4201D1B8
:10171000052100E006219140014399606868C003FB
:1017200004D5354908683043086003E03248016851
:10173000B1430160686880033048016801D53143D6
:1017400000E0B14301606868C0022D48016801D51E
:10175000314300E0B14301606868800205D5284844
:10176000001D01683143016004E02549091D086836
:10177000B04308607F1C102FFFF4E6AEBDE8F88F81
:1017800000080140000C014000100140001401401D
:1017900000180140001C0140002001402E2E2F4463
:1017A0007269766572732F53544D333246317878AF
:1017B0005F48414C5F4472697665722F5372632FA4
:1017C00073746D3332663178785F68616C5F67700F
:1017D000696F2E630000000000001110000021104E
:1017E0000000311000001210000022100000321022
:1017F00000100240000001400004014004040140C8
:10180000080401400148806870470000740000200F
:10181000024881680278114481607047740000209A
:10182000074810B5016841F010010160032000F085
:10183000C7F8002000F006F800F024F8002010BDE2
:101840000020024070B50D4D04464FF47A7128789F
:10185000B1FBF0F00A490968B1FBF0F000F0E7FFD6
:1018600048B9102C07D200222146501E00F058F82B
:1018700000206C6070BD012070BD0000740000206D
:10188000800000200C4808B5816941F001018161A8
:10189000816901F001010091C16941F08051C1618C
:1018A000C06900F0805000900448416821F0E06178
:1018B00041F00071416008BD00100240000001408D
:1018C00010B5040003D5CE2106A004F085F904F07C
:1018D0001F01012088406109890001F1E021C1F860
:1018E000000110BD2E2E2F447269766572732F533E
:1018F000544D3332463178785F48414C5F447269C9
:101900007665722F5372632F73746D33326631783C
:10191000785F68616C5F636F727465782E63000036
:1019200070B515460C460646102A03D3BA2114A0FA
:1019300004F052F9102C03D3BB2111A004F04CF990
:101940001E480068C0F30223C3F107022046042AA0
:1019500000D90422191D072901D2002300E0DB1E53
:10196000012404FA02F1491E014099409C40641E82
:101970002C4021433046BDE8704001F01FBF0000FD
:101980002E2E2F447269766572732F53544D333265
:10199000463178785F48414C5F4472697665722FB2
:1019A0005372632F73746D3332663178785F686178
:1019B0006C5F636F727465782E6300000CED00E05D
:1019C00010B5044607280BD0062C09D0052C07D0EB
:1019D000042C05D0032C03D0A22108A004F0FCF8AD
:1019E000154904F0070208684FF6FF03184040EA63
:1019F0000220124A1043086010BD00002E2E2F4412
:101A00007269766572732F53544D3332463178784C
:101A10005F48414C5F4472697665722F5372632F41
:101A200073746D3332663178785F68616C5F636FB1
:101A3000727465782E6300000CED00E00000FA057A
:101A400010B50C0605D501F07F0100EB41102830E0
:101A500003E000EB411000F50A7099B232B10122A7
:101A60008272C180190C0181002010BD0022827297
:101A70008180F9E7704700EB4112D0F85C04D26B2B
:101A800002F0F2BD00EB4112D0F85C04D2F83C2227
:101A900002F03FBE10B504460A460B0601F07F0077
:101AA00004EB401101D5283101E001F50A710870FD
:101AB000D009487094F82804012809D0012084F83E
:101AC0002804206803F0ECF9002084F8280410BDF5
:101AD000022010BD70B50A460446090602F07F00D8
:101AE00003D504EB4011283103E004EB421101F56A
:101AF0000A7100258D700870D009487094F8280488
:101B0000012809D0012084F82804206803F076FA1F
:101B100084F82854002070BD022070BD01F00F0130
:101B200000EB4110B0F8440280B2704770B5044633
:101B30000D460E0601F07F0004EB401101D528315F
:101B400001E001F50A710870E80948700A61CB707C
:101B500094F82804012809D0012084F8280420687A
:101B600003F06EF8002084F8280470BD022070BDD8
:101B700070B50C4601F07F0500EB4511C1E98F23DC
:101B80000022C1F8442281F8292281F8285201F567
:101B90000A716206006803F08BFA002070BD70B510
:101BA0000D460446090605F07F0003D504EB4011FD
:101BB000283103E004EB451101F50A7101228A7016
:101BC0000870E809487094F82804012807D084F8C0
:101BD0002824206803F047FA680602D006E00220B5
:101BE00070BD04F22C41206803F006FA002084F84E
:101BF000280470BD70B50C4601F07F0500EB45115F
:101C0000C1E90F2300224A64012281F8292001F84A
:101C1000285F6206006803F04BFA002070BD10B523
:101C20000446006803F026FB000402D5204601F0BC
:101C3000D5FD206803F01EFB40050CD5206830F868
:101C4000441F21F480610180204600F013F9002137
:101C5000204600F02AF9206803F00CFB400405D56B
:101C6000206830F8441F21F480410180206803F08F
:101C700001FB800405D5206830F8441F21F4005191
:101C80000180206803F0F6FAC00414D5206830F80B
:101C9000401F21F004010180206830F8401F21F02E
:101CA00008010180204600F0F8F8206830F8441F51
:101CB00021F480510180206803F0DCFA00051AD578
:101CC000206830F8401F41F008010180206830F89A
:101CD000441F21F400610180206830F8401F41F06A
:101CE00004010180206803F0C5FAC043C00402D596
:101CF000204600F00FF9206803F0BCFA800508D5F3
:101D0000206830F8441F21F400710180204600F063
:101D1000C8F8206803F0AEFAC00505D5206830F891
:101D2000441F21F48071018010BD00002DE9F041B5
:101D300086B004004FF000050CD03049206888427E
:101D400003D09F212EA003F047FF94F8290400261A
:101D500020B108E0012006B0BDE8F08184F82864D5
:101D6000204600F069F8032084F82904206803F075
:101D70003CF904F11001142288466846FEF704FA83
:101D800094E80F0003F08AF80021206803F085FA38
:101D90005FF0010704EB451080F8297000F8285F18
:101DA0008581C670066146616D1C86610F2DF1D379
:101DB0005FF0000004EB401181F8296281F82802ED
:101DC000888681F82B62C1F83862C1F83C62401CF9
:101DD000C1F840620F28EDD3142241466846FEF751
:101DE000D3F994E80F0003F0F1F884F8246084F844
:101DF0002974206803F0E8F80020ACE7005C00409C
:101E00002E2E2F447269766572732F53544D3332E0
:101E1000463178785F48414C5F4472697665722F2D
:101E20005372632F73746D3332663178785F6861F3
:101E30006C5F7063642E630008B500680B498842CC
:101E400012D10B48C16941F40001C161C06900228F
:101E500000F40000009011461420FFF761FDBDE87A
:101E600008401420FFF72CBD08BD0000005C0040B6
:101E70000010024070B5044680680125022801D098
:101E8000FEF772FD2946D4F85C0402F00FFDD4F889
:101E90005C04BDE8704002F0D8BCD0F85C0402F0ED
:101EA000F3BCD0F85C0402F0F5BC10B5044690F821
:101EB000280401280BD0012084F8280484F8241079
:101EC000206803F0ECF9002084F8280410BD0220FB
:101ED00010BDD0F85C2400F22C41104602F0F2BC98
:101EE00010B5044690F82804012810D0012084F889
:101EF000280401462046FFF7BDFD206803F062F884
:101F0000206803F0AAF9002084F8280410BD0220FC
:101F100010BD000010B50446D0F85C0402F011FDBD
:101F2000A069002804D00348016841F0060101605F
:101F300010BD000010ED00E02DE9F84304460068F4
:101F4000524DC1070ED1810773D441077ED40107DA
:101F5000FCD4C0067BD47C214DA003F03DFE20784C
:101F6000C00763D0606860B1B0F5807F09D0B0F57C
:101F7000007F06D0B0F5407F03D0822144A003F05B
:101F80002BFEE8690026C00008D4E86940F08050C4
:101F9000E861E869012600F0805000904B48016834
:101FA000C90512D40168804641F480710160FFF7D1
:101FB00029FC074605E000BFFFF724FCC01B64288E
:101FC00023D8D8F80000C005F6D5286A10F4407070
:101FD00021D0A18801F4407181421CD0286A3C497B
:101FE000012220F440700A6000220A602862C007C3
:101FF00011D0FFF707FC074641F2883808E000BF20
:10200000FFF700FCC11B414502D90320BDE8F8835E
:10201000286A8007F4D5286A616820F44070084374
:1020200028621EB1E86920F08050E86120788007BE
:1020300017D5A06878B1B0F5804F0CD0B0F5004F3F
:1020400009D0B0F5404F06D0C92101E009E00BE00E
:102050000FA003F0C1FD6868A16820F44040084368
:1020600068602078C0060FD56069B0F5800F05D094
:1020700020B140F2251106A003F0AEFD6868616949
:1020800020F48000084368600020BFE70010024091
:102090002E2E2F447269766572732F53544D33324E
:1020A000463178785F48414C5F4472697665722F9B
:1020B0005372632F73746D3332663178785F686161
:1020C0006C5F7263635F65782E6300000070004090
:1020D000400442422DE9F0470E46050004D140F28B
:1020E0002E3187A003F078FD2868C1070AD1810747
:1020F00008D4410706D4000704D440F22F3180A051
:1021000003F06AFD46B1012E06D0022E04D04FF432
:102110004C717BA003F060FDDFF81C82D8F8000052
:1021200000F00700B0420CD2D8F8001021F00701EF
:102130003143C8F80010D8F8000000F00700B042A2
:1021400075D128687D4C810729D5400703D5606883
:1021500040F4E06060602878000703D5606840F4D0
:1021600060506060A868A0B1802812D0902810D07C
:10217000A0280ED0B0280CD0C0280AD0D02808D073
:10218000E02806D0F02804D040F256315CA003F0DD
:1021900023FD6068A96820F0F0000843606028789B
:1021A000C00751D0686868B1012821D0022822D028
:1021B00040F25D3152A003F00FFD6868012817D08E
:1021C000022818D02068800700284EDA6068696805
:1021D00020F0030008436060FFF714FB69680746BE
:1021E00041F2883001290FD00229814619D027E019
:1021F00020688003E8E720688001E5E7FFF702FB3D
:10220000C11B494501D918E081466068C0F38100CF
:102210000128F3D118E000BFFFF7F4FAC11B4945CC
:102220000BD86068C0F381000228F5D10CE01CE0F7
:10223000FFF7E8FAC11B494502D90320BDE8F08742
:10224000606810F00C0FF3D1D8F80010404601F090
:102250000701B1420BD9016821F007013143016048
:10226000006800F00700B04201D00120E6E72878BE
:102270004FF4806640074FF4A0674FF4C0684FF4F6
:10228000E06914D5E86860B1B0420AD0B84208D01D
:10229000404506D0484504D040F2B13118A003F0C3
:1022A0009BFC6068E96820F4E0600843606028787F
:1022B000000715D5286960B1B0420AD0B84208D0ED
:1022C000404506D0484504D04FF46E710CA003F091
:1022D00083FC6068296920F4605040EAC1006060B6
:1022E00000F032F86168164AC1F30311515CC8402E
:1022F000144908600020FFF7A5FA00209EE70000BF
:102300002E2E2F447269766572732F53544D3332DB
:10231000463178785F48414C5F4472697665722F28
:102320005372632F73746D3332663178785F6861EE
:102330006C5F7263632E6300002002400010024055
:10234000A85C00088000002012A185B00FC98DE8AC
:102350000F0014A0144A006804905168134801F05B
:102360000C03042B10D0082B0ED1C1F38343C903F7
:102370001DF803000AD5516804AAC1F34041515C1D
:102380000A4A5043B0FBF1F005B070470849484392
:10239000FAE7000002030405060708090A0B0C0D02
:1023A0000E0F1010010200000010024000127A000F
:1023B00000093D002DE9F84F040004D14FF4B87135
:1023C000F4A003F009FC4FF0010A4FF000084FF4AD
:1023D0008039FE4EFE4D206860B1C1070DD18107E6
:1023E00063D401077ED440077DD440F27111E9A087
:1023F00003F0F2FB2078C00754D060684FF4A027A8
:1024000040B1484506D0B84204D040F27711E1A06F
:1024100003F0E2FB6868C0F38100012807D0686818
:10242000C0F38100022809D16868C00306D5286876
:10243000800337D56068002876D033E0606848456F
:1024400003D1286840F4803009E008B1B8420DD0CB
:10245000286820F480302860286820F480202860D4
:10246000606890B1FFF7CEF907460AE0286840F4AB
:1024700080202860E5E700BFFFF7C4F9C01B64288F
:1024800077D828688003F7D50CE0FFF7BBF907463B
:1024900005E000BFFFF7B6F9C01B6428F0D8286834
:1024A0008003F7D4207880074ED5206930B1012809
:1024B00004D040F2AB11B7A003F08EFB60691F2877
:1024C00004D94FF4D671B3A003F086FB686810F00E
:1024D0000C0F0AD06868C0F3810002280CD168682C
:1024E000C00301E033E06CE006D42868800713D510
:1024F0002069012818D10FE02069B0B1C6F800A00A
:10250000FFF780F9074604E0FFF77CF9C01B0228BB
:10251000B6D828688007F7D52868616920F0F800E8
:1025200040EAC10028600FE033E1C6F80080FFF701
:1025300069F9074605E000BFFFF764F9C01B0228F0
:102540009ED828688007F7D42078000736D5A14F99
:10255000A06920B3012806D04FF4F6718DA003F0D6
:102560003BFBA069D8B1C7F800A0FFF74BF90746BD
:1025700005E052E1FFF746F9C01B02288ED8686AD1
:102580008007F7D594484FF4FA510068B0FBF1F09A
:10259000009000BF0098411E0091FAD20EE0C7F8EB
:1025A0000080FFF72FF9074605E000BFFFF72AF983
:1025B000C01B0228ACD8686A8007F7D4207840078F
:1025C0006CD5E068002740B1012806D0052804D06A
:1025D00040F21B216FA003F0FFFAE869C00008D4A5
:1025E000E86940F08050E861E869012700F0805018
:1025F00000907A480168C90512D4016841F48071DD
:102600000160FFF7FFF8834606E000BFFFF7FAF826
:10261000A0EB0B00642893D870480068C005F5D57E
:10262000E06801280AD008B1052811D0286A20F0F6
:1026300001002862286A20F0040002E0286A40F0C5
:1026400001002862E068A8B1FFF7DCF883460DE0DE
:10265000286A40F004002862F0E700BFFFF7D2F8D4
:10266000A0EB0B0141F28830814287D8286A8007AD
:10267000F4D50EE0FFF7C6F8834607E0FFF7C2F88F
:10268000A0EB0B0141F28830814293D8286A800781
:10269000F4D41FB1E86920F08050E861E0690028B7
:1026A00076D0012809D0022807D040F2B92139A0FC
:1026B00003F092FAE06900286AD06868C0F38100EC
:1026C000022866D0E069022805D0C6F86080FFF7CE
:1026D00099F80446A4E0206A30B1484504D040F29D
:1026E000C2212CA003F078FA606A70B3B0F5802F95
:1026F0002BD0B0F5002F28D0B0F5402F25D0B0F565
:10270000801F22D0B0F5A01F1FD0B0F5C01F1CD075
:10271000B0F5E01F19D0B0F5001F16D0B0F5101FAE
:1027200013D0B0F5201F10D0B0F5301F0DD0B0F58C
:10273000401F0AD0B0F5501F07D0B0F5601F04D07D
:1027400040F2C32113A003F047FAC6F86080FFF7F8
:1027500059F8074605E000BFFFF754F8C01B0228F0
:102760005BD828688001F7D4206A48450FD1A0685B
:1027700038B1B0F5003F04D040F2D92105A003F0F4
:102780002BFA6868A16820F400300843686027E0ED
:1027900049E04AE02E2E2F447269766572732F53FA
:1027A000544D3332463178785F48414C5F4472690A
:1027B0007665722F5372632F73746D33326631787E
:1027C000785F68616C5F7263632E63000000424251
:1027D000001002408004424280000020007000404F
:1027E000D4E908010843696821F47411084368605A
:1027F000C6F860A0FFF706F8044604E0FFF702F809
:10280000001B022809D828688001F7D50BE000BF1B
:10281000FEF7F8FF001B022802D90320BDE8F88F5D
:1028200028688001F4D40020F8E70120F6E710B50D
:10283000401EB0F1807F01D3012010BD4FF0E02495
:1028400060610F21601700F0B9FF0020A061072030
:102850002061002010BD000070B50C4605460068E0
:102860004049884207D04049884204D04FF4C161B2
:102870003EA003F0B1F92068B0F5006F05D020B19B
:1028800040F2096139A003F0A7F96068B0F5806FE4
:1028900005D020B140F20A6134A003F09DF9A06890
:1028A00068B1B0F5807F0AD0B0F5007F07D0B0F5F1
:1028B000407F04D040F20B612CA003F08DF9E0685A
:1028C000FF2804D940F20C6128A003F085F92069A3
:1028D000B0F5805F05D020B140F20D6123A003F078
:1028E0007BF9606938B1B0F5005F04D040F20E6149
:1028F0001EA003F071F9A069B0F5804F05D020B19A
:1029000040F20F6119A003F067F995F83C00012827
:1029100025D0012085F83C00E068A26820F44070D2
:102920001043626820F480601043226820F4006045
:102930001043226920F480501043626920F4005053
:102940001043A26920F480401043002120F400408D
:1029500010432A68506485F83C10002070BD0220A6
:1029600070BD0000002C0140003401402E2E2F4489
:102970007269766572732F53544D333246317878CD
:102980005F48414C5F4472697665722F5372632FC2
:1029900073746D3332663178785F68616C5F746927
:1029A0006D5F65782E63000070B50D4604460068C3
:1029B0003049884219D03049884216D0B0F1804F52
:1029C00013D02E49884210D02D4988420DD02D4970
:1029D00088420AD02C49884207D02C49884204D02A
:1029E0004FF4C7612AA003F0F7F8286890B11028C7
:1029F00010D020280ED030280CD040280AD05028E3
:102A000008D0602806D0702804D040F2396120A098
:102A100003F0E2F86868802805D020B140F23A61FE
:102A20001BA003F0D9F894F83C0001281FD0012026
:102A300084F83C00022184F83D1021684A6822F0A5
:102A400070024A6021684A682B681A434A6021680C
:102A50008A6822F080028A6021688A686B681A435B
:102A60008A6084F83D00002084F83C0070BD02209C
:102A700070BD0000002C0140003401400004004003
:102A800000080040000C004000100040001400400E
:102A90002E2E2F447269766572732F53544D333244
:102AA000463178785F48414C5F4472697665722F91
:102AB0005372632F73746D3332663178785F686157
:102AC0006C5F74696D5F65782E63000010B504005B
:102AD00042D02B492068884218D02A49884215D014
:102AE000B0F1804F12D0284988420FD02749884240
:102AF0000CD02749884209D02649884206D0264969
:102B0000884203D0D92125A003F066F8A06858B107
:102B1000102809D0202807D0402805D0602803D0ED
:102B2000DA211EA003F058F8206948B1B0F5807F83
:102B300006D0B0F5007F03D0DB2118A003F04CF8DD
:102B4000A06928B1802803D0DC2114A003F044F848
:102B500094F83D0010B107E0012010BD002084F87A
:102B60003C00204600F036F8022084F83D00211D8C
:102B7000206801F03FF8012084F83D00002010BDDE
:102B8000002C0140003401400004004000080040D7
:102B9000000C004000100040001400402E2E2F4476
:102BA0007269766572732F53544D3332463178789B
:102BB0005F48414C5F4472697665722F5372632F90
:102BC00073746D3332663178785F68616C5F7469F5
:102BD0006D2E630008B500680649884208D1064892
:102BE000C16941F00201C161C06900F002000090BA
:102BF00008BD0000000400400010024010B504466B
:102C000001681548814219D01448814216D0B1F1AB
:102C1000804F13D01248814210D0124881420DD00B
:102C2000114881420AD01148814207D010488142A0
:102C300004D040F233110FA002F0CEFF022084F83E
:102C40003D002068016841F001010160012084F825
:102C50003D00002010BD0000002C01400034014068
:102C60000004004000080040000C0040001000403C
:102C7000001400402E2E2F447269766572732F5314
:102C8000544D3332463178785F48414C5F44726925
:102C90007665722F5372632F73746D333266317899
:102CA000785F68616C5F74696D2E63002DE9F05F79
:102CB000044690F83C000D4601283FD04FF0010B30
:102CC00084F83CB0022084F83D0028684FF4805915
:102CD0004FF4005A484515D0504513D090B11028F4
:102CE00010D020280ED030280CD040280AD05028F0
:102CF00008D0602806D0702804D040F67171DDA09D
:102D000002F06AFF2068816821F0770121F47F4199
:102D100081602F68E548E649E64AE74BE74E4FF009
:102D2000804C4FF40048502F75D00FDC202F73D00B
:102D300007DC002F71D0102F70D15CE10220BDE8BC
:102D4000F09F302F6BD0402FF6D110E1602F67D06D
:102D5000702F66D04F4541D05745EDD12768874247
:102D60000ED08F420CD067450AD0974208D09F42C0
:102D700006D0B74204D04FF47A61BEA002F02CFF17
:102D8000A86858B1484509D0504507D0B0F5405F14
:102D900004D040F6A371B7A002F01EFF686840455A
:102DA00009D040B1022806D00A2804D040F6A47108
:102DB000B0A002F011FFE8680F2804D940F6A57111
:102DC000ACA002F009FFD5E90121EB68206800F012
:102DD000B1FF2068816841F4804161E02568854247
:102DE00014D08D4212D0654510D095420ED09D4230
:102DF0000CD0B5420AD0B248854207D0B1488542CE
:102E000004D040F67D719BA002F0E6FE2068816848
:102E100021F0070144E045E002E1D7E0A1E014E140
:102E20006FE0276887420ED08F420CD067450AD0EA
:102E3000974208D09F4206D0B74204D040F6867130
:102E40008CA002F0C9FEA86858B1484509D0504589
:102E500007D0B0F5405F04D040F6897185A002F03C
:102E6000BBFE6868404509D040B1022806D00A2858
:102E700004D040F68A717FA002F0AEFEE8680F2809
:102E800004D940F68B717BA002F0A6FED5E90121A2
:102E9000EB68206800F04EFF2068816841F0770100
:102EA00081605EE0276887420ED08F420CD0674574
:102EB0000AD0974208D09F4206D0B74204D040F6CD
:102EC000B4716CA002F088FE6868404509D040B13A
:102ED000022806D00A2804D040F6B77165A002F097
:102EE0007BFEE8680F2804D940F6B87161A002F0B3
:102EF00073FEEA686968206801F0DEF850212068F6
:102F00002DE0276887420ED08F420CD067450AD04B
:102F1000974208D09F4206D0B74204D040F6C37112
:102F200054A002F059FE6868404509D040B102281B
:102F300006D00A2804D040F6C6714EA002F04CFE1E
:102F4000E8680F2804D940F6C7714AA002F044FE91
:102F5000EA686968206801F0C0F86021206800F024
:102F6000F3FE84F83DB0002084F83C00E7E62768D3
:102F700087420ED08F420CD067450AD0974208D0C6
:102F80009F4206D0B74204D040F6D27139A002F079
:102F900023FE6868404509D040B1022806D00A28BF
:102FA00004D040F6D57133A002F016FEE8680F2871
:102FB00004D940F6D6712FA002F00EFEEA686968C7
:102FC000206801F079F840212068C8E7256885422B
:102FD0000ED08D420CD065450AD0954208D09D4256
:102FE00006D0B54204D040F6E17122A002F0F4FD13
:102FF00000212068B3E7256885420ED08D420CD0B1
:1030000065450AD0954208D09D4206D0B54204D00D
:1030100040F6E97117A002F0DFFD102120689EE75D
:10302000256885420ED08D420CD065450AD0954268
:1030300008D09D4206D0B54204D040F6F1710DA0F3
:1030400002F0CAFD2021206889E7256885420ED05C
:103050008D420CD065450AD0954208D09D4206D0DD
:10306000B54204D040F6F97102A002F0B5FD30215E
:10307000206874E72E2E2F447269766572732F5381
:10308000544D3332463178785F48414C5F44726921
:103090007665722F5372632F73746D333266317895
:1030A000785F68616C5F74696D2E6300002C01406D
:1030B000003401400004004000080040000C0040C3
:1030C000001000400014004000B585B000210091C0
:1030D00001910291039100680B49884212D10B487B
:1030E000816941F0040181618069694600F0040052
:1030F00004904FF4807000900220019003900448E7
:10310000FEF7D2F905B000BD002C014000100240CE
:10311000000801402DE9F047044690F83C001646AF
:103120000D46012840D04FF0010984F83C9066B16B
:10313000042E0AD0082E08D00C2E06D0182E04D04B
:1031400040F6374168A002F047FD2868602806D0A5
:10315000702804D040F6384163A002F03DFDA86815
:1031600030B1022804D040F639415FA002F034FDAE
:10317000286930B1042804D040F63A415AA002F040
:103180002BFD022084F83D006549664A664B674F77
:10319000DFF89CC14FF080484EB1042E2CD0082E91
:1031A00051D00C2E4ED173E00220BDE8F08720688C
:1031B00088420ED090420CD040450AD0984208D0A8
:1031C000B84206D0604504D040F6424146A002F025
:1031D00003FD2946206800F0BFFD2068816941F0A9
:1031E000080181612068816921F004018161206802
:1031F00081692A69114324E0206888420ED09042F8
:103200000CD040450AD0984208D0B84206D060455C
:1032100004D040F6514134A002F0DEFC294620687B
:1032200000F00CFE2068816941F400618161206832
:10323000816921F480618161206881692A6941EA9C
:10324000022181614AE0206888420ED090420CD071
:1032500040450AD0984208D0B84206D0604504D014
:103260004FF4466120A002F0B7FC2946206800F028
:103270005BFE2068C16941F00801C1612068C16935
:1032800021F00401C1612068C1692A69114324E069
:10329000206888420ED090420CD040450AD0984217
:1032A00008D0B84206D0604504D040F66F410EA069
:1032B00002F092FC2946206800F0ACFE2068C1694B
:1032C00041F40061C1612068C16921F48061C1617C
:1032D0002068C1692A6941EA0221C16184F83D90F0
:1032E000002084F83C0060E72E2E2F44726976653A
:1032F00072732F53544D3332463178785F48414CC6
:103300005F4472697665722F5372632F73746D33E5
:1033100032663178785F68616C5F74696D2E630026
:10332000002C01400034014000040040000800402F
:10333000000C004010B5040046D02D49206888429A
:1033400019D02C49884216D0B0F1804F13D02A49A9
:10335000884210D0294988420DD0294988420AD094
:103360002849884207D02849884204D040F2EE31EB
:1033700026A002F031FCA06860B110280AD02028F5
:1033800008D0402806D0602804D040F2EF311FA0BA
:1033900002F022FC206950B1B0F5807F07D0B0F573
:1033A000007F04D04FF47C7118A002F015FCA069D6
:1033B00030B1802804D040F2F13114A002F00CFCAE
:1033C00094F83D0010B107E0012010BD002084F802
:1033D0003C00204600F036F8022084F83D00211D14
:1033E000206800F007FC012084F83D00002010BD9B
:1033F000002C01400034014000040040000800405F
:10340000000C004000100040001400402E2E2F44FD
:103410007269766572732F53544D33324631787822
:103420005F48414C5F4472697665722F5372632F17
:1034300073746D3332663178785F68616C5F74697C
:103440006D2E630008B500680649884208D1064819
:10345000816941F400618161806900F4006000903D
:1034600008BD0000002C0140001002402DE9F04191
:1034700005460068284E294F0C46B04206D1A4B339
:10348000042C32D0082C30D00C2C2ED0B84206D1CF
:103490005CB3042C29D0082C27D00C2C25D0B0F1FB
:1034A000804F16D01E49884206D1F4B1042C1CD09E
:1034B000082C1AD00C2C18D01A49884206D1A4B175
:1034C000042C12D0082C10D00C2C0ED01649884297
:1034D00006D154B1042C08D0082C06D00C2C04D0F2
:1034E00040F24D4111A002F077FB012221462868ED
:1034F00000F0C6FB2868B04201D0B84203D1416C4D
:1035000041F4004141642868016841F00101016013
:103510000020BDE8F0810000002C01400034014093
:103520000004004000080040000C00402E2E2F44F4
:103530007269766572732F53544D33324631787801
:103540005F48414C5F4472697665722F5372632FF6
:1035500073746D3332663178785F68616C5F74695B
:103560006D2E6300FEE70000F0B500230A2430252D
:1035700037261F4611E000BFB4EB107F02D905EBE0
:10358000107C01E006EB107C01F813C001EB430C4A
:1035900000015B1C8CF80170DBB29342ECD3F0BDF0
:1035A0003EB500240D480094019402948460C460E8
:1035B000094944610160012505614FF4002144601F
:1035C000C161FDF7EBFACDE9004569460348029475
:1035D000FDF7CCF93EBD0000002401409C01002015
:1035E00030B585B00020029003902048816941F0F9
:1035F00010018161816901F010010491816941F03C
:1036000020018161816901F020010491816941F00B
:1036100004018161816901F004010491816941F033
:103620000801816180694FF6FF75032400F00800EE
:10363000CDE90054049069460D48FDF735FF48F286
:10364000FE60CDE9000469460A48FDF72DFFCDE98B
:10365000005469460848FDF727FF0420CDE900041F
:1036600069460648FDF720FF05B030BD0010024056
:103670000010014000080140000C0140001401400E
:1036800010B590B000240E941C2168460F94FCF7EE
:1036900094FD1C2107A8FCF790FD1C481A49016005
:1036A0004821C0E9011441F28831C0E903144461A2
:1036B0008461FFF73FFE0E940EA914480F94FFF7A4
:1036C00073F96020009040F6C41001900220CDE90B
:1036D000020404940594002269460C480694FFF7FE
:1036E00019FD0794089409944FF400500A94CDE909
:1036F0000B4040000D9007A90448FFF7ADF80348C0
:10370000FFF7E2FC10B010BD002C0140CC010020FE
:1037100010B586B0002412480094019402940394DA
:1037200004940E49059401604821C0E901144FF446
:103730007A71C0E903148461FFF7C8F94FF480502F
:10374000009069460648FFF7B1FA2020CDE904044D
:1037500004A90348FFF728F906B010BD0004004093
:103760000C02002010B500220F49104800F055FF50
:1037700008B1FDF7F9F80E490C4801F008F908B155
:10378000FDF7F2F80B49094800F07AFD08B1FDF7A2
:10379000EBF8064801F048F9002803D0BDE81040D6
:1037A000FDF7E2B810BD00001400002090020020D8
:1037B0006401002064000020FEE770470907090E3D
:1037C000002806DA00F00F0000F1E02080F8141D58
:1037D000704700F1E02080F8001470472DE9FC5F8D
:1037E0004FF000080446ADF80480ADF8008048F6BC
:1037F0000F7B4FF002094FF4806692E1BDF8041090
:1038000011F00F072BD030F82710ADF80010BDF8DD
:103810000010090478D530F8272040F68F710A404F
:1038200020F8272004EB471595F8320205F50A75B4
:103830000028206869D0297830F8212052047DD5ED
:10384000B0F8503009EBC101194406EB4101415A6F
:10385000C1F309015FEA010A71D0EA88D0E0BDF83E
:103860000410C9062AD4018801EA0B0101802068EE
:1038700004F12805B0F850202B7809EBC30111445E
:1038800006EB4101405AC0F309006064E16B084453
:10389000E06300212046FEF7EEF894F824000028AB
:1038A000ABD0A8690028A8D194F82400216840F082
:1038B0008000A1F84C0084F8248032E1018804F5EE
:1038C0000A75ADF80010BDF8001009051ED5B0F856
:1038D00050302978062202EBC101194406EB410160
:1038E000405A04F22C41C0F30903EB61AA88206816
:1038F00001F0C4FC2068018840F68F7211400180FD
:103900002046FEF7E6FA0CE1A0E055E0BDF8001015
:103910000904D2D5028840F68F710A4002802068DF
:10392000B0F850302978062202EBC101194406EBA9
:103930004101405A83059B0DEB6101E051E063E0DA
:1039400008D0AA886969206801F098FCE96968696B
:103950000844686100212046FEF794F82068B0F81A
:103960005010891D06EB4101014428693E280CD9FD
:10397000C0F34F12C00601D1521E92B24FF6FF7033
:1039800000EA822040F4004009E0C0F34F02C00783
:1039900001D0521C92B24FF6FF7000EA82200860FC
:1039A000216808884BF68F72104080F4405048F22E
:1039B000800210430880B4E0B0F850202B78062134
:1039C00001EBC301114406EB4101415AC1F3090166
:1039D0005FEA010A24D0AA885346696901F04EFCC7
:1039E0001EE0B0F85020062303EBC101114406EBA2
:1039F0004101415AC1F309015FEA010A04D02A8951
:103A00005346696901F03AFC2978206830F8213082
:103A100048F68F72134048F2C002134320F8213059
:103A2000E96901EB0A00E861696901EB0A026A6170
:103A3000AB6913B12869504504D929782046FEF7AF
:103A400021F803E029782046FEF792F8BDF800003F
:103A5000000666D5206804EB471530F8271001EA08
:103A60000B0120F8271095F832002835002820682F
:103A700012D0297830F82120B0F8503052061ED5E7
:103A800009EBC101194406EB4101405A83059B0D26
:103A9000EB6124D0EA881EE0B0F850302A7809EBB8
:103AA000C201194406EB4101405A83059B0DEB61AD
:103AB00021D0AA886969206801F0F7FB1BE0062283
:103AC00002EBC101194406EB4101405A83059B0DED
:103AD000EB6104D02A896969206801F0E6FB297846
:103AE000206830F8212048F68F731A404CF280038A
:103AF0001A4320F821202068B0F850202B7809EBD9
:103B0000C301114406EB4101405AC0F30900E861CA
:103B100069690A186A612978AB69204663B1FEF7C2
:103B200069F82068B0F84410ADF8041009043FF5B6
:103B300065AE0020BDE8FC9FFDF79DFFF1E77047F3
:103B40007047FDF765BE30B595B028216846FCF793
:103B500034FB14210AA8FCF730FB18210FA8FCF74E
:103B60002CFB01210804CDE9001000240294022559
:103B70000491CDE907504FF4E01009906846FEF734
:103B800019FC0F20CDE90A056802CDE90C4002219D
:103B90000AA80E94FEF79EFA12200F90A803119027
:103BA00014940FA8FEF7C8F915B030BD0D48016890
:103BB00041F00101016041680B4A11404160016818
:103BC0000A4A11400160016821F4802101604168C6
:103BD00021F4FE0141604FF41F0181600449C003DC
:103BE00008607047001002400000FFF8FFFFF6FE7B
:103BF00008ED00E0F0B502681C4B1D4D1D4E1E4F38
:103C00001E4C4FF0804C984209D0A04207D060452E
:103C100005D0A84203D0B04201D0B84204D122F06E
:103C2000700E4A6842EA0E02984209D0A04207D0BC
:103C3000604505D0A84203D0B04201D0B84203D1BC
:103C400022F44075CA682A4322F080054A692A4353
:103C500002608A68C2620A688262984201D0A04209
:103C600001D10969016301214161F0BD002C0140CE
:103C70000004004000080040000C004000340140F7
:103C800070B50446184816460D46844213D01748AE
:103C9000844210D0B4F1804F0DD0154884420AD030
:103CA0001448844207D01448844204D041F213518E
:103CB00012A001F091FF65B1042D0AD0082D08D0A3
:103CC0000C2D06D0182D04D041F214510BA001F098
:103CD00083FF0120216AA84081432162206AAE400F
:103CE0003043206270BD0000002C014000340140D0
:103CF0000004004000080040000C00402E2E2F441D
:103D00007269766572732F53544D33324631787829
:103D10005F48414C5F4472697665722F5372632F1E
:103D200073746D3332663178785F68616C5F746983
:103D30006D2E630010B5846842EA032224F47F44A8
:103D40000A432243826010BD826822F070020A4357
:103D500042F00701816070472DE9F0470446006A90
:103D60000D4620F001002062206A6768A169AE68F4
:103D700021F07302296820F00200DFF880900643EA
:103D8000DFF87CA041EA02084C4501D054450ED131
:103D9000E86830B1082804D041F23F2119A001F0B1
:103DA0001BFFE86826F00801084320F004064C4594
:103DB00001D0544519D1A869B0F5007F05D020B1D4
:103DC00041F24C210FA001F007FF6869B0F5807F38
:103DD00005D020B141F24D210AA001F0FDFE27F4EB
:103DE00040716869AF69084307436760C4F8188089
:103DF000686860632662BDE8F0870000002C01401F
:103E0000003401402E2E2F447269766572732F5351
:103E1000544D3332463178785F48414C5F44726983
:103E20007665722F5372632F73746D3332663178F7
:103E3000785F68616C5F74696D2E63002DE9F047EF
:103E40000446006A0D4620F010002062206A676870
:103E5000A1692A6821F4E64141EA0228A968DFF84D
:103E6000889020F02000DFF884A040EA01164C453D
:103E700001D054450FD1E86830B1082804D041F290
:103E800089211BA001F0A8FEE96826F0800040EA25
:103E9000011020F040064C4501D054451BD1A869C3
:103EA000B0F5007F05D020B141F2972110A001F0BC
:103EB00093FE6869B0F5807F05D020B141F298216A
:103EC0000BA001F089FE696927F4406040EA810097
:103ED000A96940EA81076760C4F818806868A06330
:103EE0002662BDE8F0870000002C0140003401404C
:103EF0002E2E2F447269766572732F53544D3332D0
:103F0000463178785F48414C5F4472697665722F1C
:103F10005372632F73746D3332663178785F6861E2
:103F20006C5F74696D2E63002DE9F0470446006AEA
:103F30000D4620F480702062206A6768E169DFF82E
:103F4000949021F07302296820F4007041EA02087D
:103F5000A968DFF884A040EA01264C4501D0544509
:103F60000FD1E86830B1082804D041F2D4211BA059
:103F700001F032FEE96826F4006040EA012020F4F6
:103F800080664C4501D054451BD1A869B0F5007F2F
:103F900005D020B141F2E12110A001F01DFE6869B9
:103FA000B0F5807F05D020B141F2E2210BA001F0F5
:103FB00013FE696927F4405040EA0110A96940EAFC
:103FC00001176760C4F81C806868E0632662BDE87A
:103FD000F0870000002C0140003401402E2E2F44B9
:103FE0007269766572732F53544D33324631787847
:103FF0005F48414C5F4472697665722F5372632F3C
:1040000073746D3332663178785F68616C5F7469A0
:104010006D2E63002DE9F0410446006A0D4620F440
:1040200080502062206A6668E1692A6821F4E641CE
:1040300041EA0228A96820F4005040EA01370E48FE
:10404000844202D00D4884420ED16869B0F5807F69
:1040500005D020B141F21F3109A001F0BDFD696911
:1040600026F4804040EA81166660C4F81C806868C7
:1040700020642762BDE8F081002C0140003401403B
:104080002E2E2F447269766572732F53544D33323E
:10409000463178785F48414C5F4472697665722F8B
:1040A0005372632F73746D3332663178785F686151
:1040B0006C5F74696D2E630010B5036A046A24F0A6
:1040C00001040462846924F0F00444EA021423F039
:1040D0000A020A438461026210BD10B5036A23F02C
:1040E000100303628369046A23F4704343EA0232D3
:1040F00024F0A00343EA01118261016210BDD0F8EF
:10410000180220B10021C0F814120846704702209E
:10411000704770B50546D0F8184200F02FFBC4F880
:104120000C02D5F8180248B1D5F81C12D4F80402D4
:10413000CA6804F503719047002070BD022070BD6D
:1041400070B504460025812100F085FA0121204642
:1041500000F081FA8221204600F07DFAD4F818029E
:1041600050B1D4F81C0204F50674406880472068FA
:1041700000F060FD00202060284670BD10B5D0E939
:10418000864159B194F80002FF2807D08B6894F853
:10419000012221469847FF2084F80002002010BD2C
:1041A0000A210180004870478C00002043210180D3
:1041B00000487047DC000020432101800048704720
:1041C0009800002043210180004870472001002012
:1041D0002DE9F0410446007C00254FF4007670B3D1
:1041E000402302228121204600F01AFB40230222B4
:1041F0000121204600F014FB0823032282212046DF
:1042000000F00EFB4FF4077000F016FDC4F8180222
:10421000F0B10746D4F81C02006880470020C7F8B8
:104220001402C7F81802207CD7F8042290B140236A
:104230000121204600F000FB2846BDE8F081FFE7A1
:10424000334602228121204600F0EAFA3346CEE7C7
:104250000125F1E73346EBE710B5D0F8181269B144
:10426000027C002AD1F8042205D04023012100F06D
:10427000E3FA002010BD4FF40073F7E7022010BDF1
:1042800002460220002902D00020C2F81C1270470A
:10429000D0F81802C0F8041200207047D0F81802B5
:1042A000C0F81022C0F808120020704770B506460A
:1042B000D0F8185208780C4610F0600121D020295F
:1042C00027D1E288AAB10006607807D5D6F81C127B
:1042D0008B6829469847E288294617E085F800024E
:1042E000A07985F80102E2882946304600F050F8AE
:1042F0000FE0D6F81C12607800228B6821469847A0
:1043000007E060780A2804D103490122304600F012
:1043100059F8002070BD00008800002010B5D0F8CA
:10432000181289B1D1F814220AB1012010BD01225E
:10433000C1F81422B1F8102293B2D1F808228121D9
:1043400000F008FB002010BD022010BD10B5D0F811
:10435000142252689047002010BD134610B50A463B
:10436000002100F069FA002010BD134610B50A467E
:10437000002100F0EFFA002010BD10B504468021A6
:1043800000F0CDFA2046BDE81040002100F0C7BA89
:1043900010B50323C0F80821C0F8F431C0F80C218F
:1043A00013460A46002100F047FA002010BD10B560
:1043B00005210023C0F8F4111A46194600F03CFA12
:1043C000002010BD10B502238261C0F8F431C26133
:1043D00013460A46002100F0BDFA002010BD10B5BA
:1043E00004210023C0F8F4111A46194600F0B2FA6D
:1043F000002010BD10B50A46024903A000F0DEF807
:10440000004810BD340B002043444320436F6E66C8
:1044100069670000122008800048704734000020BF
:1044200010B50A46024903A000F0C8F8004810BDC4
:10443000340B002043444320496E74657266616307
:10444000650000000420088000487047300000200C
:1044500010B50A46024903A000F0B0F8004810BDAC
:10446000340B002053544D6963726F656C6563743F
:10447000726F6E696373000010B50A46024903A0AB
:1044800000F09CF8004810BD340B002053544D330D
:1044900032205669727475616C20436F6D506F7273
:1044A0007400000010B51A2008800A480168001D39
:1044B0000468001D0068081809D008220649FFF7A3
:1044C00053F80549042210312046FFF74DF8024801
:1044D000801E10BDE8F7FF1F4A000020F8B5044613
:1044E00048880D46010A08294BD2DFE801F04A044A
:1044F00009174A4A4048D4F81012207C0A6832E072
:10450000207C02260028D4F8140205D0C16A68462F
:1045100088470146467041E0816AF8E7C0B2062844
:104520002FD2DFE800F003080D12171CD4F8101288
:10453000207C4A6817E0D4F81012207C8A6812E0C8
:10454000D4F81012207CCA680DE0D4F81012207C38
:104550000A6908E0D4F81012207C4A6903E0D4F814
:104560001012207C8A6969469047014616E0207C3B
:1045700038B9D4F81402416B68468847F5E7207CC7
:1045800020B129462046FFF7F8FEF8BDD4F8140202
:10459000016B68468847014607204870BDF8000057
:1045A0000028F2D0EA88002AEFD0824200D90246E1
:1045B000ADF800202046FFF705FFF8BD70B50023D9
:1045C00000281DD00446002502E06D1CEDB2641CDD
:1045D0002678002EF9D1022404EB45041480CC5433
:1045E0005B1C0322CA5400245B1C06E0CA545B1CFB
:1045F000DAB28C54521CD3B2401C0278002AF5D196
:1046000070BD01004FF0000004D0012901D0022943
:1046100001D0022070470120704710B580B1D0F85A
:10462000143213B10023C0F8143209B1C0F81012CB
:10463000012180F8FC11027000F0A4F8002010BDE8
:10464000022010BD10B5D0F82002FDF743FABDE8F6
:104650001040FFF7D6BF10B5D0F82002FDF71AFAC8
:10466000BDE81040FFF7CDBF2DE9F04117460446E5
:1046700041B1D4F8140242698AB394F8FC010328CA
:1046800042D043E0D4F8F411002504F114000229CB
:1046900033D1D0E902639E4207D9F31A83609AB2FC
:1046A00039462046FFF761FE12E04068B0FBF3F1A7
:1046B00003FB1101A1B9984212D3D4F8F811884232
:1046C0000ED2002211462046FFF74FFEC4F8F851E3
:1046D00000231A461946204600F0AEF80DE012E01D
:1046E000D4F81402C16829B194F8FC01032801D15F
:1046F000204688472046FFF75AFE94F8000201281A
:1047000004D184F8005201E0204690470020BDE823
:10471000F08170B51546044641B1D4F8140282699F
:104720003AB394F8FC01032824D025E0D4F8F4111E
:1047300004F5827003291FD1D0E902218A420BD9E6
:10474000531A83600846834200D303469AB229462F
:104750002046FFF702FE0FE0D4F81402016929B1E8
:1047600094F8FC01032801D1204688472046FFF732
:1047700036FE01E020469047002070BDD0F82002B0
:10478000FDF7CCB910B504461C481D49C0F85C447F
:10479000C4F82002016008214160022181600021EB
:1047A0008161C1610162FDF7C1FA08B1FCF7DCF873
:1047B0000022D4F820021823114604F50874FDF7EE
:1047C0003FF95823002280212068FDF739F9C023E2
:1047D000002281212068FDF733F94FF4887300220D
:1047E00001212068FDF72CF94FF48073002282210B
:1047F0002068FDF725F9002010BD0000D406002038
:10480000005C00400A06D0F8200201F07F0100EBB6
:10481000411002D590F82A00704790F82A0270479C
:1048200010B51C461346D0F820022246FDF77EF94B
:10483000BDE81040FFF7E5BE10B5D0F82002FDF747
:1048400097F9BDE81040FFF7DCBE70B500220446C2
:1048500040231146FFF7E4FF40252B46002280212C
:104860002046C4F81051FFF7DBFF0120256284F8D1
:10487000FC01D4F8180228B1D4F814022179426856
:1048800020469047002070BD90F8FD1180F8FC1183
:104890000020704710B590F8FC11032904D1D0F81E
:1048A0001412C96901B18847002010BD01740020AD
:1048B000704710B5D0F82002FDF7F7FABDE81040B8
:1048C000FFF79FBE70B5044600F50270054600F084
:1048D0004AF80120C4F8F401B4F80E02C4F8F80153
:1048E00094F8080210F01F010AD001290DD0022906
:1048F00010D000F08001204600F011F8002070BDBB
:104900002946204600F095F8F8E72946204600F0B1
:1049100077F9F3E72946204600F004F9EEE710B5F1
:10492000D0F82002FDF73BF9BDE81040FFF769BE63
:1049300010B5D0F82002FDF7D3FABDE81040FFF71C
:1049400060BE90F8FC1180F8FD11042180F8FC1184
:104950000020704710B5D0F82002FDF74BF9BDE8F4
:104960001040FFF74EBE0A7802704A7842708A788B
:10497000CB7802EB032242800A794B7902EB0322C7
:1049800082808A79C97902EB0121C1807047024691
:10499000002011B1C2F8141270470220704710B500
:1049A000D0F8142202241AB11268904700B90024EA
:1049B000204610BD70B50E461A4D89780446297000
:1049C000012928D894F8FC01022802D0032822D11A
:1049D00005E099B10320616084F8FC0109E091B120
:1049E000606888420AD0C1B22046FFF7AFFC297840
:1049F00061602046FFF7D3FF02280CD02046BDE8B7
:104A00007040FFF7ECBC022084F8FC012046616096
:104A1000FFF79CFCF2E731462046BDE87040FFF707
:104A2000ACBC00008400002010B5FFF781FF00201F
:104A300010BD2DE9F04100264B78012532460A2BA6
:104A400043D2DFE803F03C584251420805422A278E
:104A5000FFF744FD63E004468888C8B9C888B8B940
:104A6000887800F07F0794F8FC01032810D084F8C0
:104A7000FE7139462046FFF71CFF2046FFF7AFFCCA
:104A80001FB1022084F8FC0149E084F8FC5146E0A3
:104A900020461AE0FFF78EFF41E0CB88012B14D1AE
:104AA00090F8FC31022B02D0032B0ED104E082607F
:104AB000012200F1080114E00122011D11E090F82B
:104AC000FC21022A04D0032A02D0FFF756FC26E07C
:104AD000C560D0F8041209B10321C160022200F1BF
:104AE0000C01FFF76FFC1AE004464888012816D134
:104AF000C4F804520BE0044690F8FC01022801D0EF
:104B00000328C5D14888012809D1C4F80422D4F863
:104B100014028268204690472046FFF760FC30462A
:104B2000BDE8F08170B50D46044628780026097965
:104B3000C0F34110012806D06878A0B301281FD027
:104B400003283FD107E0D4F81402294682682046A2
:104B50009047002070BD94F8FC01022817D003286C
:104B60002CD1688828B921B1802902D02046FFF7CE
:104B7000D6FED4F81402294682682046904713E0F6
:104B800094F8FC01022802D0032817D103E0C9B130
:104B900080291BD116E06888A0B9480604D02046B9
:104BA000FFF750FDE5E703E02046FFF718FC09E0BA
:104BB00094F8FC01022807D003280BD02946204690
:104BC000FFF7DBFB304670BD4806FBD02046FFF701
:104BD000A6FEF7E7080601F07F0004EB001501D5FB
:104BE000143501E005F582752046FFF70BFE00B194
:104BF00001202860022229462046FFF7E3FBE1E777
:104C000070B5054690F8FC010C4603280DD12079BB
:104C100001280AD8D5F81402826828469047E0880F
:104C200030B92846FFF7DBFB02E02846FFF7A5FB7B
:104C3000002070BD7047000000487047B404002099
:104C40002DE9F047CC780A7848F68F1334B1012C5F
:104C50006DD0022C08D0032C13D10BE030F8224089
:104C60001C4044F400730AE030F822401C4020F855
:104C7000224006E030F822401C4044F4C06320F893
:104C800022300C7830F8245048F68F72154048F2E4
:104C900080031D43254320F824508D7A48F6BF79C0
:104CA00004274BF68F7A48F2C0044CF28006EDB32D
:104CB0000D7830F825C048F280180CEA020C4CEA56
:104CC000080C20F825C0CD88B0F850C025F00105AB
:104CD00091F800800CEBC80C00EB4C0CCCF80054A5
:104CE0000D89B0F850C025F0010591F8008007EB60
:104CF000C807674400EB4707C7F800544D78002DFC
:104D00000D7830F825704FEA47477DD0002F05DA3F
:104D100030F825701740374320F825700D7830F8AB
:104D200025707F0608D530F8257001E024E01DE0ED
:104D30001740274320F825700C7830F82450154090
:104D4000354320F824500C7830F8242002EA090278
:104D50001A4320F824200A7830F8221001EA0A01C8
:104D6000194320F822100020BDE8F08730F82240D7
:104D70001C4044F4806382E74D78F5B18D88B0F82B
:104D8000506025F001050F7806EBC70600EB4606DC
:104D9000C6F800540D7830F82560760605D530F851
:104DA00025601640264320F825600A7830F8221046
:104DB00001EA090181F02001D2E78C88B0F8505057
:104DC00024F0010491F800C007EBCC073D4400EB50
:104DD0004505C5F80044B0F850400D78062707EBAC
:104DE000C5052C4400EB44070C694FF6FF7C07F522
:104DF00080673E2C0CD9C4F34F15E40601D16D1E1B
:104E0000ADB20CEA852400E01EE044F4004407E063
:104E1000C4F34F05E40701D06D1CADB20CEA852444
:104E20003C600C7830F824506D0405D530F82450DF
:104E30001540354320F824500A7830F8221001EA52
:104E40000A0181F440518BE7002F05DA30F8257014
:104E50001740374320F825700D7830F82560760626
:104E600005D530F825601640264320F825600E78D9
:104E700030F826501540254320F826500C7830F89D
:104E8000242002EA0A0282F440521A4320F8242025
:104E90000A7830F8221001EA090161E70020704722
:104EA0002DE9F04391F80A8091F801C00A7848F69C
:104EB000BF774BF68F7948F2800348F2C0054CF279
:104EC000800648F68F74B8F1000F2ED0BCF1000FA9
:104ED00030F822C04FEA4C4C4ED0BCF1000F07DA3C
:104EE00030F822C00CEA040C4CEA060C20F822C070
:104EF0000A7830F822C05FEA4C6C07D530F822C03F
:104F00000CEA040C4CEA050C20F822C00A7830F8B0
:104F100022502540354320F822500C7830F82420C8
:104F20003A401A4320F824201BE0BCF1000F0ED0B9
:104F300030F82260760605D530F8226026402E43F0
:104F400020F822600A7830F8221039400EE030F85C
:104F500022506D0405D530F822502540354320F805
:104F600022500A7830F8221001EA0901194320F88A
:104F700022100020BDE8F083BCF1000F07DA30F802
:104F800022C00CEA040C4CEA060C20F822C00A7875
:104F900030F82260760605D530F8226026402E4390
:104FA00020F822600E7830F8262022402A4320F88C
:104FB00026200C7830F8242002EA09021A4320F84F
:104FC0002420BFE7002070470020704700B5012172
:104FD000A0F840100021A0F84010A0F84410A0F85C
:104FE000501000F03AF9002000BD30F8401F21F4C5
:104FF0003D410180002070470020704730B54D785A
:105000000A78002D48F68F7430F8225048F2800359
:1050100012D06D0607D530F82250254048F2C00462
:10502000254320F822500A7830F8221048F6BF7441
:10503000214081F0300111E06D0407D530F8225095
:1050400025404CF28004254320F822500A7830F89D
:1050500022104BF68F74214081F44051194320F8FF
:105060002210002030BD10B50A7848F2800352B1FA
:105070004978002930F8221010D048F6BF7421403A
:1050800081F010010FE001884BF6BF72114081F4EE
:10509000805181F010011943018007E04BF68F74B5
:1050A000214081F48051194320F82210002010BDC6
:1050B0002DE9F0410D460646896995F801C00023A7
:1050C000AA7A022728690C4648F28008BCF1010F31
:1050D00005D0814252D90446081AA8614FE08142A6
:1050E00003D90446081AA86100E0AB617AB12878B8
:1050F00036F820104906B6F8501007EBC0000844F7
:1051000006EB4000C0F8004412D52A8911E0A3B292
:10511000AA883046696900F0C8F8B6F850002978C6
:1051200007EBC101084406EB4000C0F800441CE056
:10513000EA88A3B23046696900F0B7F8687848F6A3
:105140008F7110B1012807D00FE0287836F82020A1
:105150000A4048F2C00105E0287836F820200A40CD
:105160004CF280010A4326F82020297836F82100E5
:1051700048F6BF72104080F0300067E0AB61062354
:105180004FF6FF701AB1BCF1000F1BD056E0B6F815
:1051900050102A783E2C03EBC202114406EB410268
:1051A00002F5806239D9C4F34F11E30632D000BF53
:1051B00000EA812040F4004002E000BF00EA8120C4
:1051C00010603BE0B6F850102A783E2C07EBC20284
:1051D000114406EB410202F580620BD9C4F34F1172
:1051E0005FEAC46C01D1491E89B200EA812141F411
:1051F000004108E0C4F34F015FEAC47C01D0491CC0
:1052000089B200EA8121116069780029BFD00129A3
:105210000AD013E0491E89B2CAE7C4F34F01E3077D
:10522000CCD0491C89B2C9E7B6F85000297807EB01
:10523000C101084406EB4000C0F80044297836F864
:1052400021004BF68F72104080F4405040EA080075
:1052500026F821000020BDE8F08130F8401F41F41D
:105260003F410180002070470148FCF7D8BC000096
:10527000D4060020B0F84400704700005B1C00EB2F
:1052800042005B0800F5806006D000BF30F8042BB8
:1052900021F8022B5B1EF9D170470020704711B92D
:1052A0008021A0F84C100020704710B55B1C00EB6B
:1052B00042005B0800F5806009D011F8012B5B1EED
:1052C00011F8014B42EA042220F8042BF5D110BD5D
:1052D000FEE700000FB4084B10B504A902AA03981A
:1052E00000F0DEF8044602A9002000F070FC204621
:1052F00010BC5DF814FB0000CF5B000802E008C89A
:10530000121F08C1002AFAD170477047002001E03F
:1053100001C1121F002AFBD1704700002DE9FF5F79
:1053200082B00021DDE90430020DDDF840B0034316
:1053300018D044F61050A2F2FF32424315141198CF
:1053400001281FD0A5EB0B00401C5FEA000A4FF0BC
:1053500000064E4FDFF83891B046504615D5CAF1D9
:10536000000413E0119801244AA3012801D16FEA37
:105370000B010298119AC0E90031C0E9024206B05F
:10538000BDE8F09FCBF10000DFE704460021404A72
:10539000491842EB0450CDE9001012E0E00707D0B5
:1053A00032463B4640464946FAF712FF8046894658
:1053B00032463B4610461946FAF70AFF06460F46A4
:1053C0006410002CEAD1DDE90401DDE90023BAF123
:1053D000000F06DAFAF7FCFE42464B46FAF7F8FEF3
:1053E00005E0FBF7D6F842464B46FBF7D2F80446F9
:1053F0000E460022284BFBF753F903D84FF0FF303D
:10540000014607E00022254B20463146FBF71AF8FB
:10541000FBF72EF9102409E0002C0ADB0A220023F6
:10542000FAF782FF039B30321A55641E50EA0102DC
:10543000F2D1641C039AC4F111031444119A012A95
:1054400003D0012208430DD10AE0084304D0002014
:105450004FF0110B119072E7A3EB0B056D1E0DE0E1
:105460005B4504DD4FF0000205F1010504E003DABD
:105470004FF00002A5F10105002AECD00298119925
:10548000C0E90231C0E9004579E70000000014409E
:105490000000F03F300000000000F0430000E03F5B
:1054A0002DE9FF4F95B09B468946064600250FE241
:1054B000252877D100242746F84A0121059400E0E9
:1054C000044316F8013F203B01FA03F01042F7D1E4
:1054D00030782A2811D06FF02F033078A0F13002F5
:1054E000092A16D8059A44F0020402EB820203EB63
:1054F00042021044761C0590EFE759F8042B059200
:10550000002A03DA504244F40054059044F00204A7
:10551000761C30782E2816D116F8010F44F00404BA
:105520002A280DD06FF02F023078A0F13003092B1C
:1055300009D807EB870302EB4303C718761CF3E790
:1055400059F8047B761C30786C280FD006DC4C2888
:1055500017D068280DD06A2814D104E0742810D020
:105560007A280FD10DE044F400140AE044F48014CA
:1055700001E044F440147278824202D104F58014B0
:10558000761C761C307866280BD013DC582877D030
:1055900009DC002875D04528F6D04628F4D04728E5
:1055A0001AD19DE118E0632835D0642879D06528A8
:1055B00012D195E1702873D008DC6728F1D06928F2
:1055C0006FD06E280DD06F2806D1B5E073282CD08F
:1055D000752875D0782874D05A46179990476D1C55
:1055E00075E1C4F30250022809D003280DD0D9F880
:1055F000001004280DD00D6009F1040967E1D9F805
:105600000010EA17C1E90052F6E7D9F800100D8042
:10561000F2E70D70F0E719F8041B8DF80010002078
:105620008DF80100EA46012003E059F804AB4FF081
:10563000FF3061074FF0000102D40DE008F10101D5
:105640008846B9420FDA8045F8DB1AF808100029BD
:10565000F4D108E008F1010188468142FADB1AF82A
:1056600008100029F6D105985B46A0EB08072146F3
:105670003846179A00F094FA284400EB080507E032
:105680004DE029E10DE01AF8010B5A4617999047B1
:10569000B8F10108F7D25B4621463846179A13E164
:1056A00042E00A220092C4F302524FF0000A022A9A
:1056B00008D059F804CB032A4FEAEC710AD00DE068
:1056C00029E02AE009F1070121F00702F2E802C10E
:1056D000914609E00FFA8CFC4FEAEC71042A03D1E1
:1056E0004FFA8CFC4FEAEC71002907DA0A460021D8
:1056F000DCF1000C61EB02012D2202E0220504D551
:105700002B228DF80420012203E0E20701D02022A1
:10571000F7E7904659E00A2102E010220DE010213F
:105720004FF0000A00910BE010224FF0000A44F005
:1057300004040827009203E008224FF0000A0092B8
:10574000C4F30252022A05D059F804CB0021032ADF
:1057500008D009E009F1070121F00702F2E802C1CF
:10576000914605E01FFA8CFC042A01D10CF0FF0CD5
:105770004FF00008220728D5702806D0009B83F040
:10578000100353EA0A0305D00EE040228DF80420EE
:10579000012208E05CEA010206D030228DF80420E4
:1057A0008DF8050002229046009B83F0080353EA1F
:1057B0000A030AD15CEA010201D1620705D5302251
:1057C0008DF804204FF001087F1E582804D034A023
:1057D00003900EA802900DE036A0F9E7534660460C
:1057E000009AFAF7A1FD84460398825C0298401E55
:1057F000029002705CEA0100F0D1029806A9081A32
:1058000000F1200A600702D524F4803400E001276B
:10581000574502DDA7EB0A0000E0002000EB0A017B
:10582000009005984144401A0590E00306D45B4679
:105830002146179A059800F0B3F90544002706E0C1
:1058400001A85A46C05D179990476D1C7F1C4745BB
:10585000F6DBE0030CD55B462146179A059800F06D
:105860009FF9054404E030205A46179990476D1C73
:105870000099481E00900029F5DC08E00298029982
:105880005A460078491C0291179990476D1CBAF14D
:105890000001AAF1010AF1DC65E10000092801001C
:1058A0003031323334353637383961626364656696
:1058B0000000000030313233343536373839414258
:1058C000434445460000000000F058F90544761CAA
:1058D000307800287FF4ECAD19B02846BDE8F08F91
:1058E000620700D4062709F1070222F0070CFCE842
:1058F0000223E14603F000485FEA080C02D00FF2F1
:10590000702C0DE05FEA045C02D50FF2682C07E012
:105910005FEAC47C02D00FF2602C01E0AFF2700CA1
:105920004FF0FF3823F00043CDF850C065280CD06D
:1059300006DC452809D046281DD047283DD13DE04A
:10594000662818D067287ED138E00021112F01DBAE
:10595000112000E0781CCDE9000106A90EA8FFF790
:10596000DDFCDDE90F010E9A03910021009207F1A1
:10597000010A04914DE04FF000400097CDE901107D
:1059800006A90EA8FFF7CAFCDDE90F0203920E9BE1
:1059900011990022DDF80CA00093049211B9791C32
:1059A00000EB010AB7EB0A0004D4C0F1FF3007F1A5
:1059B000010A0490AAEB0700019044E0012F00DAED
:1059C00001270021112F01DD112000E03846CDE92B
:1059D000000106A90EA8FFF7A1FCDDE90F010E9A50
:1059E0000391002104910092BA4621070CD4039937
:1059F000514500DA8A46BAF1010F05DD009AAAF195
:105A00000101515C302908D0B84202DA10F1040FCC
:105A100006DA0121CDE9011015E0AAF10101E9E75B
:105A2000002805DC049901440491AAEB000102E07E
:105A3000411C514500DD8A460499401A401C0190E2
:105A40004FF000400290200704D40198504501DB3C
:105A5000CDF8048000208DF84F0002980DF14F071B
:105A6000B0F1004F25D02B200E9002984FF0020885
:105A700000280CDA404202902D200E9007E00A2107
:105A80000298FAF73BFC3031029007F8011DB8F19B
:105A90000001A8F10108F2DC02980028EFD1791E7C
:105AA0000E980870307800F0200040F0450007F8AC
:105AB000020D12A8C01B00F107081498007800B16D
:105AC000012000EB0A01019801EBE07105984144C7
:105AD000401A401E0590E00306D45B462146179A03
