:020000040800F2
:100000001004002045010008EB0F0008130F000842
:10001000E90F0008B10100084510000800000000C9
:10002000000000000000000000000000EF0F0008CA
:10003000B301000800000000ED0F0008F10F0008F8
:100040005F0100085F0100085F0100085F01000810
:100050005F0100085F0100085F0100085F01000800
:100060005F0100085F0100085F0100085F010008F0
:100070005F0100085F0100085F0100085F010008E0
:100080005F0100085F0100085F0100085F010008D0
:100090005F0100085F0100085F0100085F010008C0
:1000A0005F0100085F0100085F0100085F010008B0
:1000B0005F0100085F0100085F0100085F010008A0
:1000C0005F0100085F0100085F0100085F01000890
:1000D0005F0100085F0100085F0100085F01000880
:1000E0005F0100085F0100085F0100085F01000870
:1000F0005F0100085F0100085F0100085F01000860
:100100005F0100085F0100085F0100085F0100084F
:100110005F0100085F0100085F0100085F0100083F
:100120005F0100085F0100085F0100085F0100082F
:10013000DFF80CD000F02AF80048004789100008CA
:10014000100400200648804706480047FEE7FEE707
:10015000FEE7FEE7FEE7FEE7FEE7FEE7FEE7FEE777
:100160004310000831010008D2B201E000F8012B71
:10017000491EFBD270470022F6E710B513460A4627
:1001800004461946FFF7F0FF204610BD064C074D08
:1001900006E0E06840F0010394E807009847103457
:1001A000AC42F6D3FFF7C8FF3C1100085C11000811
:1001B000FEE7704770B5044600F016FA0546601C6D
:1001C00002D004480078044400F00EFA401BA0421C
:1001D000FAD370BD000000202DE9F84F0027DFF8AA
:1001E000BCA2DFF8BCB20D460446B946504514D057
:1001F0005C4512D0AB4884420FD0AB4884420CD04F
:10020000AA48844209D0AA48844206D0A948844218
:1002100003D0BD21A8A000F035FF28680104090C17
:1002200001D0000C03D0BE21A3A000F02BFF686812
:1002300000281FD00128FCD01128FAD00228F8D0BD
:100240001228F6D0AB498842F3D0AB498842F0D0AF
:10025000AA498842EDD0AA498842EAD0A9498842F1
:10026000E7D0A9498842E4D00328E2D0BF2192A078
:1002700000F008FF0BE1012000FA07F801EA080688
:10028000464574D1544514D05C4512D0854884420B
:100290000FD0854884420CD08448844209D08448D9
:1002A000844206D08348844203D0CD2182A000F04E
:1002B000E9FE904869680A1A814259D00EDC032988
:1002C00075D006DC002953D0012919D0022969D143
:1002D00031E0112921D0122964D13AE0B2F5881F0A
:1002E00046D006DCB2F5803F42D0B2F5801F59D12E
:1002F0003EE0B2F5001F3BD0B2F5041F52D137E00B
:10030000E868022807D0012805D0032803D0D521AA
:1003100069A000F0B7FEE8683EE0E868022807D070
:10032000012805D0032803D0DC2163A000F0AAFE39
:10033000E868001D30E0E868022807D0012805D0F1
:10034000032803D0E3215CA000F09CFEE86808309D
:1003500022E0E868022807D0012805D0032803D04E
:10036000EA2155A000F08EFEE8680C3014E08DE024
:10037000A86880B1012811D0022807D0F7214EA02B
:1003800000F080FEA86830B1012807D04FF00809BE
:10039000C4F8148006E00420814603E04FF0080909
:1003A000C4F81080FF2E05D8224605E0FFE74FF085
:1003B0000000F1E704F104024FEA870001D9A0F13F
:1003C000200013684FF00F0101FA00FC23EA0C0330
:1003D00009FA00FC43EA0C0313606868C00055D5B5
:1003E0004A48826942F001028261806927F0030273
:1003F00000F001000090464813189868BA07120FE1
:1004000091408843544501D1002118E05C4501D159
:10041000012114E023498C4201D102210FE022493D
:100420008C4201D103210AE020498C4201D10421F0
:1004300005E01F498C4201D1052100E006219140D1
:10044000014399606868C0033248016801D53143AF
:1004500000E0B1430160686880032F48016801D55E
:10046000314300E0B14301606868C0022B48016875
:1004700001D5314300E0B14301606868800228483B
:10048000016801D5314300E0B14301607F1C2E6853
:100490003146FE407FF4EFAEBDE8F88F0008014022
:1004A000000C014000100140001401400018014000
:1004B000001C0140002001402E2E2F4472697665F9
:1004C00072732F53544D3332463178785F48414C24
:1004D0005F4472697665722F5372632F73746D3344
:1004E00032663178785F68616C5F6770696F2E6320
:1004F0000000000000001110000021100000311069
:100500000000121000002210000032100010024003
:1005100000000140000401400404014008040140BF
:100520000C04014070B50C00054604D14FF4DA719B
:1005300003A000F0A7FDA868204000D0012070BDF6
:100540002E2E2F447269766572732F53544D3332B9
:10055000463178785F48414C5F4472697665722F06
:100560005372632F73746D3332663178785F6861CC
:100570006C5F6770696F2E630000000070B51546F0
:100580000C00064604D14FF4EA7108A000F07AFD91
:1005900045B1012D04D040F2D51104A000F072FD48
:1005A000346170BD2004306170BD00002E2E2F44D8
:1005B0007269766572732F53544D333246317878B1
:1005C0005F48414C5F4472697665722F5372632FA6
:1005D00073746D3332663178785F68616C5F677011
:1005E000696F2E63000000000148806870470000BA
:1005F0000000002002488168027811448160704741
:1006000000000020074810B5016841F010010160AA
:10061000032000F097F8002000F006F800F024F81E
:10062000002010BD0020024070B50D4D04464FF46F
:100630007A712878B1FBF0F00A490968B1FBF0F053
:1006400000F053FC48B9102C07D200222146501E5E
:1006500000F028F800206C6070BD012070BD000023
:10066000000000200C0000200C4808B5816941F012
:1006700001018161816901F001010091C16941F0CD
:100680008051C161C06900F0805000900448416809
:1006900021F0E06141F00071416008BD00100240AE
:1006A0000000014070B515460C460646102A03D3DB
:1006B000AA2114A000F0E6FC102C03D3AB2111A05A
:1006C00000F0E0FC1E480068C0F30223C3F10702FB
:1006D0002046042A00D90422191D072901D200232B
:1006E00000E0DB1E012404FA02F1491E014099409A
:1006F0009C40641E2C4021433046BDE8704000F011
:10070000A2BC00002E2E2F447269766572732F539F
:10071000544D3332463178785F48414C5F447269BA
:100720007665722F5372632F73746D33326631782E
:10073000785F68616C5F636F727465782E63000028
:100740000CED00E010B5044607280BD0062C09D0AC
:10075000052C07D0042C05D0032C03D0922108A02F
:1007600000F090FC154904F0070208684FF6FF03FB
:10077000184040EA0220124A1043086010BD0000F1
:100780002E2E2F447269766572732F53544D333277
:10079000463178785F48414C5F4472697665722FC4
:1007A0005372632F73746D3332663178785F68618A
:1007B0006C5F636F727465782E6300000CED00E06F
:1007C0000000FA052DE9F0470F46050078D02868AB
:1007D000C1070AD1810708D4410706D4000704D411
:1007E0004FF44E716FA000F04DFC47B1012F06D0C1
:1007F000022F04D040F239316AA000F043FC774E5A
:10080000306800F00700B84209D2306820F00700D5
:1008100038433060306800F00700B84277D128686C
:100820006F4C810729D5400703D5606840F4E0602C
:1008300060602878000703D5606840F4605060600D
:10084000A868A0B1802812D0902810D0A0280ED07F
:10085000B0280CD0C0280AD0D02808D0E02806D074
:10086000F02804D040F25F314EA000F00BFC60682D
:10087000A96820F0F000084360602878C00737D0EE
:10088000686868B101281CD002281DD040F266318A
:1008900044A000F0F7FB6868012812D0022813D0AA
:1008A00020688007002832DA6068696820F0030059
:1008B00008436060FFF798FE804641F2883910E0F7
:1008C00025E020688003EDE720688001EAE700BFAB
:1008D000FFF78AFEA0EB0801494502D90320BDE8D5
:1008E000F0876068696800F00C00B0EB810FEFD111
:1008F000306800F00700B8420BD9306820F00700DC
:1009000038433060306800F00700B84201D0012061
:10091000E5E728784FF4806640074FF4A0674FF46E
:10092000C0684FF4E06914D5E86860B1B0420AD0FD
:10093000B84208D0404506D0484504D04FF469710C
:1009400018A000F09FFB6068E96820F4E0600843AD
:1009500060602878000715D5286960B1B0420AD0D8
:10096000B84208D0404506D0484504D040F2AB31EB
:100970000CA000F087FB6068296920F4605040EA11
:10098000C100606000F034F86168164AC1F30311D9
:10099000515CC8401449086014480068FFF744FEE1
:1009A00000209CE72E2E2F447269766572732F53B8
:1009B000544D3332463178785F48414C5F44726918
:1009C0007665722F5372632F73746D33326631788C
:1009D000785F68616C5F7263632E63000020024081
:1009E000001002402C1100080C0000200400002020
:1009F00012A185B00FC98DE80F0014A0144A006839
:100A000004905168134801F00C03042B10D0082BFC
:100A10000ED1C1F38343C9031DF803000AD5516801
:100A200004AAC1F34041515C0A4A5043B0FBF1F0C3
:100A300005B0704708494843FAE70000020304057F
:100A4000060708090A0B0C0D0E0F1010010200001A
:100A50000010024000127A0000093D002DE9F84F15
:100A600004007DD0FA4EFB4D20684FF0010A4FF094
:100A700000084FF4803960B1C1070DD1810762D4FD
:100A800001076ED440076DD440F26711F2A000F068
:100A9000F9FA2078C00753D060684FF4A02740B11E
:100AA000484506D0B84204D040F26D11EAA000F0EB
:100AB000E9FA6868C0F38100012807D06868C0F3CC
:100AC0008100022809D16868C00306D52868800320
:100AD00036D560680028C4D032E06068484503D14C
:100AE000286840F4803009E008B1B8420DD0286889
:100AF00020F480302860286820F480202860606816
:100B000088B1FFF771FD074609E0286840F48020AE
:100B10002860E5E7FFF768FDC01B642877D82868E0
:100B20008003F7D50CE0FFF75FFD074605E000BF47
:100B3000FFF75AFDC01B6428F0D828688003F7D45B
:100B4000207880074ED5206930B1012804D040F2CA
:100B5000A111C1A000F096FA60691F2808D902E02F
:100B600096E042E07BE04FF4D171BBA000F08AFA3E
:100B7000686810F00C0F07D06868C0F38100022885
:100B800009D16868C00306D42868800714D5206995
:100B900001287DD110E02069B0B1C6F800A0FFF7B0
:100BA00023FD074605E000BFFFF71EFDC01B02281E
:100BB000B4D828688007F7D52868616920F0F80064
:100BC00040EAC10028600DE0C6F80080FFF70CFD88
:100BD000074604E0FFF708FDC01B02289ED82868DE
:100BE0008007F7D42078000736D5A94FA06920B335
:100BF000012806D04FF4F17197A000F043FAA069E4
:100C0000D8B1C7F800A0FFF7EFFC074605E054E1B4
:100C1000FFF7EAFCC01B02288ED8686A8007F7D568
:100C20009C484FF4FA510068B0FBF1F0009000BF0F
:100C30000098411E0091FAD20EE0C7F80080FFF73D
:100C4000D3FC074605E000BFFFF7CEFCC01B02281F
:100C5000AED8686A8007F7D4207840076ED5E06880
:100C6000002740B1012806D0052804D040F2112108
:100C700079A000F007FAE869C00008D4E86940F0FC
:100C80008050E861E869012700F08050009000E0A2
:100C900027E181480168C90512D4016841F48071D7
:100CA0000160FFF7A1FC834606E000BFFFF79CFC54
:100CB000A0EB0B00642891D877480068C005F5D5F3
:100CC000E06801280AD008B1052811D0286A20F070
:100CD00001002862286A20F0040002E0286A40F03F
:100CE00001002862E068A8B1FFF77EFC83460DE0B2
:100CF000286A40F004002862F0E700BFFFF774FCA8
:100D0000A0EB0B0141F28830814285D8286A800728
:100D1000F4D50EE0FFF768FC834607E0FFF764FCBC
:100D2000A0EB0B0141F28830814291D8286A8007FC
:100D3000F4D41FB1E86920F08050E861E069002830
:100D40007ED0012809D0022807D040F2AF2142A06E
:100D500000F098F9E069002872D06868C0F381005B
:100D60000228E0696DD0022805D0C6F86080FFF740
:100D70003BFC0446A4E0206A30B1484504D04FF45F
:100D80002E7135A000F07EF9606A70B3B0F5802F47
:100D90002BD0B0F5002F28D0B0F5402F25D0B0F5DE
:100DA000801F22D0B0F5A01F1FD0B0F5C01F1CD0EF
:100DB000B0F5E01F19D0B0F5001F16D0B0F5101F28
:100DC00013D0B0F5201F10D0B0F5301F0DD0B0F506
:100DD000401F0AD0B0F5501F07D0B0F5601F04D0F7
:100DE00040F2B9211CA000F04DF9C6F86080FFF771
:100DF000FBFB074605E000BFFFF7F6FBC01B022820
:100E00005BD828688001F7D4206A48450FD1A068D4
:100E100038B1B0F5003F04D040F2CF210EA000F071
:100E200031F96868A16820F4003008436860D4E9AB
:100E300008010843696821F474110843686001E0FF
:100E400051E041E0C6F860A0FFF7CEFB04462AE07F
:100E500000004242001002402E2E2F447269766537
:100E600072732F53544D3332463178785F48414C7A
:100E70005F4472697665722F5372632F73746D339A
:100E800032663178785F68616C5F7263632E6300ED
:100E9000800442420C00002000700040FFF7A4FBD9
:100EA000001B022809D828688001F7D51BE000BF85
:100EB000FFF79AFB001B022802D90320BDE8F88F38
:100EC00028688001F4D40EE00128F7D06868226A0F
:100ED00000F48031914204D1616A00F470108842BC
:100EE00001D00120EAE70020E8E710B5401EB0F18C
:100EF000807F01D3012010BD4FF0E02460610F21FD
:100F0000601700F0A0F80020A061072020610020F9
:100F100010BDFEE7F0B585B000252E48009501957F
:100F200002950395816941F010018161816901F0A9
:100F300010010491816941F020018161816901F012
:100F400020010491816941F004018161816901F00E
:100F500004010491816941F00801816180691E4F9B
:100F600000F008000490002203213846FFF706FB3A
:100F70004FF6F0700324CDE9000469463846FFF7C8
:100F80002BF90126CDE90046CDE9025469463846E1
:100F9000FFF722F90C208DE8610069463846FFF71B
:100FA0001BF949F6FF70CDE9000469460B48FFF7CD
:100FB00013F94FF6FF70CDE9000469460848FFF7C2
:100FC0000BF90420CDE9000469460648FFF704F94F
:100FD00005B0F0BD001002400010014000080140C3
:100FE000000C014000140140FEE770477047704755
:100FF000FFF700BB30B58FB028216846FFF7BBF87C
:1010000014210AA8FFF7B7F801210804CDE9001060
:101010000024029402250491CDE907504FF4E0101A
:1010200009906846FFF71AFD0F20CDE90A0568020E
:10103000CDE90C4002210AA80E94FFF7C3FB0FB0C4
:1010400030BD7047FEE70907090E002804DB00F1F8
:10105000E02080F80014704700F00F0000F1E0205D
:1010600080F8141D704702E008C8121F08C1002A4A
:10107000FAD170477047002001E001C1121F002A19
:10108000FBD1704770470000FFF7BCFAFFF7B2FFD3
:10109000FFF740FF244D002404212846FFF742FAC1
:1010A000064608212846FFF73DFA56EA000102D01D
:1010B00040B11EB301E084F00304012C1FD0022CC8
:1010C00001D017E00224012211462846FFF756FA04
:1010D000002202212846FFF751FAC820FFF76AF8DC
:1010E000002201212846FFF749FA01220221284661
:1010F000FFF744FAC820FFF75DF8CDE7012401228D
:1011000011462846FFF73AFA012202212846FFF746
:1011100035FAC820FFF74EF8002201212846FFF7D4
:101120002DFA0022E2E7000000100140000000005C
:101130000000000001020304060708095C11000812
:101140000000002010000000661000086C1100086C
:1011500010000020000400007610000801000000CC
:0C11600010000000000000000024F4005B
:0400000508000131BD
:00000001FF
